:020000040800F2
:10000000FCFF0020651D00005D1D00005D1D00005F
:100010005D1D00005D1D00005D1D00005D1D0000F8
:100020005D1D00005D1D00005D1D00005D1D0000E8
:100030005D1D00005D1D00005D1D00005D1D0000D8
:100040005D1D00005D1D00005D1D00005D1D0000C8
:100050005D1D00005D1D00005D1D00005D1D0000B8
:100060005D1D00005D1D00005D1D00005D1D0000A8
:100070005D1D00005D1D00005D1D00005D1D000098
:100080005D1D00005D1D00005D1D00005D1D000088
:100090005D1D00005D1D00005D1D00005D1D000078
:1000A0005D1D00005D1D00005D1D00005D1D000068
:1000B0005D1D00005D1D00005D1D00005D1D000058
:1000C0005D1D00005D1D00005D1D00005D1D000048
:1000D0005D1D00005D1D00005D1D00005D1D000038
:1000E0005D1D00005D1D00005D1D00005D1D000028
:1000F0005D1D00005D1D00005D1D00005D1D000018
:100100005D1D00005D1D00005D1D00005D1D000007
:100110005D1D00005D1D00005D1D00005D1D0000F7
:100120005D1D00005D1D00005D1D00005D1D0000E7
:100130005D1D00005D1D00005D1D00005D1D0000D7
:100140005D1D00005D1D00005D1D00005D1D0000C7
:1001500001480068704700BF7001002083B0CDF8EF
:1001600000E000F0FF031A09104603F00F021346E7
:1001700014E0194A02921FE0184A02921CE0184A41
:10018000029219E0174A029216E0174A029213E00F
:10019000164A029210E0164A02920DE00028E8D0BA
:1001A0000128E9D00228EAD00328EBD00428ECD0BB
:1001B0000528EDD00628EED0012212B29A40ADF803
:1001C000042002980A46BDF8041000F0DDF9DDF8BD
:1001D00000E003B0704700BF00080140000C014080
:1001E000001001400014014000180140001C0140B3
:1001F0000020014081B00168C1F3801001B0704758
:1002000082B0CDF800E0034619460191FFF7A0FF48
:1002100040F2E83100FB01F201990A601F490978B8
:10022000C1F30311C8B21E4909180878C0B21A1DDB
:100230001968C140116019490988C1F3022188B2C7
:10024000174909180878C0B203F20802191D096895
:10025000C140116011490988C1F3C22188B2104917
:1002600009180878C0B203F20C02191D0968C140D0
:1002700011600A490988C1F3813188B20949091816
:100280000978C8B203F2100203F20C010968B1FB4D
:10029000F0F11160DDF800E002B070470410024098
:1002A000B4210000AC16000081B0194900EA010138
:1002B000084600220EE0042022E0082020E0102062
:1002C0001EE020201CE040201AE0802018E040F2D0
:1002D000001015E00F498842EDD00F498842ECD05C
:1002E0000E498842EBD00E498842EAD00D49884237
:1002F000E9D00D498842E8D00C498842E7D0104641
:100300000B49096841EA000209490A6001B07047D7
:1003100000FCFFFF00080140000C014000100140FC
:100320000014014000180140001C01400020014061
:100330001810024081B0CDF800E0012252B23E49CF
:100340000A6000F268010B686FF0006103EA0102C5
:10035000144603F00061C90E0B4602F00041B1F1F2
:10036000004F02D135490A6801E035490A6804F4B2
:100370007021090C0E464FF6FF7104EA01010D468B
:1003800004F44011B1F5401F0DD16FF0706102EA25
:1003900001010E462A490A686FF070610A40284937
:1003A0000A60324616E004F48011B1F5801F09D1CD
:1003B0004FF00301B140C94302EA010141F070610D
:1003C0000A4607E0610D090105FA01F1C9430A4037
:1003D00042F070622BB1610D090105FA01F10A4387
:1003E000FFE704F00041B1F1004F02D113490A6068
:1003F00001E013490A6040F2000A81464FEA8A018F
:1004000009EB01010968B1F1FF3F10D009F1340196
:100410004FEA8A03C91809680A4609EB030109680B
:1004200008461146FFF79AFE0AF1010AE6E7DDF8F1
:1004300000E001B0704700BF000342421C000140D1
:100440000400014081B00268C2F3401101B9FAE72B
:10045000011D096888B201B07047FFFF81B00168D3
:10046000C1F3401001B0704781B0CDF800E00348FF
:10047000FFF7F4FFDDF800E001B07047004C0040EA
:1004800081B0CDF800E00348FFF7B4FEDDF800E0EE
:1004900001B07047004C004081B0CDF800E0034847
:1004A000FFF7A8FEDDF800E001B07047004800400B
:1004B00081B0CDF800E00348FFF7C4FFDDF800E0AD
:1004C00001B07047004C00407047FFFF81B0ADF8AD
:1004D00000100146BDF800000B68C3F3C01202B95A
:1004E000FAE70A1D106001B07047FFFF81B000916C
:1004F000014600980C464A1C11460346421C104611
:100500001A782270227802B1F4E701B07047FFFF39
:1005100081B0CDF800E00348FFF794FFDDF800E07C
:1005200001B070470050004081B0CDF800E00348B2
:10053000FFF794FFDDF800E001B070470050004085
:1005400081B0CDF800E00348FFF754FEDDF800E08D
:1005500001B070470050004081B0CDF800E0034882
:10056000FFF770FFDDF800E001B070470044004085
:1005700081B0CDF800E00348FFF770FFDDF800E040
:1005800001B070470044004081B0CDF800E08CB26B
:100590001546774B00EA03031E461846FFF784FE14
:1005A000B4F1FF0F0CD1734B9D4203D14FF03333A5
:1005B0003360D9E0422D03D14FF044333360D3E0B0
:1005C0004FF6FF739C4214D16A4B9D4207D14FF006
:1005D00033333360341D4FF033332360C4E0422D96
:1005E00007D14FF044333360341D4FF04433236060
:1005F000BAE00021002005F001030BB100211DE04D
:1006000005F0020333B105F4C0730BB1082100E01B
:10061000042113E005F0040333B105F020030BB10E
:10062000042100E0002109E005F0080333B105F0E2
:1006300020030BB10C2100E00821FFE74E4B05EA37
:1006400003030BB1032009E005F400730BB1022092
:1006500004E005F480630BB10120FFE705F00C0313
:100660000BB10143FFE704F0FF039BB2002B3BD02B
:10067000376800201FFA84F832462E4608282CD20C
:100680004FF0010303FA00F408EA0403A34222D165
:1006900085004FF00F03AB40DB4307EA030401FA88
:1006A00005F344EA03031D4606F48173B3F5817F25
:1006B00005D102F214044FF001038340236006F0D9
:1006C0008203822B05D102F210044FF00103834014
:1006D00023602F46FFE7401CD0E717601FFA88F021
:1006E0000F463146164602E00F462946A0B2B0F149
:1006F000FF0F39D9331DD3F800800022082A30D2E9
:1007000002F208044FF0010303FA04F400EA0403C0
:10071000A34224D195004FF00F03AB40DB4308EA1E
:10072000030807FA05F348EA030801F48173B3F5F7
:10073000817F07D106F2140502F208044FF001038D
:10074000A3402B6001F08203822B07D106F2100533
:1007500002F208044FF00103A3402B60FFE7521C94
:10076000CCE7331DC3F80080DDF800E001B070472E
:1007700000FCFFFF140008000008080081B0CDF85D
:1007800000E00348FFF76AFEDDF800E001B07047C3
:100790000038014081B0CDF800E00348FFF72AFDA2
:1007A000DDF800E001B070470038014081B0CDF8BD
:1007B00000E00348FFF71EFDDDF800E001B07047E0
:1007C0000044004089B0CDF800E0834698B28C46E2
:1007D000BDF824100A9E04ACADF80410ADF8080072
:1007E0002046FFF70DFDBDF80800BDF80410644C6D
:1007F000A34512D101256DB2624C2560624D634C58
:100800002560634D634C2560634D644C2560644DE9
:10081000644C2560079C039456E0634CA34512D1B9
:1008200001256DB2614C2560614D584C2560614DCC
:10083000584C2560604D594C2560604D594C2560E1
:10084000069C039440E05E4CA34512D101256DB295
:100850005C4C25605C4D4D4C25605C4D4D4C2560DD
:100860005B4D4E4C25605B4D4E4C2560069C0394C1
:100870002AE0594CA34512D101256DB2574C256091
:10088000574D424C2560574D424C2560564D434CC8
:100890002560564D434C2560069C039414E0544C4F
:1008A000A34511D101256DB2524C2560524D374CF4
:1008B0002560524D374C2560514D384C2560514DC7
:1008C000384C2560069C0394ADF80410ADF8080080
:1008D0003046FFF72FFDBDF80800BDF804100BF1FE
:1008E000100500242C600BF110052C680C432C60C3
:1008F0000BF10C0500242C6018B140F4806080B22C
:10090000FFE70BF10C052C6804432C600BF10C067F
:100910000125346865F34D3434600BF10C06012574
:10092000346865F3C30434600BF10C0601253468A8
:1009300065F3820434600BF1140500242C60039DE0
:10094000192465434FEA8C04B5FBF4F76424B7FB24
:10095000F4F42601350964246C433C1B240104F2A1
:1009600032056424B5FBF4F404F00F0446EA0404F1
:100970000BF10805A4B22C60DDF800E009B0704767
:100980000038014038034242D10D000074010020BC
:10099000090A0000780100207D0700007C0100208A
:1009A000950700008001002000440040C40342423B
:1009B0000D0D00005905000071050000AD07000095
:1009C00000480040C8034242F10C0000210A000028
:1009D000390A000099040000004C0040CC03424258
:1009E000D50C0000B104000069040000810400007F
:1009F00000500040D0034242290D000011050000C4
:100A0000290500004105000081B0CDF800E0034851
:100A1000FFF718FDDDF800E001B070470038014035
:100A200081B0CDF800E00348FFF70CFDDDF800E0F1
:100A300001B070470048004081B0CDF800E00348A5
:100A4000FFF70CFDDDF800E001B070470048004002
:100A500001480068704700BF080122420148006851
:100A6000704700BF3001224201480068704700BF54
:100A70002C01224201480068704700BF2801224231
:100A800001480068704700BF3481224281B0CDF830
:100A900000E0044C2468A047C0B2DDF800E001B0DB
:100AA000704700BFA804002081B0CDF800E0044CDE
:100AB0002468A047C0B2DDF800E001B0704700BF75
:100AC000AC0400200D490A880D49891808700B49AB
:100AD00009884A1C09490A800D280DD107490A884E
:100AE00007498A1800211170044909884A1C0349E2
:100AF0000A80012203490A70704700BF6A01002082
:100B0000860100208401002001480068704700BF72
:100B10001001214281B0CDF800E01848007860B99A
:100B20000120174C2468A0471648174C2468A0479A
:100B30000020134C2468A0470FE01048007860B1F3
:100B400001200F4C2468A047104800680D49FFF7AA
:100B5000CDFC00200A4C2468A04701210C480170FC
:100B600000210C48017000210B480170012103484D
:100B70000170DDF800E001B0704700BF8501002082
:100B80009004002086010020A0040020880400209A
:100B900069010020840100208704002001480068CA
:100BA000704700BF0001214201480068704700BF44
:100BB0003001224201480068704700BF3081224264
:100BC00001480068704700BF3081224281B0CDF8F3
:100BD00000E0019D2C4610B408B493B28AB20146DD
:100BE0000348FFF7EFFD02B0DDF800E001B0704709
:100BF0000048004001480068704700BF28012242B9
:100C000081B0CDF800E0019D2C4610B408B493B239
:100C10008AB201460348FFF7D5FD02B0DDF800E0D7
:100C200001B070470044004001480068704700BFB1
:100C30002C01224281B0CDF800E0044A89B2FFF7CE
:100C4000A3FCDDF800E001B0704700BF140008000D
:100C500081B0392803D8302801D3012100E00021D8
:100C6000C8B201B07047FFFF01480068704700BF7D
:100C70001C81214281B0CDF800E0034C2468A047DC
:100C8000DDF800E001B07047A404002001480068CE
:100C9000704700BF1881214281B0CDF800E04FF0CD
:100CA000420289B2FFF770FCDDF800E001B0704746
:100CB00001480068704700BF18812242014800685F
:100CC000704700BF1481224201480068704700BF8E
:100CD0003881224281B0CDF800E081B20348FFF7AD
:100CE000F5FBDDF800E001B0704700BF004C0040AC
:100CF00081B0CDF800E081B20348FFF7E7FBDDF8F3
:100D000000E001B0704700BF0048004081B0CDF85E
:100D100000E081B20348FFF7D9FBDDF800E001B045
:100D2000704700BF0044004081B0CDF800E081B2C0
:100D30000348FFF7CBFBDDF800E001B0704700BFD0
:100D40000050004001480068704700BF28812242DF
:100D500001480068704700BF2481224281B00091A1
:100D6000014600980A7832B10B780278934202D19A
:100D7000491C401CF6E70B7802789A1A50B201B071
:100D80007047FFFF81B0CDF800E0019D2C4610B404
:100D900008B493B28AB201460348FFF713FD02B0CC
:100DA000DDF800E001B070470038014001480068FC
:100DB000704700BF1C81214201480068704700BF96
:100DC0000C01224201480068704700BF1401214213
:100DD00081B0CDF800E081B20348FFF777FBDDF882
:100DE00000E001B0704700BF0038014001480068D2
:100DF000704700BF2081224201480068704700BF51
:100E00001881214282B0CDF800E0164D2C787CB1DB
:100E1000154C24680195A047019D40B9287801959B
:100E2000FFF728FF019D681C01460D46FFE7EDE72F
:100E30000D20FFF71FFF0A20FFF71CFF00210B48C2
:100E4000018000210A48017000210A480170012137
:100E500009480170012109480170DDF800E002B085
:100E6000704700BF06030020B00400206A01002084
:100E700069010020840100208704002085010020F2
:100E800081B0CDF800E0264801462648FFF766FF0E
:100E900008B9012040E0244801462248FFF75EFFE0
:100EA00008B9022038E0214801461E48FFF756FFE6
:100EB00008B9032030E01E4801461A48FFF74EFFEC
:100EC00008B9042028E01B4801461648FFF746FFF2
:100ED00008B9052020E0184801461248FFF73EFFF8
:100EE00008B9062018E0154801460E48FFF736FFFE
:100EF00008B9072010E0124801460A48FFF72EFF04
:100F000008B9082008E00F4801460648FFF726FF09
:100F100008B9092000E00020DDF800E001B07047CA
:100F2000580000208601002066000020710000208B
:100F30007C00002083000020A3000020A8000020E7
:100F4000B3000020C4000020026806490A60011DA9
:100F50000A6805490A6000F208010A6803490A6044
:100F6000704700BFA4040020A8040020AC040020A7
:100F700000F230011C310A6805490A6000F20801DC
:100F80000A6804490A60011D0A6803490A6070473B
:100F9000B0040020900400208C04002081B0CDF823
:100FA00000E0094902B440F2000340F2000240F2BE
:100FB0000001FFF725FE01B0044A05490A60002040
:100FC000DDF800E001B07047002000000D0D0000CA
:100FD0006C010020002106480180002105480170B5
:100FE000002105480170012104480170704700BFCD
:100FF0006A01002069010020840100208501002091
:1010000081B0CDF800E00178CCB2A0B2034C2468E6
:10101000A0470020DDF800E001B070476C0100201F
:1010200001490860704700BFB4812242014908604D
:10103000704700BFA801224201490860704700BF05
:10104000AC01224281B00091014600980A780AB1B1
:10105000491CFBE70C464A1C11460346421C10463D
:101060001A782270227802B1F4E701B07047FFFFCE
:1010700001490860704700BF9001214201490860A2
:10108000704700BF8801224281B0202806D00D2879
:1010900002D8092800D301E0002100E00121C8B2F4
:1010A00001B0704781B0CDF800E0A9E0012905D179
:1010B00040F210016548FFF7EFFD04E040F2100137
:1010C0006248FFF7B7FDBBE0012905D140F20401FA
:1010D0005F48FFF7E1FD04E040F204015C48FFF7E0
:1010E000A9FDADE0012905D142F200015948FFF701
:1010F000D3FD04E042F200015648FFF79BFD9FE05C
:10110000012905D140F200415148FFF7C5FD04E037
:1011100040F200414E48FFF78DFD91E0012905D1D5
:1011200040F600014A48FFF7B7FD04E040F6000131
:101130004748FFF77FFD83E0012905D141F2000117
:101140004348FFF7A9FD04E041F200014048FFF7E2
:1011500071FD75E0012905D140F201013B48FFF71F
:101160009BFD04E040F201013848FFF763FD67E0B2
:10117000012905D140F200413648FFF78DFD04E01A
:1011800040F200413348FFF755FD59E0012905D1F0
:1011900040F200212F48FFF77FFD04E040F20021DC
:1011A0002C48FFF747FD4BE0012905D140F2001123
:1011B0002848FFF771FD04E040F200112548FFF7D1
:1011C00039FD3DE0012905D140F240012248FFF7F9
:1011D00063FD04E040F240011F48FFF72BFD2FE0C4
:1011E000012905D140F280011B48FFF755FD04E0BD
:1011F00040F280011848FFF71DFD21E0012020E0AA
:1012000000283FF453AF01283FF45EAF02283FF4BB
:1012100069AF03283FF474AF04283FF47FAF05287B
:101220003FF48AAF06283FF495AF0728A0D00828DE
:10123000ACD00928B8D00A28C4D00B28D0D0DDE71C
:101240000020DDF800E001B0704700BF0008014059
:101250000010014000140140000C014081B0CDF8A5
:1012600000E0A9E0012905D140F220016548FFF71F
:1012700013FD04E040F220016248FFF7DBFCBBE015
:10128000012905D140F208015F48FFF705FD04E0A0
:1012900040F208015C48FFF7CDFCADE0012905D123
:1012A00044F200015948FFF7F7FC04E044F2000162
:1012B0005648FFF7BFFC9FE0012905D140F20041ED
:1012C0005148FFF7E9FC04E040F200414E48FFF7C7
:1012D000B1FC91E0012905D140F600014A48FFF731
:1012E000DBFC04E040F600014748FFF7A3FC83E085
:1012F000012905D141F200014348FFF7CDFC04E08C
:1013000041F200014048FFF795FC75E0012905D145
:1013100041F200013D48FFF7BFFC04E041F200014B
:101320003A48FFF787FC67E0012905D140F6000144
:101330003648FFF7B1FC04E040F600013348FFF700
:1013400079FC59E0012905D140F240012F48FFF70F
:10135000A3FC04E040F240012C48FFF76BFC4BE09B
:10136000012905D140F220012848FFF795FC04E04F
:1013700040F220012548FFF75DFC3DE0012905D141
:1013800040F240012248FFF787FC04E040F24001B0
:101390001F48FFF74FFC2FE0012905D140F28001E3
:1013A0001B48FFF779FC04E040F280011848FFF782
:1013B00041FC21E0012020E000283FF453AF012848
:1013C0003FF45EAF02283FF469AF03283FF474AFE7
:1013D00004283FF47FAF05283FF48AAF06283FF486
:1013E00095AF0728A0D00828ACD00928B8D00A2883
:1013F000C4D00B28D0D0DDE70020DDF800E001B03C
:10140000704700BF00080140001001400014014077
:10141000000C014081B05A2805D8412804D340F07F
:101420002001C8B2FFE7FFE701B0704781B05A283A
:1014300003D8412801D3012100E00021C8B201B046
:101440007047FFFF81B0CDF800E0C2B2662A03D832
:10145000612A01D3012100E00021C8B2462A03D845
:10146000412A01D3012100E0002140EA0101CBB271
:10147000D0B2FFF7EDFB43EA0001C8B2DDF800E0AF
:1014800001B0704781B0CDF800E0094902B440F2E4
:10149000000340F2000240F20001FFF797FB01B0A9
:1014A000044A05490A600020DDF800E001B07047F9
:1014B000D8200000F10C00006C01002081B0CDF8B4
:1014C00000E0094902B440F2000340F2000240F299
:1014D0000001FFF795FB01B0044A05490A600020AE
:1014E000DDF800E001B07047002000000D0D0000A5
:1014F0006C01002081B0CDF800E0094902B440F24F
:10150000000340F2000240F20001FFF73BFC01B093
:10151000044A05490A600020DDF800E001B0704788
:101520006C200000D10D00006C01002081B0CDF8CE
:1015300000E00B4D00F20C010C6800F208010B6892
:10154000011D0A680168084691B29AB2A3B220B49C
:10155000FFF73CFB01B00020DDF800E001B0704770
:10156000D820000081B0CDF800E00B4D00F20C0156
:101570000C6800F208010B68011D0A680168084642
:1015800091B29AB2A3B220B4FFF73AFB01B00020A7
:10159000DDF800E001B070470020000081B0CDF818
:1015A00000E0264801462648FFF7D8FB08B90A2084
:1015B00040E0244801462248FFF7D0FB08B900204C
:1015C00038E0214801461E48FFF7C8FB08B90C2047
:1015D00030E01E4801461A48FFF7C0FB08B90D204D
:1015E00028E01B4801461648FFF7B8FB08B90E2053
:1015F00020E0184801461248FFF7B0FB08B9002068
:1016000018E0154801460E48FFF7A8FB08B900206E
:1016100010E0124801460A48FFF7A0FB08B9002075
:1016200008E00F4801460648FFF798FB08B912206A
:1016300000E00020DDF800E001B07047D20000209B
:1016400086010020DA000020E4000020EB000020EA
:10165000FC00002006010020120100201B010020D8
:101660002401002001490860704700BF9881224290
:1016700001490860704700BF948122420149086017
:10168000704700BFB081224201490860704700BF27
:10169000B001224201490860704700BFB081224278
:1016A00001490860704700BF988121420204060882
:1016B00041F6FF27C0F2B7077F1EFDD100BF00BF74
:1016C00000BF00BF00BF704781B0CDF800E0FFF75A
:1016D000EBF918B1FFF7DAF9FFF7F4F906480078EB
:1016E00008B1FFF717FA0548007808B1FFF712FABA
:1016F000DDF800E001B0704784010020860400207E
:101700001346CAB20146D0B21A461446531E1A46B0
:1017100014B10870491CF8E77047FFFF01490860E1
:10172000704700BF9C81214244F67F77C0F21207C8
:101730007F1EFDD100BF00BF00BF00BF00BF7047CC
:1017400001490860704700BFAC01224201490860AE
:10175000704700BFA081224201490860704700BF66
:10176000B001224201490860704700BFA4812242B3
:1017700001490860704700BF8001214201490860AB
:10178000704700BFA881224201490860704700BF2E
:101790009881214201490860704700BFB881224208
:1017A00001490860704700BFA80122420149086052
:1017B000704700BF8C01224201490860704700BF9A
:1017C0009C81214201490860704700BF9401214279
:1017D00083B0CDF800E001900291174A127812B957
:1017E000FFF772FFF9E7154A11461548FEF77EFE2E
:1017F00001991348FFF726FC029B124A1360FFF77A
:1018000001FB0D4A127812B9FFF75EFFF9E7FFF707
:1018100037FBC1B208B1C8B209E0FFF7DBFB064AEB
:10182000127812B9FFF750FFF9E7FFF7B7FEDDF8BE
:1018300000E003B0704700BF690100202B010020C9
:10184000060300208804002082B0CDF800E00023C9
:10185000002204462178C8B2FFF716FC08B1641CC8
:10186000F8E721782D2905D1591C88B2611C84B272
:10187000084606E021782B2901D1601C00E02046B3
:101880009CB295B20246411C0E461178ADF8041088
:10189000BDF80400FFF7D6FD10B3BDF80400FFF754
:1018A000C5FD28B1BDF80400FFF7B4FDADF8040094
:1018B000BDF80400FFF7CCF928B1BDF804103039A9
:1018C000ADF8041004E0BDF804105739ADF8041069
:1018D0002A0192B29DF8041051188DB23046D1E71A
:1018E00014B1694208B200E028B2DDF800E002B0AD
:1018F0007047FFFF81B0CDF800E011E00846FFF728
:10190000C1FD16E00846FFF7D9FD12E00846FFF7D3
:10191000F1FD0EE00846FFF741FB0AE0012008E078
:101920000028EBD00128EDD02028EFD03028F1D0CE
:10193000F4E7DDF800E001B07047FFFF83B0CDF8B9
:1019400000E0024610460D228DF808200A228DF88C
:1019500009201FE0FFF754FB23E002782AB1019031
:10196000FFF74EFB0198401CF7E71AE002782AB116
:101970000190FFF745FB0198401CF7E702AA1046CB
:10198000FFF73EFB0DF109021046FFF739FB08E0B7
:10199000062007E00029DDD00129DED00229E5D0AC
:1019A000F6E70020DDF800E003B0704781B0CDF825
:1019B00000E05FFA81F95FFA82FA0FE05FFA8AF1DC
:1019C0005FFA89F0FFF76EFB0DE05FFA8AF15FFACC
:1019D00089F0FFF743FC06E0012004E00028EDD089
:1019E0000128F2D0F8E7DDF800E001B07047FFFF12
:1019F00081B0CDF800E009E00846FFF797FD0AE066
:101A00000846FFF7AFFD06E0012004E00028F3D010
:101A10000128F5D0F8E7DDF800E001B07047FFFFDE
:101A200083B0CDF800E08DF8040002910120274C2E
:101A30002468A047FFF778FE0020244C2468A047C4
:101A4000FFF772FEFFF770FEFFF76EFE01201F4CDE
:101A50002468A047FFF768FE01201D4C2468A047BA
:101A600040F2401200211B48FFF74AFE40F21412D8
:101A700000211948FFF744FE4CF25033174A136017
:101A80000023174A13800023164A13600023164AC6
:101A900013700023154A13700023154A1370002396
:101AA000144A13700023144A13700123134A13704D
:101AB000029B134A13609DF80430124A1370FFF71B
:101AC000F7FDDDF800E003B0704700BF8C04002094
:101AD00090040020060300208601002094040020CA
:101AE0006A0100209804002087040020860400205A
:101AF0009C04002085010020840100206901002051
:101B0000A00400209D04002083B0CDF800E00190E7
:101B100002910C4A127812B9FFF7D6FDF9E7019944
:101B20000948FEF7E3FC029B084A1360FFF76AF9D5
:101B3000044A127812B9FFF7C7FDF9E7DDF800E0B3
:101B400003B07047690100200603002088040020CC
:101B500081B0CDF800E003460846FFF7F5F91846D6
:101B6000FFF706FADDF800E001B0704781B04FF0F2
:101B700000094FF0000CBDEB0A0F04DCBDEB0B0FAE
:101B800001DBD446EA464BF8049BBBEB0A0FFAD1C3
:101B9000BCEB0A0F05DDE246D9F800B00BF1040BEF
:101BA000F1E701B07047FFFF81B01CF8019B0BF813
:101BB000019BBBEB0A0FF8D101B0704781B015480B
:101BC000006840F0010113480160134913480160A7
:101BD00010480168124801400E4801600D48016834
:101BE0006FF4802001400B4801600C4801686FF4DD
:101BF000FE00014009480160064801686FF0A050EE
:101C00000140044801604FF000010648016001B046
:101C1000704700BF001002400000FFF004100240B7
:101C2000FFFFF6FE2C10024081B0CDF800E0144911
:101C30001448FFF78DFF14490020FFF7F1FE134908
:101C40001348FFF761FF11491248FFF75DFF124883
:101C50000221FFF773FE02210C48FFF76FFE0B49CC
:101C60000E48FFF751FF0E480221FFF767FE0221E1
:101C70000648FFF763FEDDF800E001B0704700BFE3
:101C8000C421000044210000C904000035010020E7
:101C900014000020200000202A0000203400002032
:101CA0004400002081B0CDF800E0FFF70DFD0C49A5
:101CB0000C48FFF78DFD0C49087060B90B48FFF721
:101CC000C3FD0B49087000210948FFF737FE09489A
:101CD0000221FFF733FEDDF800E001B0704700BFDE
:101CE0003501002054000020670100204001002041
:101CF000680100205600002081B0CDF800E00122EC
:101D000007210020FFF752FE002201210020FFF7EB
:101D10004DFE002202210020FFF748FE0848014640
:101D20000020FFF765FE4EF200112020FFF7E2FDD4
:101D300004480221FFF702FEDDF800E001B0704721
:101D4000A42100000000002081B002490248016087
:101D500001B07047401901007001002081B0FEE71A
:101D600001B0704700F00EF800F072FAFFF7ECFFD8
:101D700000F02EFAFFF7C0FFFFF756FFFFF792FFC4
:101D8000FCE7FEE781B0CDF800E0464A464B474C01
:101D900047494BF68030814206D94648006840F0FA
:101DA00002014448016011E045F6C050814206D965
:101DB0004048006840F001013E48016006E03D48AF
:101DC00001686FF0070001403A480160FFF7F6FE36
:101DD0003948036039480460394802EA000139484B
:101DE000016002F0010040B119463648006800F079
:101DF0000200002800D1F8E700E0194602F4803024
:101E000040B10B462F48006800F40030002800D194
:101E1000F8E700E00B4602F0805068B129480068FE
:101E200040F08051274801602648006800F00050CB
:101E3000002800D1F8E7FFE702F0806078B1214880
:101E4000006840F080611F48016011461A461D4835
:101E5000006800F00060002800D1F8E701E01146BA
:101E60001A4601F0807070B11648006840F0807129
:101E70001448016011461348006800F0007000B972
:101E8000F9E70A46FFE70C48006800F00C019000F3
:101E900000F00C00814200D0F5E7DDF800E001B071
:101EA000704700BF8100010502841D004406010047
:101EB0004019010000200240041002402C10024092
:101EC000FFFF0F00001002402D2D2D205379737459
:101ED000656D20696E6974202D2D2D007379732036
:101EE00067657420766572006D616320706175733B
:101EF00065006D616320706175736500726164696E
:101F00006F20736574207764742030007261646997
:101F10006F207365742077647420300030002000D7
:101F2000696E76616C69645F706172616D006E6F7D
:101F3000745F6A6F696E6564006E6F5F6672656577
:101F40005F63680073696C656E74006672616D65CD
:101F50005F636F756E7465725F6572725F72656ADA
:101F60006F696E5F6E6565646564006275737900A4
:101F70006D61635F70617573656400696E76616C35
:101F800069645F646174615F6C656E006B65797331
:101F90005F6E6F745F696E6974006D61635F657217
:101FA00072006D61635F74785F6F6B006D61635F7A
:101FB000727800696E76616C69645F646174615FF8
:101FC0006C656E00726164696F5F65727200726148
:101FD00064696F5F74785F6F6B00726164696F5FD3
:101FE00072780061636365707465640064656E692E
:101FF000656400726164696F2072782000FFFFFFE2
:102000003500000036000000FFFFFFFF0000000069
:1020100000000000000000000000000000000000C0
:1020200000000000000000000000000000000000B0
:102030000000000018080000180000000000000068
:102040000000000000000000000000000000000090
:102050000000000000000000000000000000000080
:102060000000000000000000080000080900000057
:102070000A000000FFFFFFFF00000000000000005A
:102080000000000000000000000000000000000050
:102090000000000000000000000000000000000040
:1020A00018080000180000000000000000000000F8
:1020B0000000000000000000000000000000000020
:1020C0000000000000000000000000000000000010
:1020D000000000000400000038000000390000008B
:1020E000FFFFFFFF000000000000000000000000F4
:1020F00000000000000000000000000000000000E0
:1021000000000000000000000000000018080000AF
:1021100018000000000000000000000000000000A7
:1021200000000000000000000000000000000000AF
:10213000000000000000000000000000000000009F
:1021400030001408711000007D1000002110000004
:102150002D10000039100000591700007117000001
:102160007D170000651700004D170000891700005B
:10217000B9170000090B0000510A0000810A000095
:10218000750A0000690A00005D0A00009D0B00004E
:10219000450D0000510D0000ED0D0000F90D00008F
:1021A000AD0D000000E10000000000000000000094
:1021B000000000000000000001020304010203040B
:1021C00006070809F10C0000210A0000390A000086
:1021D00000B5DFF814B0DFF814A0DFF814C0FFF783
:1021E000E3FC00BD704700BF000000203501002067
:1021F000C81E0000FFFFFFFFFFFFFFFFFFFFFFFF05
:10220000FFFFFFFFFFFFFFFFFFFFFFFFFFFFFFFFDE
:10221000FFFFFFFFFFFFFFFFFFFFFFFFFFFFFFFFCE
:10222000FFFFFFFFFFFFFFFFFFFFFFFFFFFFFFFFBE
:10223000FFFFFFFFFFFFFFFFFFFFFFFFFFFFFFFFAE
:10224000FFFFFFFFFFFFFFFFFFFFFFFFFFFFFFFF9E
:1022500000B5DFF810B0DFF810A0FFF787FC00BD75
:10226000704700BF00000020B4040020FFFFFFFF04
:00000001FF
