:10000000FCFF0320C12300007923000079230000B6
:100010007923000079230000792300007923000070
:100020007923000079230000792300007923000060
:100030007923000079230000792300007923000050
:100040007923000079230000792300007923000040
:100050007923000079230000792300007923000030
:100060007923000079230000792300007923000020
:100070007923000079230000792300007923000010
:100080007923000079230000792300007923000000
:1000900079230000792300007923000079230000F0
:1000A00079230000792300007923000079230000E0
:1000B00079230000792300007923000079230000D0
:1000C00079230000792300007923000079230000C0
:1000D00079230000792300007923000079230000B0
:1000E00079230000792300007923000079230000A0
:1000F0007923000079230000792300007923000090
:10010000792300007923000079230000792300007F
:10011000792300007923000079230000792300006F
:10012000792300007923000079230000792300005F
:10013000792300007923000079230000792300004F
:10014000792300007923000079230000792300003F
:10015000792300007923000079230000792300002F
:10016000792300007923000079230000792300001F
:10017000792300007923000079230000792300000F
:1001800079230000792300007923000079230000FF
:1001900079230000792300007923000079230000EF
:1001A00079230000792300007923000079230000DF
:1001B00079230000792300007923000079230000CF
:1001C00079230000792300007923000079230000BF
:1001D00079230000792300007923000079230000AF
:1001E000792300007923000079230000792300009F
:1001F000792300007923000079230000792300008F
:080200007923000079230000BE
:1023C00000F010F8FFF7DCFF00F07AFBFFF7EEFFFC
:1023D00000F036FBFFF7A8FFFFF742FFFFF77EFF95
:0423E000FCE7FEE731
:1022300081B01CF8019B0BF8019BBBEB0A0FF8D196
:0422400001B0704732
:1021F40081B04FF000094FF0000CBDEB0A0F04DC76
:10220400BDEB0B0F01DBD446EA464BF8049BBBEB5A
:102214000A0FFAD1BCEB0A0F05DDE246D9F800B08B
:0A2224000BF1040BF1E701B0704765
:1023280081B0CDF800E0012207210020FFF77EFEF2
:10233800002201210020FFF779FE0022022100205F
:10234800FFF774FE084801460020FFF791FE4EF2A1
:1023580000112020FFF70EFE04480221FFF72EFE91
:10236800DDF800E001B070471C2A000000000020E2
:1020340081B0CDF800E05FFA81FA5FFA82FB0FE02D
:102044005FFA8BF15FFA8AF0FFF79EFB0DE05FFA0F
:102054008BF15FFA8AF0FFF75FFC06E0012004E0F1
:102064000028EDD00128F2D0F8E7DDF800E001B057
:022074007047B3
:10178C0081B0CDF800E091E0012904D110215A4834
:10179C00FFF724FD03E010215748FFF7FDFCA5E0FF
:1017AC00012904D101215448FFF718FD03E0012160
:1017BC005148FFF7F1FC99E0012904D101214F4870
:1017CC00FFF70CFD03E001214C48FFF7E5FC8DE031
:1017DC00012904D104214A48FFF700FD03E004214C
:1017EC004748FFF7D9FC81E0012904D11021444876
:1017FC00FFF7F4FC03E010214148FFF7CDFC75E046
:10180C00012904D120213E48FFF7E8FC03E0202108
:10181C003B48FFF7C1FC69E0012904D1012139489B
:10182C00FFF7DCFC03E001213648FFF7B5FC5DE077
:10183C00012904D110213448FFF7D0FC03E010211A
:10184C003148FFF7A9FC51E0012904D140212F4870
:10185C00FFF7C4FC03E040212C48FFF79DFC45E05A
:10186C00012904D180212948FFF7B8FC03E080212D
:10187C002648FFF791FC39E0012904D104211F48C7
:10188C00FFF7ACFC03E004211C48FFF785FC2DE0BE
:10189C00012904D108211948FFF7A0FC03E0082115
:1018AC001648FFF779FC21E0012020E000283FF4E6
:1018BC006BAF01283FF474AF02283FF47DAF0328CF
:1018CC003FF486AF04283FF48FAF05283FF498AF60
:1018DC0006283FF4A1AF0728AAD00828B4D00928BD
:1018EC00BED00A28C8D00B28D2D0DDE70020DDF806
:1018FC0000E001B0704700BF00C0054000900540FB
:10190C000080054000B0054000D0054000A0054017
:1011E80081B0CDF800E0002440F240031BB240F289
:1011F800001212B21A4393B2002210B4FFF7F6F9A4
:0A12080001B0DDF800E001B070470E
:1005F40082B0CDF800E05FFA81F8D5B29FB29DF8E1
:100604000830F54C00EA0404A1462046FFF7FAFD41
:10061400F24CA54208D109F580666FEA0805EDB2EF
:1006240034682C40346008E0ED4CA54205D109F54E
:1006340080652C6844EA08042C6040F2010407EA4F
:100644000404A4B234B109F5A2652C6844EA080490
:100654002C6007E009F5A2666FEA0805EDB234687C
:100664002C40346040F2020407EA0404A4B234B11A
:1006740009F214552C6844EA08042C6007E009F2D6
:1006840014566FEA0805EDB234682C40346040F229
:10069400080407EA0404A4B234B109F20C552C6826
:1006A40044EA08042C6007E009F20C566FEA0805D6
:1006B400EDB234682C40346040F2100407EA0404BC
:1006C400A4B234B109F5A0652C6844EA08042C608E
:1006D40007E009F5A0666FEA0805EDB234682C401E
:1006E400346040F2200407EA0404A4B234B109F2ED
:1006F40004552C6844EA08042C6007E009F2045607
:100704006FEA0805EDB234682C40346040F24004CE
:1007140007EA0404A4B234B109F5A1652C6844EADB
:1007240008042C6007E009F5A1666FEA0805EDB23C
:1007340034682C40346041F2000407EA0404A4B293
:10074400012C13D042F2000407EA0404A4B2012CE1
:100754000CD044F2000407EA0404A4B2012C05D02E
:10076400DEB24B46B8B25FFA88F53CE000200026C2
:10077400DAB2BBB207465FFA88F04946082E13D2B4
:1007840020FA06F4E4B204F00104E4B24CB17500BA
:100794002DB2032424B2AC4024B247EA04052F4608
:1007A400FFE7761CF6B2E9E701F6C476FD43346848
:1007B4002C40346001F23C56C543EDB234682C4001
:1007C400346001F5A166C543EDB234682C40346051
:1007D40001F20456C543EDB234682C403460C5B20E
:1007E40098B20B46D6B2002141F2000400EA040498
:1007F400A4B23CB300220F46E9B2082A13D221FA6C
:1008040002F4E4B204F00104E4B24CB155002DB298
:10081400012424B2AC4024B247EA04052F46FFE782
:10082400521CD2B2E9E703F6C4752C683C432C6031
:1008340003F5A1652C680C432C603D461F4683B22A
:10084400C8B203E01F4683B2E8B20D4642F2000488
:1008540003EA0404A4B26CB30022A8463946082A69
:1008640013D220FA02F4E4B204F00104E4B24CB16D
:1008740055002DB2032424B2AC4024B248EA040546
:10088400A846FFE7521CD2B2E9E701F6C4752C680A
:1008940044EA08042C6001F23C552C6804432C60A3
:1008A40001F5A1652C6804432C60F7B20E46C2B270
:1008B40098B205E00197C2B298B2F7B2A846019E79
:1008C40044F2000400EA0404A4B284B30023D1B2C5
:1008D400082B14D221FA03F4E4B204F00104E4B2C4
:1008E40054B15D002DB2032424B2AC4024B248EAD2
:1008F400040422469046FFE75B1CDBB2E8E706F6F9
:10090400C4752C6844EA08042C6006F23C552C6833
:100914000C432C6006F5A1652C680C432C6006F290
:1009240004552C680C432C60FBB2324602E0D1B271
:100934003246FBB240F2800400EA0404A4B274B16B
:1009440040F2400400EA0404A4B22CB102F5A36509
:100954002C680C432C6001E00120FAE006E002F56B
:10096400A366CD43EDB234682C40346040F20014E9
:1009740000EA0404A4B22CB102F21C552C680C4306
:100984002C6006E002F21C56CD43EDB234682C40D4
:10099400346040F2002400EA0404A4B2002C3AD0EB
:1009A400104CA24240F2000500D001250E4CA24298
:1009B40040F2000400D0012425400C4CA24240F235
:1009C400000400D001242540094CA24240F2000456
:1009D40000D0012425400DE000F0FFFF00000000DE
:1009E4000100000000C0054000B005400090054033
:1009F40000100640594CA24240F2000400D00124E9
:100A040005EA04040CB10120A3E002F5A5652C68F5
:100A14000C432C602AE0524CA24240F2000500D163
:100A24000125504CA24240F2000400D10124254388
:100A34004D4CA24240F2000400D1012425434B4C0A
:100A4400A24240F2000400D101242543434CA242B7
:100A540040F2000400D1012445EA040434B102F553
:100A6400A566CD43EDB234682C40346040F60004F2
:100A740000EA0404A4B22CB102F5A6652C680C4368
:100A84002C6006E002F5A666CD43EDB234682C4036
:100A9400346040F2004400EA0404A4B22CB102F52C
:100AA40084652C680C432C6006E002F58466CD4313
:100AB400EDB234682C4034600BB9002049E00F2BB0
:100AC40001D9012045E0002700208DF80430C3B28D
:100AD40010469DF80420082B12D221FA03F4E4B244
:100AE40004F00104E4B244B19D002DB24FF00F04B0
:100AF400AC4047EA04052F46FFE75B1CDBB2EAE79C
:100B040000F22C56FD4334682C4034600026002348
:100B14008DF80430CBB29DF80410082913D223FABF
:100B240001F4E4B204F00104E4B24CB1D5B28C0097
:100B340024B205FA04F446EA040425462E46FFE7E7
:100B4400491CC9B2E9E700F22C552C6834432C60E7
:100B54000020DDF800E002B0704700BF00500640FE
:100B640000C0054000B0054000900540001006405C
:1002080081B0664900EA010108467DE06449096851
:1002180041F0010262490A60BEE06149096841F0A3
:1002280002025F490A60B7E05D49096841F00402CB
:100238005B490A60B0E05A49096841F00802584928
:100248000A60A9E05649096841F0100254490A6059
:10025800A2E05349096841F0200251490A609BE035
:100268004F49096841F040024D490A6094E04C4901
:10027800096841F080024A490A608DE048490968E6
:1002880041F4807246490A6086E04549096841F4AC
:10029800007243490A607FE04149096841F480627D
:1002A8003F490A6078E03E49096841F400623C49E8
:1002B8000A6071E03A49096841F4805238490A6095
:1002C8006AE03749096841F4005235490A6063E039
:1002D8003349096841F4804231490A605CE0304999
:1002E800096841F400422E490A6055E02C49096822
:1002F80041F480322A490A604EE02949096841F4EC
:10030800003227490A6047E0264988423FF47EAF19
:10031800254988423FF481AF244988423FF484AF9D
:10032800234988423FF487AF224988423FF48AAF85
:10033800214988423FF48DAF204988423FF490AF6D
:100348001F4988423FF493AF1E4988423FF496AF55
:100358001D4988423FF499AF1C4988423FF49CAF3D
:100368001B4988423FF49FAF1A4988423FF4A2AF25
:10037800194988423FF4A5AF184988423FF4A8AF0D
:10038800174988423FF4ABAF164988423FF4AEAFF5
:10039800154988423FF4B1AF01B0704700F0FFFF44
:1003A80008E60F40008005400090054000A0054089
:1003B80000B0054000C0054000D0054000E0054001
:1003C80000F00540000006400010064000200640EE
:1003D80000300640004006400050064000600640DD
:0C03E800007006400080064000900640B7
:1011A40081B0CDF800E0002440F240031BB240F2CD
:1011B400001212B21A4393B2012210B4FFF718FAC4
:0A11C40001B0DDF800E001B0704753
:10191C0081B0CDF800E091E0012904D120215A4892
:10192C00FFF75CFC03E020215748FFF735FCA5E0EE
:10193C00012904D102215448FFF750FC03E0022195
:10194C005148FFF729FC99E0012904D120214F4887
:10195C00FFF744FC03E020214C48FFF71DFC8DE011
:10196C00012904D104214A48FFF738FC03E0042183
:10197C004748FFF711FC81E0012904D110214448AC
:10198C00FFF72CFC03E010214148FFF705FC75E044
:10199C00012904D120213E48FFF720FC03E020213F
:1019AC003B48FFF7F9FB69E0012904D102213948D2
:1019BC00FFF714FC03E002213648FFF7EDFB5DE076
:1019CC00012904D140213348FFF708FC03E04021F2
:1019DC003048FFF7E1FB51E0012904D110212E48DA
:1019EC00FFF7FCFB03E010212B48FFF7D5FB45E08C
:1019FC00012904D120212848FFF7F0FB03E0202126
:101A0C002548FFF7C9FB39E0012904D104211F48FF
:101A1C00FFF7E4FB03E004211C48FFF7BDFB2DE0BE
:101A2C00012904D108211948FFF7D8FB03E008214C
:101A3C001648FFF7B1FB21E0012020E000283FF41D
:101A4C006BAF01283FF474AF02283FF47DAF03283D
:101A5C003FF486AF04283FF48FAF05283FF498AFCE
:101A6C0006283FF4A1AF0728AAD00828B4D009282B
:101A7C00BED00A28C8D00B28D2D0DDE70020DDF874
:101A8C0000E001B0704700BF00C005400090054069
:0C1A9C000080054000B0054000A005409F
:1020780081B0CDF800E009E00846FFF77FFD0AE0EF
:102088000846FFF7A3FD06E0012004E00028F3D08E
:0E2098000128F5D0F8E7DDF800E001B0704750
:101B840081B0CDF800E08046FFF768F90F4F08F107
:101B940014010A6808F110010E6808F10C010D68BF
:101BA40008F108010C68D8F8003092B2B1B280B4E0
:101BB40004B402B4A2B201461846ABB2FFF754F91A
:101BC40003B00020DDF800E001B070474C260000AF
:0C0E600001480068704700BF6C010020D2
:100E6C0085B0CDF800E00291ADF80C20ADF8103053
:100E7C00BDF81440ADF81440BDF81840ADF818405A
:100E8C000799254D254C2560254D264C2560264D72
:100E9C00264C2560264D274C256001900846FFF70F
:100EAC008DFE01256DB2244C2560FFF7EDFE0198F7
:100EBC00029D40F2E8346C432146BDF818501F4C9B
:100ECC00246844EA05051D4C25601D4C24681CB1A2
:100EDC00440823461846FFE7CC00B4FBF0F4641C2E
:100EEC006608B509174C256006F03F05164C2560C1
:100EFC00BDF81050BDF80C4044EA0505ADB2BDF884
:100F0C0014402543ADB2114C2560FFF7ABFEDDF864
:100F1C0000E005B0704700BF2112000070010020F6
:100F2C000504000074010020F50300007801002086
:100F3C003D0400007C01002014C3FC433010014030
:100F4C001406224224100140281001402C100140AC
:100BC80081B0CDF800E040F2000B82460AF1D8016E
:100BD80009788B4539D20C210BFB01F10AEB010195
:100BE8008C460CF108010978A9B90CF108010978BB
:100BF800CCB20CF1060109888BB20CF1040109781A
:100C0800CAB2DCF800100846D1B2002210B4FFF7CF
:100C1800EDFC01B014E00CF108010978CCB20CF13C
:100C2800060109888BB20CF104010978CAB2DCF814
:100C380000100846D1B20F2210B4FFF7D7FC01B05C
:100C48000BF1010B5FFA8BFBC0E7DDF800E001B0A8
:020C58007047E3
:100C940081B0002149B2044801600448016004485D
:100CA400016001B0704700BF0006224220062242C4
:040CB40024062242AE
:100C700081B0012149B20448016004480160044880
:100C8000016001B0704700BF0006224220062242E8
:040C900024062242D2
:101BD40081B0CDF800E08046FFF740F90F4F08F1DF
:101BE40014010A6808F110010E6808F10C010D686F
:101BF40008F108010C68D8F8003092B2B1B280B490
:101C040004B402B4A2B201461846ABB2FFF720FAFC
:101C140003B00020DDF800E001B07047E0280000C8
:1010540085B0CDF800E00291ADF80C20ADF8103069
:10106400BDF81440ADF81440BDF81840ADF8184070
:101074000799254D254C2560254D264C2560264D88
:10108400264C2560264D274C256001900846FFF725
:1010940099FD01256DB2244C2560FFF7D7F901981D
:1010A400029D40F2E8346C432146BDF818501F4CB1
:1010B400246844EA05051D4C25601D4C24681CB1B8
:1010C400440823461846FFE7CC00B4FBF0F4641C44
:1010D4006608B509174C256006F03F05164C2560D7
:1010E400BDF81050BDF80C4044EA0505ADB2BDF89A
:1010F40014402543ADB2114C2560FFF7CBF9DDF860
:1011040000E005B0704700BFA91200007001002084
:10111400DD04000074010020CD04000078010020EB
:10112400FD0400007C0100201CC3FC43303001405E
:101134001406264224300140283001402C3001405E
:1004500081B0002149B204480160044801600448A9
:10046000016001B0704700BF000626422006264208
:0404700024062642F6
:1004980081B0012149B20448016004480160044860
:1004A800016001B0704700BF0006264220062642C0
:0404B80024062642AE
:101F7C0081B0CDF800E011E00846FFF7C7FD16E090
:101F8C000846FFF7D5FD12E00846FFF7E3FD0EE02B
:101F9C000846FFF77BFB0AE0012008E00028EBD0A5
:101FAC000128EDD02028EFD03028F1D0F4E7DDF86F
:061FBC0000E001B07047D7
:101B180081B0CDF800E0FFF735FA044A04490A60BD
:101B28000020DDF800E001B0704700BF211200007E
:041B38006801002020
:100F8C0082B0CDF800E00346214A22490A60224A89
:100F9C0022490A60224A23490A60234A23490A60EB
:100FAC0001932348FFF70AFE019B012252B221490B
:100FBC000A6000BF00BF00BFFFF766FEFFF74AFFE5
:100FCC0040F2E83100FB01F210461901914205D9BB
:100FDC00012252B218490A605A0804E0002252B2A7
:100FEC0015490A601A46C100B1FBF2F1491C4B08C5
:100FFC009A0912490A6003F03F0211490A60602203
:10100C0010490A60FFF72EFEDDF800E002B07047D1
:10101C002112000070010020050400007401002062
:10102C00F5030000780100203D0400007C01002045
:10103C002827000014C3FC4314062242241001404C
:08104C00281001402C100140A6
:101B3C0081B0CDF800E0FFF74BFC044A04490A6081
:101B4C000020DDF800E001B0704700BFA9120000D2
:041B5C0068010020FC
:1013DC0082B0CDF800E00346214A22490A60224A35
:1013EC0022490A60224A23490A60234A23490A6097
:1013FC0001932348FFF7E2FB019B012252B22149E2
:10140C000A6000BF00BF00BFFFF71CF8FFF722FD0A
:10141C0040F2E83100FB01F210461901914205D966
:10142C00012252B218490A605A0804E0002252B252
:10143C0015490A601A46C100B1FBF2F1491C4B0870
:10144C009A0912490A6003F03F0211490A606022AE
:10145C0010490A60FFF71AF8DDF800E002B0704797
:10146C00A912000070010020DD04000074010020AE
:10147C00CD04000078010020FD0400007C01002058
:10148C00E02800001CC3FC43140626422430014013
:08149C00283001402C30014012
:101B600081B0CDF800E0FFF7CFFB044A04490A60DA
:101B70000020DDF800E001B0704700BFED1200006A
:041B800068010020D8
:1013080082B0CDF800E00346214A22490A60224A09
:1013180022490A60224A23490A60234A23490A606B
:1013280001932348FFF74CFC019B012252B221494B
:101338000A6000BF00BF00BFFFF714F9FFF78CFD7C
:1013480040F2E83100FB01F210461901914205D93B
:10135800012252B218490A605A0804E0002252B227
:1013680015490A601A46C100B1FBF2F1491C4B0845
:101378009A0912490A6003F03F0211490A60602283
:1013880010490A60FFF7DCF8DDF800E002B07047AA
:10139800ED12000070010020D90500007401002042
:1013A800C90C000078010020D90C00007C01002045
:1013B8000428000008C3FC4314061C4224E0004033
:0813C80028E000402CE0004089
:10056C0081B0002149B2044801600448016004488C
:10057C00016001B0704700BF00061C4220061C42FF
:04058C0024061C42E3
:1005480081B0012149B204480160044801600448AF
:10055800016001B0704700BF00061C4220061C4223
:0405680024061C4207
:1016980081B0CDF800E0FFF79DFE044A04490A60D6
:1016A8000020DDF800E001B0704700BFA91200007B
:0416B80068010020A5
:101FC40083B0CDF800E0024610460D228DF80820BB
:101FD4000A228DF809201FE0FFF784FB23E0027832
:101FE4002AB10190FFF77EFB0198401CF7E71AE045
:101FF40002782AB10190FFF775FB0198401CF7E7BE
:1020040002AA1046FFF76EFB0DF109021046FFF716
:1020140069FB08E0062007E00029DDD00129DED0B5
:102024000229E5D0F6E70020DDF800E003B07047B0
:1016E80081B0CDF800E00178CCB2A0B2034C2468F8
:1016F800A0470020DDF800E001B070476801002035
:1014BC0081B00449096801B1FBE70349086001B038
:0C14CC00704700BF1403184200C000402D
:1014D80081B00449096801B1FBE70349086001B01C
:0C14E800704700BF14031A4200D00040FF
:1012EC0081B00449096801B1FBE70349086001B00A
:0C12FC00704700BF14031C4200E00040DB
:1012580081B00449096801B1FBE70349086001B09E
:0C126800704700BF14031E4200F000405D
:1012740081B00449096801B1FBE70349086001B082
:0C128400704700BF14032042000001402E
:1012200081B00449096801B1FBE70349086001B0D6
:0C123000704700BF140322420010014070
:10123C0081B00449096801B1FBE70349086001B0BA
:0C124C00704700BF140324420020014042
:1012A80081B00449096801B1FBE70349086001B04E
:0C12B800704700BF1403264200300140C4
:1022600081B0CDF800E014491448FFF7B5FF1449D8
:102270000020FFF719FF13491348FFF789FF1149A1
:102280001248FFF785FF12480221FFF79BFE02214B
:102290000C48FFF797FE0B490E48FFF779FF0E48F1
:1022A0000221FFF78FFE02210648FFF78BFEDDF8C3
:1022B00000E001B0704700BF342A0000BC290000D4
:1022C000F904000035010020140000202000002047
:0C22D0002A000020340000204400002000
:1021D80081B0CDF800E003460846FFF72FFA18460D
:0C21E800FFF740FADDF800E001B070479E
:10164400026806490A60011D0A6805490A6000F239
:1016540008010A6803490A60704700BF900400202B
:08166400940400208C04002016
:10166C0000F230011C310A6805490A6000F20801D9
:10167C000A6804490A60011D0A6803490A60704738
:0C168C00B00400209C0400209804002002
:1020A80083B0CDF800E08DF8040002910120274CA0
:1020B8002468A047FFF778FE0020244C2468A04736
:1020C800FFF772FEFFF770FEFFF76EFE01201F4C50
:1020D8002468A047FFF768FE01201D4C2468A0472C
:1020E80040F2401200211B48FFF74AFE40F214124A
:1020F80000211948FFF744FE4CF25033174A136089
:102108000023174A13800023164A13600023164A37
:1021180013700023154A13700023154A1370002307
:10212800144A13700023144A13700123134A1370BE
:10213800029B134A13609DF80430124A1370FFF78C
:10214800F7FDDDF800E003B0704700BF98040020F9
:102158009C0400200503002080010020A00400202A
:1021680000030020A4040020860400208504002029
:10217800870400200403002003030020020300203A
:08218800A8040020AC040020B3
:0C17580001490860704700BF907FB84254
:0C17640001490860704700BF807FB84258
:0C17080001490860704700BF807FB242BA
:0C17140001490860704700BF887FB042A8
:0C17200001490860704700BF907FB04294
:0C1DE00001490860704700BF947FB042CA
:0C1DF80001490860704700BF807FB642C0
:0C1E040001490860704700BF907FBA429F
:0C1DEC0001490860704700BF987FB442B6
:0C1DD40001490860704700BF9C7FB442CA
:0C1E100001490860704700BF887FB242A3
:0C1E400001490860704700BF8C7FB2426F
:0C1E4C0001490860704700BF947FB84255
:0C1E340001490860704700BF847FB8427D
:0C1E1C0001490860704700BF947FB2428B
:0C1E280001490860704700BF887FB0428D
:0C1DC80001490860704700BF907FB042E6
:0C1D100001490860704700BF947FB0429A
:0C1D1C0001490860704700BF847FB64298
:0C1D040001490860704700BF987FB6429C
:0C1CEC0001490860704700BF907FB442BF
:0C1CF80001490860704700BF947FB442AF
:0C1D280001490860704700BF887FB2428C
:0C1DA40001490860704700BF8C7FB2420C
:101DB00040F6FE07C0F23D077F1EFDD100BF00BF09
:081DC00000BF00BF00BF704727
:101D88001346CAB20146D0B21A461446531E1A4622
:0A1D980014B10870491CF8E7704709
:101D380045F6FE17C0F262277F1EFDD100BF00BF27
:081D480000BF00BF00BF70479F
:1021900083B0CDF800E0019002910C4A127812B998
:1021A000FFF7D6FDF9E701990948FEF7BBF9029B55
:1021B000084A1360FFF7A4F9044A127812B9FFF72E
:1021C000C7FDF9E7DDF800E003B070470203002027
:0821D000050300208804002033
:101D500081B0CDF800E0FFF703F818B1FEF7F2FF0D
:101D6000FFF70CF80648007808B1FFF72FF8054890
:101D7000007808B1FFF72AF8DDF800E001B07047FD
:081D800003030020850400208C
:100D600081B0CDF800E0044C2468A047C0B2DDF8A3
:0C0D700000E001B0704700BF8C040020C0
:1005AC0081B00448006800B1FBE70348006801B063
:0C05BC00704700BF1003184200C0004050
:1005C80081B00248006801B0704700BF18031842A4
:100B980081B00348006880F00100C0B201B070471E
:040BA8000C031842E0
:100BAC0081B00448006800B1FBE70348006801B05D
:0C0BBC00704700BF10031A4200D0004038
:100B740081B00248006801B0704700BF18031A42F0
:100B840081B00348006880F00100C0B201B0704732
:040B94000C031A42F2
:1005D80081B00448006800B1FBE70348006801B037
:0C05E800704700BF10031C4200E0004000
:100CC80081B00248006801B0704700BF18031C4299
:100CD80081B00348006880F00100C0B201B07047DD
:040CE8000C031C429B
:100CEC0081B00448006800B1FBE70348006801B01C
:0C0CFC00704700BF10031E4200F00040D3
:100CB80081B00248006801B0704700BF18031E42A7
:100C5C0081B00348006880F00100C0B201B0704759
:040C6C000C031E4215
:1005900081B00448006800B1FBE70348006801B07F
:0C05A000704700BF100320420000014023
:1004740081B00248006801B0704700BF18032042F1
:1004840081B00348006880F00100C0B201B0704739
:040494000C032042F3
:1004040081B00448006800B1FBE70348006801B00C
:0C041400704700BF10032242001001409E
:1003F40081B00248006801B0704700BF1803224270
:10043C0081B00348006880F00100C0B201B0704781
:04044C000C03224239
:1004200081B00448006800B1FBE70348006801B0F0
:0C043000704700BF100324420020014070
:1004BC0081B00248006801B0704700BF18032442A5
:1005100081B00348006880F00100C0B201B07047AC
:040520000C03244262
:1004DC0081B00448006800B1FBE70348006801B034
:0C04EC00704700BF1003264200300140A2
:1004CC0081B00248006801B0704700BF1803264293
:1004FC0081B00348006880F00100C0B201B07047C1
:04050C000C03264274
:100D440081B0CDF800E0044C2468A047C0B2DDF8BF
:0C0D540000E001B0704700BF94040020D4
:100D7C000D490A880D49891808700B4909884A1CC5
:100D8C0009490A800D280DD107490A8807498A1894
:100D9C0000211170044909884A1C03490A80012268
:100DAC0003490A70704700BF000300208001002037
:040DBC00030300200D
:100DCC0081B0CDF800E01848007860B90120174CCC
:100DDC002468A0471648174C2468A0470020134CE1
:100DEC002468A0470FE01048007860B101200F4C38
:100DFC002468A047104800680D49FFF78DFB0020C0
:100E0C000A4C2468A04701210C48017000210C48B1
:100E1C00017000210B480170012103480170DDF8BD
:100E2C0000E001B0704700BF040300209C040020C8
:100E3C0080010020A8040020880400200203002068
:080E4C000303002086040020CE
:0204F80070474B
:1005240081B00091014600980C464A1C11460346CE
:10053400421C10461A782270227802B1F4E701B006
:020544007047FE
:1015000082B0CDF800E0164D2C787CB1154C2468E3
:101510000195A047019D40B928780195FFF72AFE63
:10152000019D681C01460D46FFE7EDE70D20FFF722
:1015300021FE0A20FFF71EFE00210B48018000213A
:101540000A48017000210A48017001210948017010
:10155000012109480170DDF800E002B0704700BFCA
:1015600005030020B0040020000300200203002037
:0C15700003030020860400200403002078
:0C0DC00001480068704700BF907FB842F7
:0C0D080001480068704700BF807FB842BF
:0C0D140001480068704700BF807FB242B9
:0C0D380001480068704700BF887FB0428F
:0C0D2C0001480068704700BF907FB04293
:0C0D200001480068704700BF947FB0429B
:0C0E540001480068704700BF807FB64274
:0C129C0001480068704700BF907FBA4214
:0C12900001480068704700BF987FB4421E
:0C14F40001480068704700BF9C7FB442B4
:0C14B00001480068704700BF887FB2420E
:0C13D00001480068704700BF8C7FB242EB
:0C14A40001480068704700BF947FB84208
:0C12140001480068704700BF847FB842AA
:0C0F800001480068704700BF947FB24237
:0C11440001480068704700BF887FB0427F
:0C0F740001480068704700BF907FB04249
:0C0F680001480068704700BF947FB04251
:0C0F5C0001480068704700BF847FB64267
:0C11D00001480068704700BF987FB642DD
:0C11DC0001480068704700BF907FB442DB
:0C11980001480068704700BF947FB4421B
:0C11680001480068704700BF887FB24259
:0C118C0001480068704700BF8C7FB24231
:1011740081B0CDF800E0034C2468A047DDF800E01E
:0811840001B070479004002047
:1022DC0081B0CDF800E0FFF735FD0B480B49FFF757
:1022EC00B5FD60B90A48FFF7EDFD0A4908700021F9
:1022FC000848FFF761FE08480221FFF75DFEDDF894
:10230C0000E001B0704700BF5400002035010020F0
:0C231C0040010020670100205600002056
:101E580083B0CDF800E001900291174A127812B9C8
:101E6800FFF772FFF9E7154A11461548FEF756FBCA
:101E780001991348FFF756FC029B124A1360FFF7BB
:101E88003BFB0D4A127812B9FFF75EFFF9E7FFF73F
:101E980071FBC1B208B1C8B209E0FFF70BFC064AF2
:101EA800127812B9FFF750FFF9E7FFF7B7FEDDF830
:101EB80000E003B0704700BF020300202B010020A0
:081EC80005030020880400203E
:10172C0081B00091014600980A780AB1491CFBE788
:10173C000C464A1C11460346421C10461A7822706D
:0A174C00227802B1F4E701B0704703
:10157C0081B0CDF800E0264801462648FFF79CFED6
:10158C0008B9012040E0244801462248FFF794FEA8
:10159C0008B9022038E0214801461E48FFF78CFEAE
:1015AC0008B9032030E01E4801461A48FFF784FEB4
:1015BC0008B9042028E01B4801461648FFF77CFEBA
:1015CC0008B9052020E0184801461248FFF774FEC0
:1015DC0008B9062018E0154801460E48FFF76CFEC6
:1015EC0008B9072010E0124801460A48FFF764FECC
:1015FC0008B9082008E00F4801460648FFF75CFED2
:10160C0008B9092000E00020DDF800E001B07047C7
:10161C00580000208001002066000020710000208E
:10162C007C00002083000020A3000020A8000020E4
:08163C00B3000020C4000020EF
:1012C40081B00091014600980A7832B10B78027817
:1012D400934202D1491C401CF6E70B7802789A1A13
:0612E40050B201B070479A
:1016BC0000210648018000210548017000210548E1
:1016CC000170012104480170704700BF0003002025
:0C16DC0002030020030300200403002090
:101C240081B0CDF800E0264801462648FFF748FB7E
:101C340008B90A2040E0244801462248FFF740FB47
:101C440008B9002038E0214801461E48FFF738FB58
:101C540008B90C2030E01E4801461A48FFF730FB53
:101C640008B90D2028E01B4801461648FFF728FB59
:101C740008B90E2020E0184801461248FFF720FB5F
:101C840008B9002018E0154801460E48FFF718FB74
:101C940008B9002010E0124801460A48FFF710FB7B
:101CA40008B9002008E00F4801460648FFF708FB82
:101CB40008B9122000E00020DDF800E001B0704710
:101CC400D200002080010020DA000020E40000207F
:101CD400EB000020FC00002006010020120100207F
:081CE4001B0100202401002077
:101ED00082B0CDF800E00023002204462178C8B289
:101EE000FFF746FC08B1641CF8E721782D2905D1DD
:101EF000591C88B2611C84B2084606E021782B295F
:101F000001D1601C00E020469CB295B20246411C03
:101F10000E461178ADF80410BDF80400FFF7DCFDA3
:101F200010B3BDF80400FFF7CBFD28B1BDF80400E5
:101F3000FFF7BAFDADF80400BDF80400FFF708F99B
:101F400028B1BDF804103039ADF8041004E0BDF834
:101F500004105739ADF804102A0192B29DF804100C
:101F600051188DB23046D1E714B1694208B200E091
:0A1F700028B2DDF800E002B070476F
:1017700081B0202806D00D2802D8092800D301E026
:0C178000002100E00121C8B201B0704758
:101AD80081B0CDF800E0C2B2662A03D8612A01D3EA
:101AE800012100E00021C8B2462A03D8412A01D3C7
:101AF800012100E0002140EA0101CBB2D0B2FFF79A
:101B080023FB43EA0001C8B2DDF800E001B07047EA
:1011500081B0392803D8302801D3012100E00021D3
:06116000C8B201B07047A7
:101AC00081B05A2803D8412801D3012100E0002128
:061AD000C8B201B070472E
:101AA80081B05A2805D8412804D340F02001C8B293
:081AB800FFE7FFE701B07047F2
:1023E40081B0CDF800E0344A344B354C354D364E8F
:1023F4004FF03011354801600021354801606FF01D
:10240400010003EA000133480160C3F3C00018B9B6
:10241400FFF718FFFFF716FFC3F3000018B10121FF
:1024240049B22D4801602D48864203D92C492748DA
:10243400016021E02B48864203D92B4923480160DF
:102444001AE04CF25030864203D928491F480160F3
:1024540012E047F23050864203D925491B480160F7
:102464000AE0B6F57A5F03D922491848016003E00F
:102474004FF03011154801601F4804601F48056083
:102484006FF0805002EA000111480160012149B255
:102494001B4801601B48016002F0805038B11A48A3
:1024A400006800B9FBE7012149B218480160DDF872
:1024B40000E001B0704700BF040030331100000099
:1024C4001800800000000000C0D40100C0E00F40EC
:1024D400B0E00F407CE00F40800FFC43A086010079
:1024E400960130008038010055013000D3003000DF
:1024F400B20030007100300060E10F4064E10F4031
:102504007C16FC437816FC43002DFC437016FC43F8
:1022480041F67E27C0F206077F1EFDD100BF00BF02
:0822580000BF00BF00BF70478A
:1023AC0081B002490248016001B07047C0D40100FD
:0423BC006C01002090
:0823780081B0FEE701B07047DF
:1023800081B04EF68850CEF20000016841F4700131
:10239000016000BF00BF00BF00BFF1EE100A40F4B3
:0A23A0004000E1EE100A01B07047A2
:102A400000B5DFF814B0DFF814A0DFF814C0FFF70A
:102A5000EFFB00BD704700BF0000002035010020E3
:042A60001425000039
:102AC00000B5DFF810B0DFF810A0FFF793FB00BDF2
:0C2AD000704700BF00000020B40400208C
:102514002D2D2D2053797374656D20696E69742097
:042524002D2D2D002C
:0C2528007379732067657420766572007B
:0A2534006D6163207061757365002E
:0A253E006D61632070617573650024
:10254800726164696F207365742077647420300049
:10255800726164696F207365742077647420300039
:02256800300041
:02256A0020004F
:0E256C00696E76616C69645F706172616D000A
:10257A006E6F745F6A6F696E6564006E6F5F667214
:06258A0065655F63680057
:1025900073696C656E74006672616D655F636F75FB
:1025A0006E7465725F6572725F72656A6F696E5F85
:0C25B0006E6565646564006275737900F7
:1025BC006D61635F70617573656400696E76616CE3
:0C25CC0069645F646174615F6C656E009F
:0E25D8006B6579735F6E6F745F696E69740076
:0825E6006D61635F6572720014
:0A25EE006D61635F74785F6F6B002E
:1025F8006D61635F727800696E76616C69645F64AF
:082608006174615F6C656E00F6
:0A261000726164696F5F6572720009
:0C261A00726164696F5F74785F6F6B0021
:10262600726164696F5F7278006163636570746577
:0226360064003E
:1026380064656E69656400726164696F20727820F0
:012648000091
:10264C0000A00540400040050100000000A005402E
:10265C0080004005010000000000000000000000A8
:10266C00000000000000000000000000000000005E
:10267C00000000000000000000000000000000004E
:10268C00000000000000000000000000000000003E
:10269C00000000000000000000000000000000002E
:1026AC00000000000000000000000000000000001E
:1026BC00000000000000000000000000000000000E
:1026CC0000000000000000000000000000000000FE
:1026DC0000000000000000000000000000000000EE
:1026EC0000000000000000000000000000000000DE
:1026FC0000000000000000000000000000000000CE
:10270C0000000000000000000000000000000000BD
:0C271C00000000000000000002000000AF
:1027280000F00540400040050100000000F00540B1
:1027380080004005010000000000000000000000CB
:102748000000000000000000000000000000000081
:102758000000000000000000000000000000000071
:102768000000000000000000000000000000000061
:102778000000000000000000000000000000000051
:102788000000000000000000000000000000000041
:102798000000000000000000000000000000000031
:1027A8000000000000000000000000000000000021
:1027B8000000000000000000000000000000000011
:1027C8000000000000000000000000000000000001
:1027D80000000000000000000000000000000000F1
:1027E80000000000000000000000000000000000E1
:0C27F800000000000000000002000000D3
:1028040000B00540100040050100000000B0054084
:10281400200040050100000000000000000000004E
:1028240000000000000000000000000000000000A4
:102834000000000000000000000000000000000094
:102844000000000000000000000000000000000084
:102854000000000000000000000000000000000074
:102864000000000000000000000000000000000064
:102874000000000000000000000000000000000054
:102884000000000000000000000000000000000044
:102894000000000000000000000000000000000034
:1028A4000000000000000000000000000000000024
:1028B4000000000000000000000000000000000014
:1028C4000000000000000000000000000000000004
:0C28D400000000000000000002000000F6
:1028E00000A00540100040050100000000A00540C8
:1028F0002000400501000000000000000000000072
:1029000000000000000000000000000000000000C7
:1029100000000000000000000000000000000000B7
:1029200000000000000000000000000000000000A7
:102930000000000000000000000000000000000097
:102940000000000000000000000000000000000087
:102950000000000000000000000000000000000077
:102960000000000000000000000000000000000067
:102970000000000000000000000000000000000057
:102980000000000000000000000000000000000047
:102990000000000000000000000000000000000037
:1029A0000000000000000000000000000000000027
:0C29B00000000000000000000200000019
:1029BC0059170000651700000917000015170000D3
:1029CC0021170000E11D0000F91D0000051E00008C
:1029DC00ED1D0000D51D0000111E0000411E000061
:1029EC00C10D0000090D0000150D0000390D00008F
:1029FC002D0D0000210D0000550E00009D12000051
:102A0C0091120000F5140000B1140000D113000065
:102A1C0080250000000000006000000000000000A5
:082A2C00000000002000000082
:0C2A34002112000005040000F503000062
:00000001FF
