:02000004000BEF
:10000000FCFF0020551A0B00FD190B00FD190B0019
:10001000FD190B00FD190B00FD190B00FD190B005C
:10002000FD190B00FD190B00FD190B00FD190B004C
:10003000FD190B00FD190B00FD190B00FD190B003C
:10004000FD190B00FD190B00FD190B00FD190B002C
:101A5400FFF7ECFF00F010F8FFF7D2FF00F0BCF93D
:101A640000F05AF800F078F9FFF73AFFFFF760FF4B
:081A7400FFF79CFFFCE7FEE711
:1018D00081B01CF8019B0BF8019BBBEB0A0FF8D100
:0418E00001B070479C
:1018940081B04FF000094FF0000CBDEB0A0F04DCDF
:1018A400BDEB0B0F01DBD446EA464BF8049BBBEBC4
:1018B4000A0FFAD1BCEB0A0F05DDE246D9F800B0F5
:0A18C4000BF1040BF1E701B07047CF
:1018E40081B0CDF800E0012207210020FFF70EFEB1
:1018F400002201210020FFF709FE0022022100201E
:10190400FFF704FE084801460020FFF777FE4EF279
:1019140000110120FFF7A4FF04480221FFF744FF50
:10192400DDF800E001B07047401D0B0040000020CE
:1015100081B0CDF800E05FFA81F95FFA82FA0FE05E
:101520005FFA8AF15FFA89F0FFF70EFE0DE05FFACD
:101530008AF15FFA89F0FFF701FD06E0012004E07F
:101540000028EDD00128F2D0F8E7DDF800E001B086
:021550007047E2
:1011480081B0CDF800E0A9E0012905D140F2010104
:101158006548FFF71FFC04E040F201016248FFF711
:101168000BFCBBE0012905D140F220015F48FFF7E5
:1011780011FC04E040F220015C48FFF7FDFBADE004
:10118800012905D140F208015948FFF703FC04E0A2
:1011980040F208015648FFF7EFFB9FE0012905D10F
:1011A80040F210015348FFF7F5FB04E040F210014C
:1011B8005048FFF7E1FB91E0012905D140F24001D9
:1011C8004C48FFF7E7FB04E040F240014948FFF7CD
:1011D800D3FB83E0012905D140F210014448FFF711
:1011E800D9FB04E040F210014148FFF7C5FB75E068
:1011F800012905D140F210013F48FFF7CBFB04E07D
:1012080040F210013C48FFF7B7FB67E0012905D120
:1012180040F201013748FFF7BDFB04E040F201014D
:101228003448FFF7A9FB59E0012905D140F2200114
:101238003248FFF7AFFB04E040F220012F48FFF7E8
:101248009BFB4BE0012905D140F210012B48FFF729
:10125800A1FB04E040F210012848FFF78DFB3DE0B8
:10126800012905D140F201012548FFF793FB04E06D
:1012780040F201012248FFF77FFB2FE0012905D149
:1012880040F280011A48FFF785FB04E040F2800134
:101298001748FFF771FB21E0012020E000283FF408
:1012A80053AF01283FF45EAF02283FF469AF03282B
:1012B8003FF474AF04283FF47FAF05283FF48AAFAA
:1012C80006283FF495AF0728A0D00828ACD00928F5
:1012D800B8D00A28C4D00B28D0D0DDE70020DDF82C
:1012E80000E001B0704700BF0012084080100840BD
:1012F80000100840601008406011084000110840C4
:041308002010084069
:10099C0081B0CDF800E0044AC9B2FFF7B7FDDDF82D
:0C09AC0000E001B0704700BF0004100024
:1005180081B01446314B984203D8314B984200D3EE
:1005280000E058E02E4BC31A03F01F0303B152E05A
:10053800064600F5A0624FF6FF7304EA0303184667
:10054800284B04EA03031B0C40F20008CFB2014613
:100558001846B8F1080F3ED201231BB203FA08F37C
:100568001BB21CB207EA0403A34231D101F4405381
:100578008BB14FEA8803F5182C686FF4405304EAEE
:1005880003032B604FEA8803F51801F440542B68E5
:1005980023432B601CE04FEA8803F5182C68114BA5
:1005A80004EA03032B604FEA8803F41823680B431B
:1005B80023604FEA8803D5182C686FF0FF0304EA1C
:1005C80003032B604FEA8803D4182368034323608E
:1005D80008F10108BDE701B0704700BFC01208402C
:0805E800001008400000FFFFB5
:1009800081B0CDF800E0044AC9B2FFF7C5FDDDF83B
:0C09900000E001B0704700BF000620002E
:100F3C0081B0CDF800E0A9E0012905D140F2020111
:100F4C006548FFF725FD04E040F202016248FFF717
:100F5C0011FDBBE0012905D140F220015F48FFF7EC
:100F6C0017FD04E040F220015C48FFF703FDADE003
:100F7C00012905D140F208015948FFF709FD04E0A9
:100F8C0040F208015648FFF7F5FC9FE0012905D116
:100F9C0040F210015348FFF7FBFC04E040F2100153
:100FAC005048FFF7E7FC91E0012905D140F24001E0
:100FBC004C48FFF7EDFC04E040F240014948FFF7D4
:100FCC00D9FC83E0012905D140F210014448FFF718
:100FDC00DFFC04E040F210014148FFF7CBFC75E068
:100FEC00012905D140F204013D48FFF7D1FC04E092
:100FFC0040F204013A48FFF7BDFC67E0012905D136
:10100C0040F204013848FFF7C3FC04E040F204014D
:10101C003548FFF7AFFC59E0012905D140F220011A
:10102C003248FFF7B5FC04E040F220012F48FFF7EF
:10103C00A1FC4BE0012905D140F210012B48FFF730
:10104C00A7FC04E040F210012848FFF793FC3DE0B8
:10105C00012905D140F201012548FFF799FC04E074
:10106C0040F201012248FFF785FC2FE0012905D150
:10107C0040F280011A48FFF78BFC04E040F280013B
:10108C001748FFF777FC21E0012020E000283FF40F
:10109C0053AF01283FF45EAF02283FF469AF032839
:1010AC003FF474AF04283FF47FAF05283FF48AAFB8
:1010BC0006283FF495AF0728A0D00828ACD0092803
:1010CC00B8D00A28C4D00B28D0D0DDE70020DDF83A
:1010DC0000E001B0704700BF0012084080100840CB
:1010EC000010084060100840201108400011084012
:0410FC002010084078
:1016000081B0CDF800E009E00846FFF77FFE0AE070
:101610000846FFF79DFE06E0012004E00028F3D015
:0E1620000128F5D0F8E7DDF800E001B07047D2
:10130C0081B0CDF800E000F20C0109688CB200F25B
:10131C00080109688BB2011D09688AB20168084688
:10132C0091B29AB2A3B2FFF78BFBFFF77BFB20B114
:10133C000020FFF75BFBFFF707FB0020DDF800E068
:04134C0001B0704735
:100A4C0084B0CDF800E01FFA82FB1FFA83FC002271
:100A5C008DF80420ADF8081003904A48FFF7C6FC47
:100A6C000398BDF808109DF80420ADF8041002900E
:100A7C00FFF7AEFC0298BDF804100025424C25701F
:100A8C000025424C2570B0F5E13F06D9404CA04200
:100A9C0003D83F4CB4FBF0F308E0B0F5E13F04D8C9
:100AAC004FF4E134B4FBF0F300E00123ADF8041093
:100ABC000290FFF7C1FC0298BDF8041003F0FF048C
:100ACC00E5B2344C25701C0A04F07F04E5B2324CBC
:100ADC002570B0F5E13F06D92F4C247844F0800501
:100AEC002D4C257005E02C4C247804F07F052A4C05
:100AFC002570ADF80410FFF76BFCBDF80410002551
:100B0C00264C25700BE042F00100C0B20EE042F022
:100B1C000200C0B20AE042F00300C0B206E00129B4
:100B2C00F1D00229F3D00329F5D0F4E74FEA8C0475
:100B3C00A4B240EA04044FEACB05ADB2E4B22C43B4
:100B4C00E4B204F07F05154C25700025144C25707B
:100B5C000025144C2570144D144C2560144D154C67
:100B6C002560154D154C2560154D164C2560164C01
:100B7C00247844F00105144C2570DDF800E004B035
:100B8C00704700BF781C0B00F0270F4001240F406A
:100B9C0060E3160000240F4001240F4003240F4093
:100BAC0004240F4002240F4055090B00780100204B
:100BBC00F9090B007C010020310A0B008001002098
:0C0BCC005D040B008401002030270F4066
:1003F80081B0CDF800E040F2000A81464FEA8A0158
:1004080009EB01010968B1F1FF3F12D009F134018C
:100418004FEA8A03C91809680A4609EB0301096803
:1004280008461146FFF7BAFF0AF1010A1FFA8AFACD
:0A043800E4E7DDF800E001B07047D2
:1003A40082B0CDF800E000F0FF02130902F00F0262
:1003B4001446D8B2FFF778FF012212B2A240ADF87A
:1003C400042000460A469DF8041000F0A3F8DDF866
:0603D40000E002B07047DA
:1002AC0081B027E028484DE028484BE0284849E039
:1002BC00284847E0284845E0284843E0284841E0E2
:1002CC0028483FE028483DE028483BE0284839E0F2
:1002DC00284837E0284835E0284833E0284831E002
:1002EC0028482FE028482DE028482BE0284829E012
:1002FC00284827E00028D5D00128D5D00228D5D011
:10030C000328D5D00428D5D00528D5D00628D5D09B
:10031C000728D5D00828D5D00928D5D00A28D5D07B
:10032C000B28D5D00C28D5D00D28D5D00E28D5D05B
:10033C000F28D5D01028D5D01128D5D01228D5D03B
:10034C001328D5D001B07047001008402010084089
:10035C00401008406010084080100840A010084071
:10036C00C0100840E010084000110840201108405F
:10037C00401108406011084080110840A01108404D
:10038C00C0110840E011084000120840201208403B
:08039C00401208406012084005
:1003DC0081B00448007800F07F010248017001B040
:0803EC00704700BF03240F401D
:1004440081B00448007840F080010248017001B096
:08045400704700BF03240F40B4
:100A300081B00548007800F00100C0B208B1012083
:0C0A400000E0002001B0704705240F40CA
:1009F80082B0CDF800E08DF80400FFF7EBFC084961
:100A0800097801F02001C9B201B9F8E79DF804108E
:100A180001F0FF0203490A70DDF800E002B07047F8
:080A280005240F4000240F40DB
:1009540081B0CDF800E0FFF73FFD0648007800F0D5
:100964000100C0B200B9F8E703480078DDF800E000
:0C09740001B0704705240F4000240F4024
:1013500081B0CDF800E000F20C0109688CB200F217
:10136000080109688BB2011D09688AB20168084644
:1013700091B29AB2A3B2FFF769FBFFF759FB20B114
:101380000020FFF739FBFFF7E5FA0020DDF800E069
:0413900001B07047F1
:1018640081B0CDF800E009E00846FFF7A5FD0AE0E5
:101874000846FFF78DFD06E0012004E00028F3D0C0
:0E1884000128F5D0F8E7DDF800E001B070476C
:1013BC0081B0CDF800E0002300220321FFF740FBB1
:1013CC00034A04490A600020DDF800E001B07047D0
:0813DC00F9090B0038010020A3
:1013940081B0CDF800E0002300220321FFF754FBC5
:1013A400034A04490A600020DDF800E001B07047F8
:0813B400F9090B0038010020CB
:1017AC0083B0CDF800E0024610460D228DF80820DB
:1017BC000A228DF809201FE0FFF79CFC23E0027839
:1017CC002AB10190FFF796FC0198401CF7E71AE04C
:1017DC0002782AB10190FFF78DFC0198401CF7E7C5
:1017EC0002AA1046FFF786FC0DF109021046FFF71E
:1017FC0081FC08E0062007E00029DDD00129DED0BD
:10180C000229E5D0F6E70020DDF800E003B07047D0
:1011000081B0CDF800E00178CCB2E0B2034C2468A5
:10111000A0470020DDF800E001B070473801002052
:10090C0082B0CDF800E08DF80400FFF7AFFD084988
:10091C00097801F02001C9B201B9F8E79DF804107B
:10092C0001F0FF0203490A70DDF800E002B07047E5
:08093C0005280F4000280F40C0
:1004780081B00448007800F07F010248017001B0A3
:08048800704700BF03280F407C
:1008FC00024A117860F300011170704790130840A0
:100C7800024A117860F345111170704784130840D7
:100C8800024A117860F3C30111707047801308405D
:100C5800024A117860F30411117070478313084039
:100C6800024A117860F386111170704783130840A7
:100CB800024A117860F304111170704780130840DC
:100C9800024A117860F30411117070478B130840F1
:100CA800024A117860F300011170704783130840FD
:100BF800024A117860F34511117070478813084054
:100C0800024A117860F30411117070478813084084
:100BD800024A117860F300011170704781130840D0
:100BE800024A117860F3C7111170704780130840EA
:100C3800024A117860F3410111707047901308401F
:100C4800024A117860F3C711117070478413084085
:100C1800024A117860F34511117070478E1308402D
:100C2800024A117860F30411117070478313084069
:10069000024A117860F38611117070478313084085
:1006A000024A117860F304111170704780130840FA
:10067000024A117860F382011170704780130840BC
:10068000024A117860F382011170704789130840A3
:1006D000024A117860F34511117070478813084081
:1006E000024A117860F304111170704788130840B2
:1006B000024A117860F300011170704781130840FD
:1006C000024A117860F3C711117070478013084017
:1019340081B0CDF800E014491448FFF727FF14499B
:101944000020FFF7AFFE13491348FFF765FF114965
:101954001248FFF761FF12480221FFF725FF022119
:101964000C48FFF721FF0B490E48FFF755FF0E48BF
:101974000221FFF719FF02210648FFF715FFDDF8E2
:1019840000E001B0704700BF501D0B00E01C0B00CD
:10199400F5030B003C010020000000200C00002097
:0C19A40016000020200000203000002071
:1017900081B0CDF800E003460846FFF7C1FC1846CB
:0C17A000FFF756FEDDF800E001B07047D6
:10112000026806490A60011D0A6805490A6000F262
:1011300008010A6803490A60704700BFB404002030
:081140001C030020080300203D
:1014500000F230011C310A6805490A6000F20801F7
:101460000A6804490A60011D0A6803490A60704756
:0C147000A004002010030020A4040020B1
:1016A80083B0CDF800E08DF8040002910120274CAA
:1016B8002468A047FFF71CFF0020244C2468A0479B
:1016C800FFF716FFFFF714FFFFF712FF01201F4C6B
:1016D8002468A047FFF70CFF01201D4C2468A04791
:1016E80040F2401200211B48FFF778FE40F2141226
:1016F80000211948FFF772FE4CF25033174A136065
:101708000023174A13800023164A13600023164A41
:1017180013700023154A13700023154A1370002311
:10172800144A13700023144A13700123134A1370C8
:10173800029B134A13609DF80430124A1370FFF796
:1017480077FEDDF800E003B0704700BFA404002076
:10175800100300202003002088010020A804002096
:101768006E010020AC0400200E0300203701002089
:101778000F0300200C030020360100200D03002079
:0817880014030020B00400204E
:1014F80046F6FE17C0F2180700BF00BF7F1EFDD1D9
:0815080000BF00BF00BF7047E7
:1013E4001346CAB20146D0B21A461446531E1A46D0
:0A13F40014B10870491CF8E77047B7
:1014380042F2FE37C0F2F40700BF00BF7F1EFDD1A5
:0814480000BF00BF00BF7047A8
:10181C0083B0CDF800E0019002910C4A127812B915
:10182C00FFF7E8FDF9E701990948FEF75DFE029B19
:10183C00084A1360FFF71CFE044A127812B9FFF72E
:10184C00D9FDF9E7DDF800E003B070470D03002087
:08185C00200300201803002006
:1014000081B0CDF800E0FFF717FA18B1FFF7BCF98B
:10141000FFF7C8F90648007808B1FFF769F90548F1
:10142000007808B1FFF764F9DDF800E001B070471B
:08143000360100203701002005
:1008380081B0CDF800E0044C2468A047C0B2DDF8D0
:0C08480000E001B0704700BF0803002072
:10045C0081B00548007800F04000C0B208B101201E
:0C046C0000E0002001B0704705240F40A4
:1004900081B0CDF800E0FFF7EFFF0648007800F0EC
:1004A0000100C0B200B9F8E703480078DDF800E0C9
:0C04B00001B0704705280F4000280F40E5
:1004D80081B00548007800F00100C0B208B10120E1
:0C04E80000E0002001B0704705280F4024
:1004BC0081B00548007800F04000C0B208B10120BE
:0C04CC0000E0002001B0704705280F4040
:1007880081B0CDF800E0044C2468A047C0B2DDF881
:0C07980000E001B0704700BF1C0300200F
:1007A4000D490A880D49891808700B4909884A1CA3
:1007B40009490A800D280DD107490A8807498A1872
:1007C40000211170044909884A1C03490A80012246
:1007D40003490A70704700BF6E01002088010020A1
:0407E40036010020BA
:1006F00081B0CDF800E01848007860B90120174CAF
:100700002468A0471648174C2468A0470020134CC3
:100710002468A0470FE01048007860B101200F4C1A
:100720002468A047104800680D49FFF7E3FE002049
:100730000A4C2468A04701210C48017000210C4894
:10074000017000210B480170012103480170DDF8A0
:1007500000E001B0704700BF0C0300201003002030
:100760008801002014030020180300200D0300203E
:08077000360100200E030020F9
:0203F400704750
:1004F40081B00091014600980C464A1C11460346FF
:10050400421C10461A782270227802B1F4E701B036
:0205140070472E
:10147C0082B0CDF800E0164D2C787CB1154C246868
:10148C000195A047019D40B928780195FFF71CFAFA
:10149C00019D681C01460D46FFE7EDE70D20FFF7A7
:1014AC0013FA0A20FFF710FA00210B4801800021E3
:1014BC000A48017000210A48017001210948017095
:1014CC00012109480170DDF800E002B0704700BF4F
:1014DC0020030020A00400206E0100200D0300203A
:0C14EC00360100200E0300200C0300203D
:1007E80002480178C1F30000704700BF10130840A9
:1008180002480178C1F34010704700BF0413084034
:1008080002480178C1F3C000704700BF00130840D8
:1007780002480178C1F30010704700BF0313084016
:1008840002480178C1F38010704700BF0313084089
:1008740002480178C1F30010704700BF001308401C
:1008A40002480178C1F30010704700BF0B130840E1
:1008940002480178C1F30000704700BF0313084009
:1008540002480178C1F34010704700BF08130840F4
:1007F80002480178C1F30010704700BF0813084091
:1008280002480178C1F30000704700BF0113084077
:1008640002480178C1F3C010704700BF001308406C
:1006400002480178C1F34000704700BF1013084012
:1006300002480178C1F3C010704700BF041308409E
:1006600002480178C1F34010704700BF0E130840E4
:1006500002480178C1F30010704700BF031308403F
:1005F00002480178C1F38010704700BF0313084020
:1006000002480178C1F30010704700BF0013084092
:1006200002480178C1F38000704700BF0013084002
:1006100002480178C1F38000704700BF0913084009
:1009440002480178C1F34010704700BF0813084003
:1008EC0002480178C1F30010704700BF081308409C
:1008B40002480178C1F30000704700BF01130840EB
:1008C40002480178C1F3C010704700BF001308400C
:1008D40081B0CDF800E0034C2468A047DDF800E0C7
:0808E40001B07047B4040020CC
:1019B00081B0CDF800E0FFF723FD0B490B48FFF79E
:1019C00037FE60B90A48FFF7C5FD0A4908700021D3
:1019D0000848FFF7EBFE08480221FFF7E7FEDDF8B5
:1019E00000E001B0704700BF3C010020540000201F
:0C19F000470100203501002056000020B7
:1016300083B0CDF800E001900291174A127812B9F8
:10164000FFF7DEFEF9E7154A11461548FEF752FF8F
:1016500001991348FFF738FB029B124A1360FFF70A
:101660000DFF0D4A127812B9FFF7CAFEF9E7FFF72E
:101670008FFBC1B208B1C8B209E0FFF773FB064A9D
:10168000127812B9FFF7BCFEF9E7FFF7F3FBDDF8BC
:1016900000E003B0704700BF0D0300202B010020C5
:0816A0002003002018030020C4
:100CC80081B00091014600980A780AB1491CFBE7F7
:100CD8000C464A1C11460346421C10461A782270DC
:0A0CE800227802B1F4E701B0704772
:100D900081B0CDF800E0264801462648FFF718FE4E
:100DA00008B9012040E0244801462248FFF710FE20
:100DB00008B9022038E0214801461E48FFF708FE26
:100DC00008B9032030E01E4801461A48FFF700FE2C
:100DD00008B9042028E01B4801461648FFF7F8FD33
:100DE00008B9052020E0184801461248FFF7F0FD39
:100DF00008B9062018E0154801460E48FFF7E8FD3F
:100E000008B9072010E0124801460A48FFF7E0FD44
:100E100008B9082008E00F4801460648FFF7D8FD4A
:100E200008B9092000E00020DDF800E001B07047BB
:100E3000B100002088010020BF000020CA0000206F
:100E4000D5000020DC000020FC0000200101002073
:080E50000C0100201D0100202F
:1009D00081B00091014600980A7832B10B78027814
:1009E000934202D1491C401CF6E70B7802789A1A10
:0609F00050B201B0704797
:100D64000021064801800021054801700021054842
:100D74000170012104480170704700BF6E0100201A
:0C0D84000D030020360100200C030020AD
:100E740081B0CDF800E0264801462648FFF7A6FDDC
:100E840008B90A2040E0244801462248FFF79EFDA5
:100E940008B9002038E0214801461E48FFF796FDB6
:100EA40008B90C2030E01E4801461A48FFF78EFDB1
:100EB40008B90D2028E01B4801461648FFF786FDB7
:100EC40008B90E2020E0184801461248FFF77EFDBD
:100ED40008B9002018E0154801460E48FFF776FDD2
:100EE40008B9002010E0124801460A48FFF76EFDD9
:100EF40008B9002008E00F4801460648FFF766FDE0
:100F040008B9122000E00020DDF800E001B07047CD
:100F14005800002088010020600000206A000020A2
:100F240071000020820000208C0000209800002026
:080F3400A1000020AA0000202A
:1015540082B0CDF800E00023002204462178C8B20E
:10156400FFF778FC08B1641CF8E721782D2905D130
:10157400591C88B2611C84B2084606E021782B29E4
:1015840001D1601C00E020469CB295B20246411C89
:101594000E461178ADF80410BDF80400FFF7A8FB5F
:1015A40010B3BDF80400FFF7C3FB28B1BDF8040075
:1015B400FFF7CAFBADF80400BDF80400FFF7FAF921
:1015C40028B1BDF804103039ADF8041004E0BDF8BA
:1015D40004105739ADF804102A0192B29DF8041092
:1015E40051188DB23046D1E714B1694208B200E017
:0A15F40028B2DDF800E002B07047F5
:100E580081B0202806D00D2802D8092800D301E047
:0C0E6800002100E00121C8B201B0704779
:100CF40081B0CDF800E0C2B2662A03D8612A01D3DC
:100D0400012100E00021C8B2462A03D8412A01D3B8
:100D1400012100E0002140EA0101CBB2D0B2FFF78B
:100D240049FE43EA0001C8B2DDF800E001B07047B3
:1009B80081B0392803D8302801D3012100E0002173
:0609C800C8B201B0704747
:100D340081B05A2803D8412801D3012100E00021C1
:060D4400C8B201B07047C7
:100D4C0081B05A2805D8412804D340F02001C8B2FC
:080D5C00FFE7FFE701B070475B
:101A7C0081B0CDF800E01F4B1F4A204C2048006875
:101A8C0040F002011E480160012A08D0032A06D04A
:101A9C00042A04D0102A02D0302A00D002E01948BF
:101AAC00026002E0012117480160C4F3C00216492C
:101ABC00086862F3C3000860C4F380021249086826
:101ACC0062F382000860C4F340020F49086862F3B5
:101ADC0041000860C4F300020B49086862F300007F
:101AEC000860FFF703FD09480360DDF800E001B072
:101AFC00704700BFE0010000010000000000000082
:101B0C0008E000E00401084008A400400801084077
:101B1C0081B004490448016004490548016001B0E2
:101B2C00704700BF80BB0000700100200000000067
:041B3C007401002010
:0819FC0081B0FEE701B0704765
:101A040081B04EF68850CEF20000016841F47001B6
:101A1400016000BF00BF00BF00BFF1EE100A40F438
:0A1A24004000E1EE100A01B0704727
:101A300081B0DFF81000DFF810100860D0F800D097
:101A400000F004B800000B0008ED00E000BF01B09A
:021A50007047DD
:101D5C0000B5DFF814B0DFF814A0DFF814C0FFF7FB
:101D6C00B1FD00BD704700BF000000203501002010
:041D7C00401B0B00FD
:101DDC0000B5DFF810B0DFF810A0FFF755FD00BD1F
:0C1DEC00704700BF00000020B804002079
:0C1B40007379732067657420766572006D
:0A1B4C006D61632070617573650020
:0A1B56006D61632070617573650016
:101B6000726164696F20736574207764742030003B
:101B7000726164696F20736574207764742030002B
:101B80002D2D2D2053797374656D20696E69742035
:041B90002D2D2D00CA
:021B940030001F
:021B960020002D
:081B98006D61635F657272006C
:0A1BA0006D61635F74785F6F6B0086
:101BAA006D61635F727800696E76616C69645F6407
:081BBA006174615F6C656E004F
:0A1BC200726164696F5F6572720062
:0C1BCC00726164696F5F74785F6F6B007A
:101BD800726164696F5F72780061636365707465D0
:021BE800640097
:101BEA0064656E69656400696E76616C69645F70CC
:101BFA006172616D006E6F745F6A6F696E65640011
:101C0A006E6F5F667265655F63680073696C656EA7
:021C1A00740054
:101C1C006672616D655F636F756E7465725F657218
:101C2C00725F72656A6F696E5F6E6565646564008C
:101C3C0062757379006D61635F70617573656400C3
:101C4C00696E76616C69645F646174615F6C656E0A
:101C5C00006B6579735F6E6F745F696E6974007287
:091C6C006164696F2072782000A8
:101C78008500000084000000FFFFFFFF0000000057
:101C8800000000000000000000000000000000004C
:101C9800000000000000000000000000000000003C
:101CA800000000000010000000100000000000000C
:101CB800000000000000000000000000000000001C
:101CC800000000000000000000000000000000000C
:081CD800000000000000000004
:101CE000FD080B00790C0B00890C0B00590C0B0044
:101CF000690C0B00B90C0B00990C0B00A90C0B0024
:101D0000F90B0B00090C0B00D90B0B00E90B0B00B6
:101D1000E9070B0019080B0009080B0079070B00F5
:101D200085080B0075080B00A5080B0095080B0033
:101D300055080B00F9070B0029080B0065080B007C
:101D400000E10000030000000000000000000000AF
:0C1D5000F9090B0055090B00310A0B00CB
:00000001FF
