:10000000FCFF00205D1F0000151F0000151F0000F1
:10001000151F0000151F0000151F0000151F000010
:10002000151F0000151F0000151F0000151F000000
:10003000151F0000151F0000151F0000151F0000F0
:10004000151F0000151F0000151F0000151F0000E0
:10005000151F0000151F0000151F0000151F0000D0
:10006000151F0000151F0000151F0000151F0000C0
:10007000151F0000151F0000151F0000151F0000B0
:10008000151F0000151F0000151F0000151F0000A0
:10009000151F0000151F0000151F0000151F000090
:1000A000151F0000151F0000151F0000151F000080
:1000B000151F0000151F0000151F0000151F000070
:1000C000151F0000151F0000151F0000151F000060
:1000D000151F0000151F0000151F0000151F000050
:1000E000151F0000151F0000151F0000151F000040
:1000F000151F0000151F0000151F0000151F000030
:101F5C0000F010F8FFF7DCFF00F056FBFFF7EEFF88
:101F6C0000F012FBFFF7A8FFFFF768FFFFF740FF39
:041F7C00FCE7FEE799
:101DE80081B01CF8019B0BF8019BBBEB0A0FF8D1E3
:041DF80001B070477F
:101D900081B04FF000094FF0000CBDEB0A0F04DCDE
:101DA000BDEB0B0F01DBD446EA464BF8049BBBEBC3
:101DB0000A0FFAD1BCEB0A0F05DDE246D9F800B0F4
:0A1DC0000BF1040BF1E701B07047CE
:101EC40081B0CDF800E0012207210020FFF7D2FD08
:101ED400002201210020FFF7CDFD00220221002075
:101EE400FFF7C8FD084801460020FFF787FD4EF2C2
:101EF40000110120FFF7F0FE04480221FFF7B4FEB1
:101F0400DDF800E001B07047CC1D00004400002063
:101A780081B0CDF800E05FFA81F95FFA82FA0FE0F1
:101A88005FFA8AF15FFA89F0FFF7F0FC0DE05FFA80
:101A98008AF15FFA89F0FFF7D1FD06E0012004E042
:101AA8000028EDD00128F2D0F8E7DDF800E001B019
:021AB800704775
:1014740081B0CDF800E0A9E0012905D140F20101D5
:101484006548FFF713FD04E040F201016348FFF7EC
:10149400EFFCBBE0012905D140F240016048FFF7B1
:1014A40005FD04E040F240015E48FFF7E1FCADE0D9
:1014B400012905D140F201015948FFF7F7FC04E086
:1014C40040F201015748FFF7D3FC9FE0012905D101
:1014D40040F220015448FFF7E9FC04E040F2200107
:1014E4005248FFF7C5FC91E0012905D140F2800183
:1014F4004D48FFF7DBFC04E040F280014B48FFF766
:10150400B7FC83E0012905D140F240014648FFF7CA
:10151400CDFC04E040F240014448FFF7A9FC75E02B
:10152400012905D140F280014148FFF7BFFC04E0E6
:1015340040F280013F48FFF79BFC67E0012905D199
:1015440040F210013A48FFF7B1FC04E040F2100108
:101554003848FFF78DFC59E0012905D140F2040118
:101564003548FFF7A3FC04E040F204013348FFF7D9
:101574007FFC4BE0012905D140F208012E48FFF71A
:1015840095FC04E040F208012C48FFF771FC3DE0B3
:10159400012905D140F220011F48FFF787FC04E030
:1015A40040F220011D48FFF763FC2FE0012905D11B
:1015B40040F210011848FFF779FC04E040F21001F2
:1015C4001648FFF755FC21E0012020E000283FF4F5
:1015D40053AF01283FF45EAF02283FF469AF0328FC
:1015E4003FF474AF04283FF47FAF05283FF48AAF7B
:1015F40006283FF495AF0728A0D00828ACD00928C6
:10160400B8D00A28C4D00B28D0D0DDE70020DDF8FC
:1016140000E001B0704700BF414C0040434C004023
:10162400404C0040424C0040004C0040024C004002
:10163400014C0040034C0040204C0040224C004030
:100EB00081B0CDF800E0002424B240F240031BB220
:100EC00040F2040212B242EA03031BB240F20102F2
:100ED00012B243EA020293B2002210B4FFF7BAFC46
:0A0EE00001B0DDF800E001B070473A
:1008540083B0CDF800E08DB20146D0B2BDF90C20D2
:1008640001F0010414B12F02BFB200E0AFB28F4C0B
:100874000C1B640965018D4C6419A0468C4CA04284
:1008840007D108F10406FD43ADB234882C4034800E
:1008940007E0884CA04204D108F104052C883C43AD
:1008A4002C8040F2010403EA0404A4B23CB108F130
:1008B4000606FD43ADB234882C4034800AE040F291
:1008C400020403EA0404A4B224B108F106052C8846
:1008D4003C432C8040F2040403EA0404A4B23CB177
:1008E40008F10806FD43ADB234882C4034800AE098
:1008F40040F2080403EA0404A4B224B108F1080590
:100904002C883C432C8040F2100403EA0404A4B273
:100914003CB108F11806FD43ADB234882C40348054
:100924000AE040F2200403EA0404A4B224B108F16A
:1009340018052C883C432C8040F2400403EA04044C
:10094400A4B23CB108F11A06FD43ADB234882C4080
:1009540034800AE040F2800403EA0404A4B224B11F
:1009640008F11A052C883C432C8003F48074A4B24B
:100974007CB908F10A06FD43ADB234882C403480BA
:1009840008F10C06FD43ADB234882C4034800020BD
:1009940087E01F2A01DD012083E0FFF7B5FE002078
:1009A400B9B2C7B24046102F80F07A8021FA07F41A
:1009B400A4B204F00104A4B2002C00F06E8000F292
:1009C4000A06CD43ADB234882C40348000F20C06C4
:1009D400CD43ADB234882C40348003F48064A4B297
:1009E4002CB1ADF806100024ADF808400DE003F476
:1009F4000064A4B22CB10024ADF80640ADF8081090
:100A040003E0ADF80610ADF8081000F20A063588C8
:100A1400BDF8064045EA0404348000F20C0635882B
:100A2400BDF8084045EA04043480234C041B6409DF
:100A3400ADF80440214CA24218D0BDF80440E400B3
:100A4400A4B265001E4C65197C08E4B264002E193A
:100A540007F00104E4B2E5002DB240F2FF04AC401B
:100A6400A4B2E543ADB234882C403480BDF80440D0
:100A7400E400A4B26500124C65197C08E4B2640079
:100A84002E1907F00104E4B2E5002DB294B204FA81
:100A940005F5ADB234882C4334807F1CFFB282E765
:100AA4000020DDF800E003B0704700BF004C0040B8
:100AB4000000000001000000004C004000000000A5
:040AC4000850004096
:10070C0081B042F652510348018002210248018017
:0C071C0001B07047005000400250004047
:100E740081B0CDF800E0002424B240F240031BB25C
:100E840040F2040212B242EA03031BB240F201022E
:100E940012B243EA020293B2012210B4FFF7D8FC63
:0A0EA40001B0DDF800E001B0704776
:1016440081B0CDF800E0A9E0012905D140F20801FC
:101654006548FFF72BFC04E040F208016348FFF7FC
:1016640007FCBBE0012905D140F280016048FFF787
:101674001DFC04E040F280015E48FFF7F9FBADE099
:10168400012905D140F204015B48FFF70FFC04E097
:1016940040F204015948FFF7EBFB9FE0012905D113
:1016A40040F220015648FFF701FC04E040F220011B
:1016B4005448FFF7DDFB91E0012905D140F2800198
:1016C4004F48FFF7F3FB04E040F280014D48FFF779
:1016D400CFFB83E0012905D140F240014848FFF7E0
:1016E400E5FB04E040F240014648FFF7C1FB75E02A
:1016F400012905D140F240014348FFF7D7FB04E03C
:1017040040F240014148FFF7B3FB67E0012905D1EE
:1017140040F240013648FFF7C9FB04E040F24001C3
:101724003448FFF7A5FB59E0012905D140F2040133
:101734003548FFF7BBFB04E040F204013348FFF7F0
:1017440097FB4BE0012905D140F208012E48FFF731
:10175400ADFB04E040F208012C48FFF789FB3DE0B3
:10176400012905D140F220012148FFF79FFB04E045
:1017740040F220011F48FFF77BFB2FE0012905D130
:1017840040F210011A48FFF791FB04E040F2100107
:101794001848FFF76DFB21E0012020E000283FF40A
:1017A40053AF01283FF45EAF02283FF469AF03282A
:1017B4003FF474AF04283FF47FAF05283FF48AAFA9
:1017C40006283FF495AF0728A0D00828ACD00928F4
:1017D400B8D00A28C4D00B28D0D0DDE70020DDF82B
:1017E40000E001B0704700BF214C0040234C004092
:1017F400414C0040434C0040404C0040424C0040AF
:10180400004C0040024C0040014C0040034C00409E
:101A000081B0CDF800E009E00846FFF71BFD0AE0D1
:101A10000846FFF723FD06E0012004E00028F3D08C
:0E1A20000128F5D0F8E7DDF800E001B07047CE
:1014440081B0CDF800E00068FFF78AFD0020DDF8E8
:0614540000E001B070474A
:100F640081B0CDF800E084460B4A0C490A600C4A73
:100F74000C490A600C4A0D490A600D4A0D490A6081
:100F84000D48FFF7B7FD61460C48FFF7FDFDDDF89E
:100F940000E001B0704700BF791000008401002018
:100FA400090C000088010020F10B00008C010020D6
:100FB400F507000090010020E02200000018004026
:100AF80081B0CDF800E040F2000A814609F1D80142
:100B080009788A453AD20C210AFB01F109EB010167
:100B18008B460BF1080109781F2915D10BF1080143
:100B28000978CCB20BF1060109888BB20BF10401EC
:100B380009888AB2DBF80010084691B2002210B486
:100B4800FFF784FE01B014E00BF108010978CCB27C
:100B58000BF1060109888BB20BF1040109888AB2EE
:100B6800DBF80010084691B2FF2210B4FFF76EFEC2
:100B780001B00AF1010A5FFA8AFABFE7DDF800E07E
:040B880001B0704701
:100B8C0081B0CDF800E007460C463846FFF7B0FDC3
:100B9C0040F280013846FFF7A5FC40F200013846D0
:100BAC00FFF7ACFC40F200013846FFF765FC40F261
:100BBC0000013846FFF770FC40F200013846FFF7A1
:100BCC00ABFC40F200013846FFF7D2FC2146384618
:100BDC00FFF7DEFC3846FFF7A1FDDDF800E001B0C1
:020BEC00704750
:0E06FC0081B0018841F00101018001B070471A
:1004F00081B003884FF63F7203EA0202028002884D
:080500000A43028001B07047BC
:1005080081B031B903884DF6FF7203EA0202028016
:0C05180002E002880A43028001B0704734
:1004840081B0B1F5006F03D102880A43028005E010
:1004940003884FF2FF7203EA0202028001B0704740
:1004A40081B019E0038847F6FF7203EA0202028072
:1004B40019E0028842F40042028002880A43028062
:1004C40011E0028842F40042028003884BF6FF7276
:1004D40003EA0202028006E00029E3D0B1F5804F6E
:0A04E400E7D00029EDD001B0704709
:1005240081B0B1F5807F04D1028842F480720280E8
:1005340005E003884FF6FF6203EA0202028001B07D
:020544007047FE
:10057C0081B0B1F5805F03D102880A43028005E0A7
:10058C0003884EF6FF7203EA0202028001B0704744
:10059C0088B0CDF800E005460E4604AA1046FFF7D9
:1005AC0013FF04AA11462846FFF7F2FE00EE900A4C
:1005BC00F8EE600A00EE106AB8EE400A80EE800A8F
:1005CC00B0EE401A01AA1046FFF78AFEDDED010AD3
:1005DC00FCEE600A10EE902A92B291B2414A00EE03
:1005EC00902A20EE200ABCEE400A10EE100A80B2CF
:1005FC0005F2080423884FF6FE7203EA02022280F9
:10060C0010292ED905F208031A8842F001021A802B
:10061C00B3EE000A81EE000ABCEE400A10EE102A7E
:10062C0092B2ADF80820B3EE000AC1EE000AB3EEA8
:10063C00000A81EE000ABCEE400A10EE102A92B2BB
:10064C0000EE102AB8EE400A70EEC00AB3EE000AB3
:10065C0020EE800ABCEE400A10EE102A92B2ADF8E1
:10066C000A2020B90022ADF80C20284616E00124FF
:10067C002946242C11D263001B4AD21812889042AE
:10068C0008D2621E12B25300184AD2181288ADF862
:10069C000C2002E0641CE4B2EBE70846831D002248
:1006AC001A80841D2388BDF8082043EA02022280A8
:1006BC0000F208031A8802F001021A8000F2080402
:1006CC00BDF80C2013029BB2BDF80A20120192B2A5
:1006DC0013439BB222881A432280DDF800E008B055
:1006EC00704700BF00401C46F82400004025000065
:1003D40082B0CDF800E004462849096801F4E061E0
:1003E400090A08462549096801F0E061090E0A4630
:1003F400214601911146FFF7DDFE019908601F496E
:10040400096801F07001090908461C49096801F4EA
:10041400E001090D0A4604F2080101911146FFF7B3
:10042400C9FE019908601549096801F070010909BC
:1004340008461249096801F0E041090F0A4604F22E
:100444000C0101911146FFF7B5FE019908600B49B3
:10045400096801F0070108460849096801F4E02128
:10046400090C0A46211D01911146FFF7A3FE0199CB
:100474000860DDF800E002B0704700BF08040140E6
:1001B80081B0CDF800E002460846FFF79DFFC3B2C4
:1001C80071E0424A126802F00102D2B140F2010025
:1001D800FFF79AFF3D4A126802F001028AB13C4AD1
:1001E800126802F400422AB14FF4FA3292FBF3F299
:1001F800104666E048F20002B2FBF3F292B290B207
:100208005FE0344A1268B2FBF3F2104659E02F4A15
:10021800126802F00202D2B140F20200FFF774FF46
:100228002A4A126802F002028AB1294A126802F4C4
:1002380000422AB14FF4FA3292FBF3F2104640E042
:1002480048F20002B2FBF3F292B290B239E0224ACD
:100258001268B2FBF3F2104633E0204A1268B2FB90
:10026800F3F210462DE01A4A126802F400422AB14D
:100278004FF4FA3292FBF3F2104622E048F2000201
:10028800B2FBF3F292B290B21BE0FFF753FFB0FB60
:10029800F3F2104615E0124A1268B2FBF3F2104668
:1002A8000FE000200DE0002A3FF48BAF052AAED006
:1002B800012AD2D0022AD6D0032AE6D0042AEAD0CC
:1002C800EFE7DDF800E001B0704700BF48040140E7
:1002D800300401407C0100208001002058000020EB
:0402E8005C00002096
:1001000081B0012109B2814009B208B201B0704743
:1001100081B0074A07490A600749096841EA0002B5
:1001200005490A60012203490A6001B0704700BF17
:0C0130005A690000000401405004014026
:10013C0082B01748006800F4E02114E015480190E3
:10014C0023E01548019020E0144801901DE014486C
:10015C0001901AE01348019017E01348019014E045
:10016C000020019011E00029E8D0B1F5803FE8D0E3
:10017C00B1F5003FE8D0B1F5403FE8D0B1F5802FA4
:10018C00E8D0B1F5A02FE8D0EAE7019802B07047AB
:10019C000404014060E31600C0C62D00808D5B0096
:0C01AC00001BB70000366E01006CDC0286
:10039C0081B0028802F0C00292B2920992B290B27D
:1003AC000AB900200EE0012802D10A68104609E0C3
:1003BC00022802D0032800D004E001F20C021268DB
:0803CC001046FFE701B0704785
:1002EC0082B08DED010A9DED010AB5EEC00AF1EE6A
:1002FC0010FA0ADBDDED010AB7EE000AF4EEC00AD3
:10030C00F1EE10FA01DA012100E0002189B9DDEDEE
:10031C00010ABFEE000AF4EEC00AF1EE10FA07DD96
:10032C009DED010AB5EEC00AF1EE10FA00DC00E01A
:10033C0008E04FF0000100EE101A00ED000A9DEDF0
:10034C00010A23E001A90968C90D01F0FF017F39F9
:10035C0089B2182908D99DED010A00ED000A4FF069
:10036C00000100EE101A11E09DED010ABDEE400AED
:10037C0010EE101A00EE101AB8EEC00A00ED000ACA
:10038C0050ED000A9DED010A30EE600A02B0704794
:1007280081B002884FF6FE7102EA0101018001B032
:02073800704708
:10145C0081B0CDF800E00068FFF74EFD0020DDF80C
:06146C0000E001B0704732
:100F040081B0CDF800E084460B4A0C490A600C4AD3
:100F14000C490A600C4A0D490A600D4A0D490A60E1
:100F24000D48FFF7E7FD61460C48FFF72DFEDDF89D
:100F340000E001B0704700BF4110000084010020B0
:100F440025080000880100203D0800008C010020D5
:100F5400210C000090010020042200000014004035
:101CDC0081B0CDF800E00DE00846FFF795FD10E06F
:101CEC000846FFF7C7FD0CE00846FFF7D5FD08E0F6
:101CFC00012006E00028EFD00128F1D01028F3D005
:0A1D0C00F6E7DDF800E001B07047D3
:1018140081B0CDF800E0FFF7A3FB044A04490A6055
:101824000020DDF800E001B0704700BF791000002F
:04183400400100204F
:1018800081B0CDF800E0FFF73DFB044A04490A604F
:101890000020DDF800E001B0704700BF41100000FB
:0418A00040010020E3
:1018A40081B0CDF800E0FFF7ADFA044A04490A60BC
:1018B4000020DDF800E001B0704700BF5D100000BB
:0418C40040010020BF
:100E080081B0CDF800E084460B4A0C490A600C4AD0
:100E18000C490A600C4A0D490A600D4A0D490A60DE
:100E28000D48FFF765FE61460C48FFF7ABFEDDF89D
:100E380000E001B0704700BF5D1000008401002091
:100E4800E10A000088010020C90A00008C01002086
:100E58000D08000090010020BC2300000010004095
:101C6C0083B0CDF800E0024610460D228DF8082016
:101C7C000A228DF809201FE0FFF7D8FD23E0027837
:101C8C002AB10190FFF7D2FD0198401CF7E71AE04A
:101C9C0002782AB10190FFF7C9FD0198401CF7E7C3
:101CAC0002AA1046FFF7C2FD0DF109021046FFF71C
:101CBC00BDFD08E0062007E00029DDD00129DED0BB
:101CCC000229E5D0F6E70020DDF800E003B070470C
:1018380081B0CDF800E00178CCB2A0B2034C2468A6
:10184800A0470020DDF800E001B07047400100200B
:10105C0081B0CDF800E081B20348FFF791FBDDF8D9
:0C106C0000E001B0704700BF0010004021
:10078C0081B0ADF800100146BDF8000001F20A027C
:10079C00128802F0010292B202B1F7E701F20E02E6
:0607AC00108001B070474F
:1010400081B0CDF800E081B20348FFF79FFBDDF8E7
:0C10500000E001B0704700BF0014004039
:1010780081B0CDF800E081B20348FFF783FBDDF8CB
:0C10880000E001B0704700BF00180040FD
:1010A00081B0CDF800E081B20348FFF76FFBDDF8B7
:0C10B00000E001B0704700BF001C0040D1
:101E480081B0CDF800E014491448FFF7FDFE1449AD
:101E58000020FFF785FE13491348FFF7E5FD1149F8
:101E68001248FFF7E1FD12480221FFF7FBFE0221AD
:101E78000C48FFF7F7FE0B490E48FFF7D5FD0E4853
:101E88000221FFF7EFFE02210648FFF7EBFEDDF81F
:101E980000E001B0704700BF8825000098240000CA
:101EA800B5070000440100200400002010000020B5
:0C1EB8001A00002024000020340000204C
:101C500081B0CDF800E003460846FFF7FDFD1846C9
:0C1C6000FFF7DAFBDDF800E001B0704790
:10185800026806490A60011D0A6805490A6000F223
:1018680008010A6803490A60704700BFAC040020F9
:08187800B00400209C040020D4
:1014180000F230011C310A6805490A6000F208012F
:101428000A6804490A60011D0A6803490A6070478E
:0C143800A0040020A4040020A804002050
:101B680083B0CDF800E08DF8040002910120274CE5
:101B78002468A047FFF7F0FE0020244C2468A04703
:101B8800FFF7EAFEFFF7E8FEFFF7E6FE01201F4C2D
:101B98002468A047FFF7E0FE01201D4C2468A047F9
:101BA80040F2401200211B48FFF7E2FE40F21412F7
:101BB80000211948FFF7DCFE4CF25033174A136036
:101BC8000023174A13800023164A13600023164A7D
:101BD80013700023154A13700023154A137000234D
:101BE800144A13700023144A13700123134A137004
:101BF800029B134A13609DF80430124A1370FFF7D2
:101C080083FEDDF800E003B0704700BFA8040020A1
:101C1800A40400201503002094010020B40400202F
:101C28003E010020B80400209604002095040020FE
:101C3800970400201403002077010020760100207B
:081C4800BC040020C0040020D0
:0C13C40001490870704700BF60880942B2
:0C13D00001490870704700BF58880942AE
:0C13AC0001490870704700BF40880942EA
:0C13B80001490870704700BF54800942D2
:0C13DC0001490870704700BF5C800942A6
:0C14000001490870704700BF5880094285
:0C140C0001490870704700BF7C80094255
:0C13E80001490870704700BF7080094286
:0C13F40001490870704700BF488409429E
:0C18C80001490870704700BF4C840942C1
:0C19B80001490870704700BF74880942A4
:0C19C40001490870704700BF708809429C
:0C19D00001490870704700BF6C84094298
:0C19940001490870704700BF7C880942C0
:0C19A00001490870704700BF48880942E8
:0C19AC0001490870704700BF54800942D8
:0C19E80001490870704700BF5C80094294
:0C19F40001490870704700BF588009428C
:0C19DC0001490870704700BF7880094284
:0C18EC0001490870704700BF788809426D
:0C18F80001490870704700BF6880094279
:0C18D40001490870704700BF6C80094299
:0C18E00001490870704700BF748809427D
:0C19040001490870704700BF708809425C
:1019600044F67D77C0F2120700BF00BF7F1EFDD195
:0819700000BF00BF00BF70477B
:101978001346CAB20146D0B21A461446531E1A4636
:0A19880014B10870491CF8E770471D
:1019100041F6FD27C0F2B70700BF00BF7F1EFDD113
:0819200000BF00BF00BF7047CB
:101A300083B0CDF800E0019002910C4A127812B9FF
:101A4000FFF772FFF9E701990948FEF7B5FE029B1F
:101A5000084A1360FFF78EFB044A127812B9FFF7A9
:101A600063FFF9E7DDF800E003B07047760100207E
:081A700015030020980400207A
:1019280081B0CDF800E0FFF727FA18B1FFF716FAF3
:10193800FFF7F2F90648007808B1FFF7A9F905485A
:10194800007808B1FFF7A4F9DDF800E001B07047AE
:08195800770100209504002036
:100D800081B0CDF800E0044C2468A047C0B2DDF883
:0C0D900000E001B0704700BF9C04002090
:100AE00081B0CDF800E00348FFF72EFDDDF800E00F
:080AF00001B070470010004046
:1005480081B000F21C01098801F0010189B201B9EA
:0E055800F7E700F20C01098888B201B0704785
:100AC80081B0CDF800E00348FFF74AFDDDF800E00B
:080AD80001B07047001000405E
:1005680081B000F21C01098801F0010188B201B0D4
:020578007047CA
:10080C0081B0CDF800E00348FFF792FFDDF800E07F
:08081C0001B07047001000401C
:10073C0081B000F20A01098801F0010189B2002997
:10074C0040F2000100D10121C9B2C8B201B070471A
:1008240081B0CDF800E00348FFF78CFEDDF800E06E
:0808340001B070470014004000
:10083C0081B0CDF800E00348FFF790FEDDF800E052
:08084C0001B0704700140040E8
:100C200081B0CDF800E00348FFF788FDDDF800E073
:080C300001B070470014004000
:100C080081B0CDF800E00348FFF79AFCDDF800E07A
:080C180001B070470018004014
:100BF00081B0CDF800E00348FFF7B6FCDDF800E077
:080C000001B07047001800402C
:1007F40081B0CDF800E00348FFF79EFFDDF800E08C
:0808040001B07047001800402C
:1007DC0081B0CDF800E00348FFF7B0FEDDF800E093
:0807EC0001B07047001C004041
:10075C0081B0CDF800E00348FFF700FFDDF800E0C2
:08076C0001B07047001C0040C1
:1007740081B0CDF800E00348FFF7DEFFDDF800E0CC
:0807840001B07047001C0040A9
:100D640081B0CDF800E0044C2468A047C0B2DDF89F
:0C0D740000E001B0704700BFB004002098
:100D20000D490A880D49891808700B4909884A1C21
:100D300009490A800D280DD107490A8807498A18F0
:100D400000211170044909884A1C03490A800122C4
:100D500003490A70704700BF3E0100209401002043
:040D600077010020F7
:100C980081B0CDF800E01848007860B90120174C01
:100CA8002468A0471648174C2468A0470020134C16
:100CB8002468A0470FE01048007860B101200F4C6D
:100CC8002468A047104800680D49FFF771FD00200F
:100CD8000A4C2468A04701210C48017000210C48E7
:100CE800017000210B480170012103480170DDF8F3
:100CF80000E001B0704700BF14030020A4040020E6
:100D080094010020BC0400209804002076010020F3
:080D1800770100209604002081
:0207B40070478C
:1007B80081B00091014600980C464A1C1146034638
:1007C800421C10461A782270227802B1F4E701B070
:0207D800704768
:1011740082B0CDF800E0164D2C787CB1154C246873
:101184000195A047019D40B928780195FFF728FEF5
:10119400019D681C01460D46FFE7EDE70D20FFF7B2
:1011A4001FFE0A20FFF71CFE00210B4801800021CE
:1011B4000A48017000210A480170012109480170A0
:1011C400012109480170DDF800E002B0704700BF5A
:1011D40015030020A00400203E0100207601002019
:0C11E40077010020960400201403002076
:0C0DB40001480078704700BF2088094209
:0C0DA80001480078704700BF188809421D
:0C0D9C0001480078704700BF0088094241
:0C0C8C0001480078704700BF1480094246
:0C0C500001480078704700BF1C8009427A
:0C0C440001480078704700BF188009428A
:0C0C5C0001480078704700BF3C8009424E
:0C0C740001480078704700BF3080094242
:0C0C680001480078704700BF0884094272
:0C0C800001480078704700BF0C84094256
:0C0C380001480078704700BF3488094272
:0C0DC00001480078704700BF30880942ED
:0C10340001480078704700BF2C8409427E
:0C10040001480078704700BF3C8809429A
:0C101C0001480078704700BF08880942B6
:0C10280001480078704700BF14800942A6
:0C0FF80001480078704700BF1C800942CF
:0C10100001480078704700BF18800942BA
:0C10940001480078704700BF3880094216
:0C0FEC0001480078704700BF38880942B7
:0C0DFC0001480078704700BF28800942C1
:0C0E680001480078704700BF2C80094250
:0C0DCC0001480078704700BF34880942DD
:0C0DD80001480078704700BF30880942D5
:100DE40081B0CDF800E0034C2468A047DDF800E0B2
:080DF40001B07047AC040020BF
:101DFC0081B0CDF800E0FFF791FD0B480B49FFF7E0
:101E0C0085FF60B90A48FFF753FE0A4908700021A4
:101E1C000848FFF725FF08480221FFF721FFDDF8EE
:101E2C0000E001B0704700BF00000020440100201A
:0C1E3C004F0100203D01002002000020AA
:101D180083B0CDF800E001900291174A127812B909
:101D2800FFF7FEFDF9E7154A11461548FEF740FD95
:101D380001991348FFF704FA029B124A1360FFF750
:101D480015FA0D4A127812B9FFF7EAFDF9E7FFF71D
:101D58004BFAC1B208B1C8B209E0FFF70DFB064A59
:101D6800127812B9FFF7DCFDF9E7FFF7A1FADDF801
:101D780000E003B0704700BF760100203301002067
:081D880015030020980400205F
:1011480081B00091014600980A780AB1491CFBE772
:101158000C464A1C11460346421C10461A78227057
:0A116800227802B1F4E701B07047ED
:1011F00081B0CDF800E0264801462648FFF7E2FE20
:1012000008B9012040E0244801462248FFF7DAFEF1
:1012100008B9022038E0214801461E48FFF7D2FEF7
:1012200008B9032030E01E4801461A48FFF7CAFEFD
:1012300008B9042028E01B4801461648FFF7C2FE03
:1012400008B9052020E0184801461248FFF7BAFE09
:1012500008B9062018E0154801460E48FFF7B2FE0F
:1012600008B9072010E0124801460A48FFF7AAFE15
:1012700008B9082008E00F4801460648FFF7A2FE1B
:1012800008B9092000E00020DDF800E001B0704757
:1012900060000020940100206E00002079000020F2
:1012A000840000208B000020AB000020B000002054
:0812B000BB000020CC0000206F
:100FC40081B00091014600980A7832B10B7802781A
:100FD400934202D1491C401CF6E70B7802789A1A16
:060FE40050B201B070479D
:101380000021064801800021054801700021054820
:101390000170012104480170704700BF3E01002028
:0C13A000760100207701002014030020DB
:1012B80081B0CDF800E0264801462648FFF77EFEBB
:1012C80008B90A2040E0244801462248FFF776FE84
:1012D80008B9002038E0214801461E48FFF76EFE95
:1012E80008B90C2030E01E4801461A48FFF766FE90
:1012F80008B90D2028E01B4801461648FFF75EFE96
:1013080008B90E2020E0184801461248FFF756FE9B
:1013180008B9002018E0154801460E48FFF74EFEB0
:1013280008B9002010E0124801460A48FFF746FEB7
:1013380008B9002008E00F4801460648FFF73EFEBE
:1013480008B9122000E00020DDF800E001B0704785
:10135800DA00002094010020E2000020EC000020C8
:10136800F3000020040100200E0100201A010020D3
:08137800230100202C010020DC
:101ABC0082B0CDF800E00023002204462178C8B2A1
:101ACC00FFF7F6FA08B1641CF8E721782D2905D147
:101ADC00591C88B2611C84B2084606E021782B2977
:101AEC0001D1601C00E020469CB295B20246411C1C
:101AFC000E461178ADF80410BDF80400FFF7FEFA9D
:101B0C0010B3BDF80400FFF7EDFA28B1BDF80400DE
:101B1C00FFF7DCFAADF80400BDF80400FFF7E0F9BC
:101B2C0028B1BDF804103039ADF8041004E0BDF84C
:101B3C0004105739ADF804102A0192B29DF8041024
:101B4C0051188DB23046D1E714B1694208B200E0A9
:0A1B5C0028B2DDF800E002B0704787
:1010BC0081B0202806D00D2802D8092800D301E0E1
:0C10CC00002100E00121C8B201B0704713
:1011080081B0CDF800E0C2B2662A03D8612A01D3C3
:10111800012100E00021C8B2462A03D8412A01D3A0
:10112800012100E0002140EA0101CBB2D0B2FFF773
:10113800D9FE43EA0001C8B2DDF800E001B070470B
:100EEC0081B0392803D8302801D3012100E000213A
:060EFC00C8B201B070470E
:1010F00081B05A2803D8412801D3012100E0002102
:06110000C8B201B0704707
:1010D80081B05A2805D8412804D340F02001C8B26D
:0810E800FFE7FFE701B07047CC
:101F800083B0CDF800E0374B374C384D384E394FE1
:101F9000394845F680213948018004F007000528BA
:101FA00004D004F07000502800D00BE0012252B29F
:101FB00033480280002149B2324801803248028011
:101FC00032480180802132480160019502961E4608
:101FD00025463A46029B019C2E48006800F480701A
:101FE00000B1F9E72C492D480160019511463246B0
:101FF0001D46019B2748006800F4807000B1F9E796
:10200000274801602748016027492848016028487F
:10201000026028480360200D00F0070028B944F052
:102020000301254801602A4610E044F4803040F066
:102030000301214801602A462048006830B1FFF7BB
:10204000C7FE012149B21E480160F5E7002117488B
:10205000016042F4B44109480180DDF800E003B0BA
:10206000704700BF000005003300000003000100BE
:10207000840000000010000080BB00000C480040FD
:102080004CA509428CA5094248A5094288A50942E8
:10209000143004E00400014001005A6900000140CE
:1020A00010100140141001405A6900000004014062
:1020B00004040140080401400C040140048920424A
:0420C000048A20422C
:101DD00040F20907C0F2000700BF00BF7F1EFDD11F
:081DE00000BF00BF00BF704707
:101F480081B002490248016001B0704780BB0000BF
:041F580078010020EC
:081F140081B0FEE701B0704747
:101F1C0081B04EF68850CEF20000016841F4700199
:101F2C00016000BF00BF00BF00BFF1EE100A40F41B
:0A1F3C004000E1EE100A01B070470A
:1025940000B5DFF814B0DFF814A0DFF814C0FFF7BB
:1025A40021FC00BD704700BF000000203D01002059
:0425B400C42000003F
:1026140000B5DFF810B0DFF810A0FFF7B7FB00BD7E
:0C262400704700BF00000020C40400202C
:041DCC0000E1000032
:0220C4003000EA
:0220C6002000F8
:0C20C800737973206765742076657200E0
:0A20D4006D61632070617573650093
:0A20DE006D61632070617573650089
:1020E800726164696F2073657420776474203000AE
:1020F800726164696F20736574207764742030009E
:102108002D2D2D2053797374656D20696E697420A7
:042118002D2D2D003C
:04211C001027000088
:0421200000366E0116
:0E212400696E76616C69645F706172616D0056
:102132006E6F745F6A6F696E6564006E6F5F667260
:0621420065655F636800A3
:1021480073696C656E74006672616D655F636F7547
:102158006E7465725F6572725F72656A6F696E5FD1
:0C2168006E656564656400627573790043
:102174006D61635F70617573656400696E76616C2F
:0C21840069645F646174615F6C656E00EB
:0E2190006B6579735F6E6F745F696E697400C2
:08219E006D61635F6572720060
:0A21A6006D61635F74785F6F6B007A
:1021B0006D61635F727800696E76616C69645F64FB
:0821C0006174615F6C656E0043
:0A21C800726164696F5F6572720056
:0C21D200726164696F5F74785F6F6B006E
:1021DE00726164696F5F72780061636365707465C4
:0221EE0064008B
:1021F00064656E69656400726164696F207278203D
:0122000000DD
:10220400004C00400004050500000000004C0040A4
:1022140000080505000000000000000000000000A8
:1022240000000000000000000000000000000000AA
:10223400000000000000000000000000000000009A
:10224400000000000000000000000000000000008A
:10225400000000000000000000000000000000007A
:10226400000000000000000000000000000000006A
:10227400000000000000000000000000000000005A
:10228400000000000000000000000000000000004A
:10229400000000000000000000000000000000003A
:1022A400000000000000000000000000000000002A
:1022B400000000000000000000000000000000001A
:1022C400000000000000000000000000000000000A
:0C22D400000000000000000002000000FC
:1022E000204C00400400050500000000204C004088
:1022F00008000505000000000000000000000000CC
:1023000000000000000000000000000000000000CD
:1023100000000000000000000000000000000000BD
:1023200000000000000000000000000000000000AD
:10233000000000000000000000000000000000009D
:10234000000000000000000000000000000000008D
:10235000000000000000000000000000000000007D
:10236000000000000000000000000000000000006D
:10237000000000000000000000000000000000005D
:10238000000000000000000000000000000000004D
:10239000000000000000000000000000000000003D
:1023A000000000000000000000000000000000002D
:0C23B0000000000000000000020000001F
:1023BC00004C00400400050500000000004C0040EB
:1023CC0008000505000000000000000000000000EF
:1023DC0000000000000000000000000000000000F1
:1023EC0000000000000000000000000000000000E1
:1023FC0000000000000000000000000000000000D1
:10240C0000000000000000000000000000000000C0
:10241C0000000000000000000000000000000000B0
:10242C0000000000000000000000000000000000A0
:10243C000000000000000000000000000000000090
:10244C000000000000000000000000000000000080
:10245C000000000000000000000000000000000070
:10246C000000000000000000000000000000000060
:10247C000000000000000000000000000000000050
:0C248C0000000000000000000200000042
:10249800C5130000D1130000AD130000B9130000EC
:1024A800DD130000011400000D140000E913000002
:1024B800F5130000C9180000B9190000C51900007B
:1024C800B50D0000A90D00009D0D00008D0C000049
:1024D800510C0000450C00005D0C0000750C00005C
:1024E800690C0000810C0000390C0000C10D0000CF
:1024F80000001102CB024303E903E40496058606B3
:102508006308B008C709B80B070DF70DA90EA30F8C
:10251800BE101A118A13531673176E1820190B1A46
:10252800591BEB1B4F1DB51E441F8D2010217C210C
:082538002F222C23D22348249A
:10254000000001000200040008001000200011003B
:10255000210022004400250049004A005200920058
:1025600053005500AA006B00AD00B500B600D600C0
:10257000B700BB00DD00ED00EE00BF00DF00EF00A4
:08258000F700FB00FD00FE0066
:0C25880079100000090C0000F10B0000AD
:00000001FF
