:10000000FCFF02205122000009220000092200000A
:100010000922000009220000092200000922000034
:100020000922000009220000092200000922000024
:100030000922000009220000092200000922000014
:100040000922000009220000092200000922000004
:1000500009220000092200000922000009220000F4
:1000600009220000092200000922000009220000E4
:1000700009220000092200000922000009220000D4
:1000800009220000092200000922000009220000C4
:1000900009220000092200000922000009220000B4
:1000A00009220000092200000922000009220000A4
:1000B0000922000009220000092200000922000094
:1000C0000922000009220000092200000922000084
:1000D0000922000009220000092200000922000074
:1000E0000922000009220000092200000922000064
:1000F0000922000009220000092200000922000054
:100100000922000009220000092200000922000043
:100110000922000009220000092200000922000033
:100120000922000009220000092200000922000023
:100130000922000009220000092200000922000013
:100140000922000009220000092200000922000003
:1001500009220000092200000922000009220000F3
:1001600009220000092200000922000009220000E3
:1001700009220000092200000922000009220000D3
:1001800009220000092200000922000009220000C3
:08019000092200000922000011
:1022500000F010F8FFF7DCFF00F05EFCFFF7EEFF88
:1022600000F01AFCFFF744FFFFF76AFFFFF7A6FF35
:04227000FCE7FEE7A2
:1020A00081B01CF8019B0BF8019BBBEB0A0FF8D128
:0420B00001B07047C4
:1020B40081B04FF000094FF0000CBDEB0A0F04DCB7
:1020C400BDEB0B0F01DBD446EA464BF8049BBBEB9C
:1020D4000A0FFAD1BCEB0A0F05DDE246D9F800B0CD
:0A20E4000BF1040BF1E701B07047A7
:1020F00081B0CDF800E0012207210020FFF786FE25
:10210000002201210020FFF781FE00220221002091
:10211000FFF77CFE084801460020FFF759FE4EF20B
:1021200000110120FFF716FF04480221FFF736FFD8
:10213000DDF800E001B070477C2A00000000FF1FBE
:101E0C0081B0CDF800E05FFA81F85FFA82F916E054
:101E1C005FFA89F15FFA88F0FFF76CFB16E05FFA66
:101E2C0089F15FFA88F0FFF749FC0FE05FFA89F15E
:101E3C005FFA88F0FFF726FD08E0012006E0002895
:101E4C00E6D00128EBD00228F0D0F6E7DDF800E070
:041E5C0001B070471A
:1015000081B0CDF800E0A9E0012905D14FF0040138
:101510006548FFF7D7FC04E04FF004016348FFF78C
:10152000A5FCBBE0012905D14FF400615E48FFF73F
:10153000C9FC04E04FF400615C48FFF797FCADE0A4
:10154000012905D14FF010015948FFF7BBFC04E019
:101550004FF010015748FFF789FC9FE0012905D1A2
:101560004FF020015248FFF7ADFC04E04FF020019E
:101570005048FFF77BFC91E0012905D14FF0800135
:101580004B48FFF79FFC04E04FF080014948FFF70C
:101590006DFC83E0012905D14FF040014448FFF77D
:1015A00091FC04E04FF040014248FFF75FFC75E01A
:1015B000012905D14FF480613F48FFF783FC04E027
:1015C0004FF480613D48FFF751FC67E0012905D1E8
:1015D0004FF400513448FFF775FC04E04FF400511C
:1015E0003248FFF743FC59E0012905D14FF00401CF
:1015F0003348FFF767FC04E04FF004013148FFF780
:1016000035FC4BE0012905D14FF008012C48FFF7CC
:1016100059FC04E04FF008012A48FFF727FC3DE0A1
:10162000012905D14FF480712548FFF74BFC04E0F8
:101630004FF480712348FFF719FC2FE0012905D1F1
:101640004FF400711E48FFF73DFC04E04FF40071B9
:101650001C48FFF70BFC21E0012020E000283FF4AC
:1016600053AF01283FF45EAF02283FF469AF03286F
:101670003FF474AF04283FF47FAF05283FF48AAFEE
:1016800006283FF495AF0728A0D00828ACD0092839
:10169000B8D00A28C4D00B28D0D0DDE70020DDF870
:1016A00000E001B0704700BF50F00F4040F00F4025
:1016B00090F00F4080F00F4010F00F4000F00F400E
:0816C000D0F00F40C0F00F4014
:100EC40081B0CDF800E0034AFFF734FDDDF800E01F
:080ED40001B0704704010200A7
:1009380081B0CDF800E0FFF7DDFEDDF800E001B0A2
:020948007047F6
:1006FC0083B0CDF800E006460C4615463046FFF7B1
:10070C00F3FE40F2FF1306EA03008009002622469E
:10071C002946202E39D24FF0010303FA06F402EADF
:10072C0004031F46A3422ED104031A4B1C19B30019
:10073C00E51801952C68184B04EA03032B60174B42
:10074C0001EA0304019B1B6843EA0404019B1C603F
:10075C0001F48033B3F5803F15D08401104B1B1985
:10076C001433029301F400333BB1FC43029B1B682E
:10077C0003EA0404029B1C6005E0029B1B6843EA2D
:10078C000704029B1C60761CC3E7DDF800E003B095
:10079C00704700BF009004400000FFFFFFFF000007
:0407AC0000F00F400A
:1004F40081B040F2FF1100EA01018909084600F2C7
:1005040009024FF0010101FA02F20449096841EAC3
:10051400020202490A6001B0704700BF38800440FB
:100E6C0081B0CDF800E0034AFFF760FDDDF800E04B
:080E7C0001B0704704010400FD
:1016C80081B0CDF800E0A9E0012905D14FF008016B
:1016D8006548FFF7F3FB04E04FF008016348FFF7A4
:1016E800C1FBBBE0012905D14FF400215E48FFF79B
:1016F800E5FB04E04FF400215C48FFF7B3FBADE0E5
:10170800012905D14FF008015948FFF7D7FB04E03C
:101718004FF008015748FFF7A5FB9FE0012905D1C5
:101728004FF020015248FFF7C9FB04E04FF02001B9
:101738005048FFF797FB91E0012905D14FF0800150
:101748004B48FFF7BBFB04E04FF080014948FFF727
:1017580089FB83E0012905D14FF040014448FFF798
:10176800ADFB04E04FF040014248FFF77BFB75E01A
:10177800012905D14FF400613F48FFF79FFB04E0C2
:101788004FF400613D48FFF76DFB67E0012905D183
:101798004FF480713448FFF791FB04E04FF48071F7
:1017A8003248FFF75FFB59E0012905D14FF480313A
:1017B8002F48FFF783FB04E04FF480312D48FFF7F3
:1017C80051FB4BE0012905D14FF400312848FFF7C0
:1017D80075FB04E04FF400312648FFF743FB3DE07A
:1017E800012905D14FF480712548FFF767FB04E014
:1017F8004FF480712348FFF735FB2FE0012905D10D
:101808004FF400711E48FFF759FB04E04FF40071D4
:101818001C48FFF727FB21E0012020E000283FF4C7
:1018280053AF01283FF45EAF02283FF469AF0328A5
:101838003FF474AF04283FF47FAF05283FF48AAF24
:1018480006283FF495AF0728A0D00828ACD009286F
:10185800B8D00A28C4D00B28D0D0DDE70020DDF8A6
:1018680000E001B0704700BF50F00F4040F00F405B
:1018780090F00F4080F00F4010F00F4000F00F4044
:08188800D0F00F40C0F00F404A
:1018900081B0CDF800E0A9E0012905D14FF0400169
:1018A0006548FFF70FFB04E04FF040016348FFF786
:1018B000DDFABBE0012905D14FF480615E48FFF7F6
:1018C00001FB04E04FF480615C48FFF7CFFAADE024
:1018D000012905D14FF004015948FFF7F3FA04E05C
:1018E0004FF004015748FFF7C1FA9FE0012905D1E5
:1018F0004FF020015248FFF7E5FA04E04FF02001D5
:101900005048FFF7B3FA91E0012905D14FF080016B
:101910004B48FFF7D7FA04E04FF080014948FFF742
:10192000A5FA83E0012905D14FF040014448FFF7B3
:10193000C9FA04E04FF040014248FFF797FA75E01A
:10194000012905D14FF010013F48FFF7BBFA04E031
:101950004FF010013D48FFF789FA67E0012905D1F2
:101960004FF080013448FFF7ADFA04E04FF08001FA
:101970003248FFF77BFA59E0012905D14FF4803155
:101980002F48FFF79FFA04E04FF480312D48FFF70E
:101990006DFA4BE0012905D14FF400312848FFF7DB
:1019A00091FA04E04FF400312648FFF75FFA3DE07A
:1019B000012905D14FF480712548FFF783FA04E02F
:1019C0004FF480712348FFF751FA2FE0012905D128
:1019D0004FF400711E48FFF775FA04E04FF40071F0
:1019E0001C48FFF743FA21E0012020E000283FF4E3
:1019F00053AF01283FF45EAF02283FF469AF0328DC
:101A00003FF474AF04283FF47FAF05283FF48AAF5A
:101A100006283FF495AF0728A0D00828ACD00928A5
:101A2000B8D00A28C4D00B28D0D0DDE70020DDF8DC
:101A300000E001B0704700BF50F00F4040F00F4091
:101A400090F00F4080F00F4010F00F4000F00F407A
:081A5000D0F00F40C0F00F4080
:101DD00081B0CDF800E00DE00846FFF731FB10E0E0
:101DE0000846FFF74DFB0CE00846FFF769FB08E0EB
:101DF000012006E00028EFD00128F1D00228F3D01E
:0A1E0000F6E7DDF800E001B07047DE
:1014400081B0CDF800E00D4D00F20C0109688CB2BE
:1014500000F2080109688BB2011D09688AB20168AF
:10146000084691B29AB2A3B220B4FFF737FD01B09B
:101470000020DDF800E001B0704700BFD828000070
:100EDC0081B0CDF800E09FB203468DB296B2DDF83A
:100EEC0004800848FFF768FD4446AAB21946B3B21D
:100EFC00044810B480B4FFF705FE02B0DDF800E042
:080F0C0001B0704700C006406F
:1009C40081B0304988420CD12F4A30490A60304AFC
:1009D40030490A60304A31490A60314A31490A6073
:1009E4004EE0314988420CD1304A28490A60304AE5
:1009F40028490A602F4A29490A602F4A29490A606E
:100A04003EE02E4988420CD12D4A20490A602D4AE5
:100A140020490A602C4A21490A602C4A21490A606B
:100A24002EE02B4988420CD12A4A18490A602A4AE6
:100A340018490A60294A19490A60294A19490A6069
:100A44001EE0284988420CD1274A10490A60274AE7
:100A540010490A60264A11490A60264A11490A6067
:100A64000EE0254988420BD1244A08490A60244AE9
:100A740008490A60234A09490A60234A09490A6065
:100A840001B0704700A006403D1000007001FF1F38
:100A9400950900007401FF1F210900007801FF1F60
:100AA400090900007C01FF1F00B00640211000006E
:100AB4007D090000650900004D09000000C00640E2
:100AC400E90F0000890B0000710B0000AD09000064
:100AD40000D0064005100000E9070000A908000046
:100AE4009108000000A00E4081100000C108000021
:100AF400F1080000D908000000B00E4065100000A5
:0C0B04007908000019080000010800003A
:100B100085B0CDF800E001900291ADF80C20ADF861
:100B20001030BDF81440ADF814400698FFF792FD60
:100B30000198FFF7F7FC02990198FFF73DFDBDF81A
:100B40000C100198FFF7C4FDBDF810100198FFF7D5
:100B50002FFEBDF814100198FFF7CAFD0198FFF7AA
:100B60009FFD0198FFF76EFDDDF800E005B07047CE
:1006540081B0CDF800E040F2000C83464FEA8C01F3
:100664000BEB01010968B1F1FF3F12D00BF134012A
:100674004FEA8C03C91809680A460BEB03010968A1
:1006840008461146FFF708FF0CF1010C1FFA8CFC19
:0A069400E4E7DDF800E001B0704774
:10049C0082B0CDF800E080464FEA581202F0070215
:1004AC00914608F01F04A24693010D4AD3184FF051
:1004BC000102A240019218460A46019900F036FA50
:1004CC004FEA0933074AD3184FEA8A029C1808F4FA
:1004DC00E06322681A432260DDF800E002B0704746
:0804EC0000F00F4000900440F5
:1005240081B01849884204D1012252B216490A60A6
:1005340026E01649884204D1012252B214490A60C5
:100544001EE01449884204D1012252B212490A60C1
:1005540016E01249884204D1012252B210490A60BD
:100564000EE01049884204D1012252B20E490A60B9
:1005740006E00E49884203D1012252B20C490A60B6
:1005840001B0704700A00640A806904200B00640A3
:10059400AC06904200C00640B006904200D006402F
:1005A400B406904200A00E402805904200B00E40D0
:0405B4002C05904240
:1005B80085B0CDF800E08046894601AA1046FFF7CD
:1005C80029FF164A904503D0154A904500D001E00E
:1005D800019800E002984FEA0912B0FBF2F291B2DA
:1005E80092B2130A9BB298F800201A4388F80020A8
:1005F80008F10103CAB21A7043014FEA0912B3FBAA
:10060800F2F34A0192B29A1AD0B208F10A031A78A0
:1006180002431A70DDF800E005B0704700A00640FC
:0406280000B00640D8
:10041C0081B0CDF800E00446FFF7F4FF40F2E8317C
:10042C0000FB01F3194909680A0F1849096801F022
:10043C007061090EC8B21549096801F47001090D03
:10044C00CDB21249096801F47021090CCEB2D1B2B7
:10045C00491C09B259430F462360221D411C09B2A5
:10046C00B7FBF1F1116004F20802691C09B2B7FB89
:10047C00F1F1116004F20C02711C09B2B7FBF1F13D
:10048C001160DDF800E001B0704700BF448004400B
:0C04100001480068704700BF6C01FF1F2E
:1006D00081B0841C23784FF6EF7212B203EA020253
:1006E0002270841C0B0122781A43227001B07047DB
:1007B00081B001F0020262B1841C01F002032278D0
:1007C0001A432270841C01F0010322781A4322701C
:1007D00007E0841C23784FF6FD7212B203EA02028E
:0607E000227001B0704719
:0C06F00081B002780A43027001B070472C
:1006A00081B0C21C117841F00401117001B0704793
:1006440081B0C21C117841F00801117001B07047EB
:1014800081B0CDF800E00D4D00F20C0109688CB27E
:1014900000F2080109688BB2011D09688AB201686F
:1014A000084691B29AB2A3B220B4FFF74BFD01B047
:1014B0000020DDF800E001B0704700BFB029000057
:100F440081B0CDF800E09FB203468DB296B2DDF8D1
:100F540004800848FFF734FD4446AAB21946B3B2E8
:100F6400044810B480B4FFF7D1FD02B0DDF800E00E
:080F740001B0704700D00640F7
:1014C00081B0CDF800E00D4D00F20C0109688CB23E
:1014D00000F2080109688BB2011D09688AB201682F
:1014E000084691B29AB2A3B220B4FFF72BFD01B027
:1014F0000020DDF800E001B0704700BFB029000017
:101F540081B0CDF800E011E00846FFF77BFD16E004
:101F64000846FFF7C3FD12E00846FFF7D1FD0EE077
:101F74000846FFF7DFFD0AE0012008E00028EBD067
:101F84000128EDD00228EFD01028F1D0F4E7DDF8D5
:061F940000E001B07047FF
:101A580081B0CDF800E0FFF7B1F9044A04490A6003
:101A68000020DDF800E001B0704700BFE90F00007A
:041A78006801FF1FE3
:100DC40081B0CDF800E003460A48FFF7F9FD0A4A6E
:100DD40040F2000104B402B440F20002194640F2A9
:100DE40000030448FFF792FE02B0DDF800E001B012
:0C0DF400704700BF00C00640D828000077
:101AF00081B0CDF800E0FFF741F9044A04490A60DB
:101B00000020DDF800E001B0704700BF05100000C4
:041B10006801FF1F4A
:100D7C0081B0CDF800E003460A48FFF71DFE0A4A91
:100D8C0040F2000104B402B440F20002194640F2F1
:100D9C0000030448FFF7B6FE02B0DDF800E001B036
:0C0DAC00704700BF00D00640B0290000D6
:101B140081B0CDF800E0FFF72FF9044A04490A60C8
:101B24000020DDF800E001B0704700BF05100000A0
:041B34006801FF1F26
:101B380081B0CDF800E0FFF777F9044A04490A605C
:101B48000020DDF800E001B0704700BF3D10000044
:041B58006801FF1F02
:100E300081B0CDF800E003460A48FFF7C3FD0A4A37
:100E400040F2000104B402B440F20002194640F23C
:100E500000030448FFF75CFE02B0DDF800E001B0DB
:0C0E6000704700BF00A0064044290000BD
:101F9C0083B0CDF800E0024610460D228DF80820E3
:101FAC000A228DF809201FE0FFF762FD23E002787A
:101FBC002AB10190FFF75CFD0198401CF7E71AE08D
:101FCC0002782AB10190FFF753FD0198401CF7E706
:101FDC0002AA1046FFF74CFD0DF109021046FFF75F
:101FEC0047FD08E0062007E00029DDD00129DED0FE
:101FFC000229E5D0F6E70020DDF800E003B07047D9
:101A7C0081B0CDF800E00178CCB2A0B2034C246860
:101A8C00A0470020DDF800E001B070476801FF1F9F
:10103C0081B0CDF800E081B20348FFF7F5FBDDF895
:0C104C0000E001B0704700BF00A00640AB
:1008340081B0ADF800100146BDF800000A1D137820
:10084400C3F3C01202B9F9E7CA1D107001B07047B2
:1010200081B0CDF800E081B20348FFF703FCDDF8A2
:0C10300000E001B0704700BF00B00640B7
:100FE80081B0CDF800E081B20348FFF71FFCDDF8BF
:0C0FF80000E001B0704700BF00C00640E0
:1010040081B0CDF800E081B20348FFF711FCDDF8B0
:0C10140000E001B0704700BF00D00640B3
:1010800081B0CDF800E081B20348FFF7D3FBDDF873
:0C10900000E001B0704700BF00A00E405F
:1010640081B0CDF800E081B20348FFF7E1FBDDF881
:0C10740000E001B0704700BF00B00E406B
:1021400081B0CDF800E014491448FFF75FFF14494F
:102150000020FFF7C9FD13491348FFF7D7FE1149C7
:102160001248FFF7D3FE12480221FFF717FF0221A2
:102170000C48FFF713FF0B490E48FFF7C7FE0E4848
:102180000221FFF70BFF02210648FFF707FFDDF8EA
:1021900000E001B0704700BF8C2A00001C2A00003C
:1021A000310800003501FF1F1400FF1F2000FF1F32
:0C21B0002A00FF1F3400FF1F4400FF1F27
:10200C0081B0CDF800E003460846FFF741FD1846C5
:0C201C00FFF752FDDDF800E001B0704756
:101A9C00026806490A60011D0A6805490A6000F2DD
:101AAC0008010A6803490A60704700BFA804FF1FB9
:081ABC00AC04FF1FB004FF1F82
:101AC40000F230011C310A6805490A6000F208017D
:101AD4000A6804490A60011D0A6803490A607047DC
:0C1AE400A404FF1F9004FF1F8C04FF1FD0
:101CE80083B0CDF800E08DF8040002910120274C64
:101CF8002468A047FFF79AFF0020244C2468A047D7
:101D0800FFF794FFFFF792FFFFF790FF01201F4CAA
:101D18002468A047FFF78AFF01201D4C2468A047CC
:101D280040F2401200211B48FFF73EFF40F2141218
:101D380000211948FFF738FF4CF25033174A136057
:101D48000023174A13800023164A13600023164AFB
:101D580013700023154A13700023154A13700023CB
:101D6800144A13700023144A13700123134A137082
:101D7800029B134A13609DF80430124A1370FFF750
:101D880021FFDDF800E003B0704700BF8C04FF1F9F
:101D98009004FF1F0503FF1F8001FF1F9404FF1F0E
:101DA8000003FF1F9804FF1F8604FF1F8504FF1F01
:101DB8008704FF1F0403FF1F0303FF1F0203FF1F06
:081DC8009C04FF1FA004FF1F93
:0C14340001490860704700BF0808FE4333
:0C13BC0001490860704700BF2C08FE4388
:0C13C80001490860704700BF1010FE4390
:0C13D40001490860704700BF1410FE4380
:0C13980001490860704700BF1C10FE43B4
:0C13A40001490860704700BF1810FE43AC
:0C13B00001490860704700BF2800FE43A0
:0C13E00001490860704700BF3408FE435C
:0C14100001490860704700BF0818FE4347
:0C141C0001490860704700BF0C18FE4337
:0C14280001490860704700BF2018FE4317
:0C13EC0001490860704700BF2418FE4350
:0C13F80001490860704700BF0C08FE436C
:0C14040001490860704700BF4C08FE431F
:0C1C880001490860704700BF0C10FE43CB
:0C1C7C0001490860704700BF1410FE43CF
:0C1CA00001490860704700BF1C10FE43A3
:0C1C940001490860704700BF1810FE43B3
:0C1C580001490860704700BF2C00FE43EB
:0C1C4C0001490860704700BF2008FE43FB
:0C1C700001490860704700BF4010FE43AF
:0C1C640001490860704700BF4410FE43B7
:0C1CAC0001490860704700BF2018FE438B
:0C1CDC0001490860704700BF2418FE4357
:0C1CB80001490860704700BF1808FE4397
:0C1CD00001490860704700BF2808FE436F
:0C1CC40001490860704700BF0810FE4393
:0C1B800001490860704700BF1410FE43CC
:0C1B8C0001490860704700BF1C10FE43B8
:0C1B980001490860704700BF1810FE43B0
:0C1B5C0001490860704700BF1000FE4304
:0C1B680001490860704700BF1C08FE43E4
:0C1B740001490860704700BF4010FE43AC
:0C1BA40001490860704700BF4410FE4378
:0C1C1C0001490860704700BF2018FE431B
:0C1C280001490860704700BF2418FE430B
:101C340040F6FE07C0F23D0700BF00BF7F1EFDD186
:081C440000BF00BF00BF7047A4
:101BB0001346CAB20146D0B21A461446531E1A46FC
:0A1BC00014B10870491CF8E77047E3
:101BCC0045F6FE17C0F2622700BF00BF7F1EFDD195
:081BDC0000BF00BF00BF70470D
:101F0C0083B0CDF800E0019002910C4A127812B91E
:101F1C00FFF762FEF9E701990948FEF795FC029B71
:101F2C00084A1360FFF7F4F9044A127812B9FFF764
:101F3C0053FEF9E7DDF800E003B070470203FF1F22
:081F4C000503FF1F8804FF1FBD
:101BE40081B0CDF800E0FFF781F818B1FFF78CF869
:101BF400FFF75AF80648007808B1FFF70BF80548D4
:101C0400007808B1FFF706F8DDF800E001B070478E
:081C14000303FF1F8504FF1FFD
:100CF00081B0CDF800E0044C2468A047C0B2DDF814
:0C0D000000E001B0704700BFB004FF1F0E
:1009940081B0CDF800E00348FFF746FEDDF800E043
:0809A40001B0704700A00640FD
:10062C0081B0011D0A78C2F3401101B9F9E7C11D6F
:08063C000978C8B201B0704753
:1009200081B0CDF800E00348FFF7CAFEDDF800E033
:0809300001B0704700A0064071
:0E06C00081B0011D0978C1F3401001B07047F0
:1009080081B0CDF800E00348FFF7CEFEDDF800E047
:0809180001B0704700A0064089
:0E06B00081B0011D0978C1F3801001B07047C0
:10097C0081B0CDF800E00348FFF752FEDDF800E04F
:08098C0001B0704700B0064005
:1009640081B0CDF800E00348FFF7A8FEDDF800E011
:0809740001B0704700B006401D
:10094C0081B0CDF800E00348FFF7ACFEDDF800E025
:08095C0001B0704700B0064035
:100B880081B0CDF800E00348FFF74CFDDDF800E048
:080B980001B0704700C00640E7
:100B700081B0CDF800E00348FFF7A2FDDDF800E00A
:080B800001B0704700C00640FF
:1009AC0081B0CDF800E00348FFF77CFEDDF800E0F5
:0809BC0001B0704700C00640C5
:1007E80081B0CDF800E00348FFF71CFFDDF800E01A
:0807F80001B0704700D006407B
:1008A80081B0CDF800E00348FFF706FFDDF800E06F
:0808B80001B0704700D00640BA
:1008900081B0CDF800E00348FFF70AFFDDF800E083
:0808A00001B0704700D00640D2
:1008C00081B0CDF800E00348FFF7B0FEDDF800E0AE
:0808D00001B0704700A00E40CA
:1008F00081B0CDF800E00348FFF7E2FEDDF800E04C
:0809000001B0704700A00E4099
:1008D80081B0CDF800E00348FFF7E6FEDDF800E060
:0808E80001B0704700A00E40B2
:1008780081B0CDF800E00348FFF7D4FEDDF800E0D2
:0808880001B0704700B00E4002
:1008180081B0CDF800E00348FFF74EFFDDF800E0B7
:0808280001B0704700B00E4062
:1008000081B0CDF800E00348FFF752FFDDF800E0CB
:0808100001B0704700B00E407A
:100D0C0081B0CDF800E0044C2468A047C0B2DDF8F7
:0C0D1C0000E001B0704700BFAC04FF1FF6
:100CAC000D490A880D49891808700B4909884A1C96
:100CBC0009490A800D280DD107490A8807498A1865
:100CCC0000211170044909884A1C03490A80012239
:100CDC0003490A70704700BF0003FF1F8001FF1F0C
:040CEC000303FF1FE0
:100C180081B0CDF800E01848007860B90120174C81
:100C28002468A0471648174C2468A0470020134C96
:100C38002468A0470FE01048007860B101200F4CED
:100C48002468A047104800680D49FFF7FFFD002001
:100C58000A4C2468A04701210C48017000210C4867
:100C6800017000210B480170012103480170DDF873
:100C780000E001B0704700BF0403FF1F9004FF1F8E
:100C88008001FF1F9C04FF1F8804FF1F0203FF1F32
:080C98000303FF1F8604FF1F88
:0208300070470F
:1008540081B00091014600980C464A1C114603469B
:10086400421C10461A782270227802B1F4E701B0D3
:020874007047CB
:10131C0082B0CDF800E0164D2C787CB1154C2468C9
:10132C000195A047019D40B928780195FFF7F8FD7C
:10133C00019D681C01460D46FFE7EDE70D20FFF708
:10134C00EFFD0A20FFF7ECFD00210B480180002186
:10135C000A48017000210A480170012109480170F6
:10136C00012109480170DDF800E002B0704700BFB0
:10137C000503FF1FA404FF1F0003FF1F0203FF1F31
:0C138C000303FF1F8604FF1F0403FF1F64
:0C0CA00001480068704700BF080AFE43CE
:0C0D4C0001480068704700BF2C0AFE43FD
:0C0D580001480068704700BF1012FE4305
:0C0D400001480068704700BF1412FE4319
:0C0D280001480068704700BF1C12FE4329
:0C0D340001480068704700BF1812FE4321
:0C0BB80001480068704700BF2802FE439F
:0C0BD00001480068704700BF340AFE4373
:0C0BC40001480068704700BF081AFE439B
:0C0BA00001480068704700BF0C1AFE43BB
:0C0BAC0001480068704700BF201AFE439B
:0C0C000001480068704700BF241AFE4342
:0C0BF40001480068704700BF0C0AFE4377
:0C0BDC0001480068704700BF4C0AFE434F
:0C0BE80001480068704700BF0C12FE437B
:0C0C0C0001480068704700BF1412FE434E
:0C0D640001480068704700BF1C12FE43ED
:0C0FC40001480068704700BF1812FE438F
:0C0FB80001480068704700BF2C02FE4397
:0C0FDC0001480068704700BF200AFE4377
:0C0FD00001480068704700BF4012FE435B
:0C0FAC0001480068704700BF4412FE437B
:0C0F880001480068704700BF201AFE43BB
:0C0F7C0001480068704700BF241AFE43C3
:0C0FA00001480068704700BF180AFE43BB
:0C0F940001480068704700BF280AFE43B7
:0C109C0001480068704700BF0812FE43C6
:0C10580001480068704700BF1412FE43FE
:0C0E180001480068704700BF1C12FE4338
:0C0E0C0001480068704700BF1812FE4348
:0C0E240001480068704700BF1002FE4348
:0C0E000001480068704700BF1C0AFE4358
:0C0D700001480068704700BF4012FE43BD
:0C0DB80001480068704700BF4412FE4371
:0C0F200001480068704700BF201AFE4323
:0C0F140001480068704700BF241AFE432B
:100F2C0081B0CDF800E0034C2468A047DDF800E068
:080F3C0001B07047A804FF1F7B
:1021BC0081B0CDF800E0FFF70FFD0B480B49FFF79E
:1021CC002DFF60B90A48FFF745FE0A490870002147
:1021DC000848FFF7DDFE08480221FFF7D9FEDDF8BD
:1021EC0000E001B0704700BF5400FF1F3501FF1F16
:0C21FC004001FF1F6701FF1F5600FF1F7E
:1020280083B0CDF800E001900291174A127812B9F6
:10203800FFF7D4FDF9E7154A11461548FEF706FCE7
:1020480001991348FFF7D6F8029B124A1360FFF76D
:1020580061F90D4A127812B9FFF7C0FDF9E7FFF7E9
:1020680065F8C1B208B1C8B209E0FFF7D9F8064A65
:10207800127812B9FFF7B2FDF9E7FFF7E7F8DDF8D4
:1020880000E003B0704700BF0203FF1F2B01FF1FD2
:082098000503FF1F8804FF1F70
:1011FC0081B00091014600980A780AB1491CFBE7BE
:10120C000C464A1C11460346421C10461A782270A2
:0A121C00227802B1F4E701B0704738
:1011340081B0CDF800E0264801462648FFF7A0FE1E
:1011440008B9012040E0244801462248FFF798FEF0
:1011540008B9022038E0214801461E48FFF790FEF6
:1011640008B9032030E01E4801461A48FFF788FEFC
:1011740008B9042028E01B4801461648FFF780FE02
:1011840008B9052020E0184801461248FFF778FE08
:1011940008B9062018E0154801460E48FFF770FE0E
:1011A40008B9072010E0124801460A48FFF768FE14
:1011B40008B9082008E00F4801460648FFF760FE1A
:1011C40008B9092000E00020DDF800E001B0704714
:1011D4005800FF1F8001FF1F6600FF1F7100FF1FE3
:1011E4007C00FF1F8300FF1FA300FF1FA800FF1F39
:0811F400B300FF1FC400FF1F40
:100E840081B00091014600980A7832B10B7802785B
:100E9400934202D1491C401CF6E70B7802789A1A57
:060EA40050B201B07047DE
:101228000021064801800021054801700021054879
:101238000170012104480170704700BF0003FF1FBF
:0C1248000203FF1F0303FF1F0403FF1F2E
:1012540081B0CDF800E0264801462648FFF710FE8D
:1012640008B90A2040E0244801462248FFF708FE56
:1012740008B9002038E0214801461E48FFF700FE67
:1012840008B90C2030E01E4801461A48FFF7F8FD63
:1012940008B90D2028E01B4801461648FFF7F0FD69
:1012A40008B90E2020E0184801461248FFF7E8FD6F
:1012B40008B9002018E0154801460E48FFF7E0FD84
:1012C40008B9002010E0124801460A48FFF7D8FD8B
:1012D40008B9002008E00F4801460648FFF7D0FD92
:1012E40008B9122000E00020DDF800E001B07047EA
:1012F400D200FF1F8001FF1FDA00FF1FE400FF1F61
:10130400EB00FF1FFC00FF1F0601FF1F1201FF1F60
:081314001B01FF1F2401FF1F54
:101E600082B0CDF800E00023002204462178C8B2F9
:101E7000FFF71AF908B1641CF8E721782D2905D17C
:101E8000591C88B2611C84B2084606E021782B29CF
:101E900001D1601C00E020469CB295B20246411C74
:101EA0000E461178ADF80410BDF80400FFF70AF9EA
:101EB00010B3BDF80400FFF731F928B1BDF80400F4
:101EC000FFF720F9ADF80400BDF80400FEF7EEFFBF
:101ED00028B1BDF804103039ADF8041004E0BDF8A5
:101EE00004105739ADF804102A0192B29DF804107D
:101EF00051188DB23046D1E714B1694208B200E002
:0A1F000028B2DDF800E002B07047DF
:1010A80081B0202806D00D2802D8092800D301E0F5
:0C10B800002100E00121C8B201B0704727
:1010C40081B0CDF800E0C2B2662A03D8612A01D308
:1010D400012100E00021C8B2462A03D8412A01D3E5
:1010E400012100E0002140EA0101CBB2D0B2FFF7B8
:1010F400DBFE43EA0001C8B2DDF800E001B070474E
:100EAC0081B0392803D8302801D3012100E000217A
:060EBC00C8B201B070474E
:10111C0081B05A2803D8412801D3012100E00021D5
:06112C00C8B201B07047DB
:1011040081B05A2805D8412804D340F02001C8B240
:08111400FFE7FFE701B070479F
:1022740090B072B69748019097480290974803909F
:102284009748049097480590974806909748079078
:10229400974808909748099097480A9097480B9058
:1022A40097480C90974998480D9098480E900D982F
:1022B40000F007000F9001F0010050B94CF22050DB
:1022C400934908804DF62810088040F2D2119148B5
:1022D40001809148007800F0010050B18F480078E7
:1022E40000F0080020B18D49087840F0080008701B
:1022F40021E08B48006840F000518948016089481A
:10230400006800F48070B0B9864801686FF47050BA
:1023140001EA000040F4407182480160814800688D
:1023240040F480717F4801607E4801686FF400705A
:1023340001407C480160AA217B4801700D9800F09F
:10234400100060B9794801786FF060000140774867
:10235400017077480078012800D0FAE71CE00D9856
:1023640000F01000C0B10E997248814208D9602172
:102374006E4801706E480078802800D0FAE70BE0C0
:102384006A4801786FF0600001406848017068484D
:102394000078012800D0FAE704996748016067488B
:1023A40001686FF440200140029800F4402001438A
:1023B40062480160624801686FF44030014003984C
:1023C40000F4403001435E4801600F9830B10F982B
:1023D400012803D00F98022800D061E0019800F092
:1023E400800050B9089800F0400028B10B9800F024
:1023F4000300002800D100E015E05248006840F4D2
:1024040000715048016050480168504801404E48EE
:102414000160069800F0040028B14D4801684B485B
:1024240001404B4801600A994A48017005994A489D
:102434000170059800F0040038B14848007800F0B5
:102444001000002800D1F8E705E04448007800F0C7
:10245400100000B1F9E74248007800F0BF01C9B2AA
:10246400069800F0FD0001433D480170079800F014
:10247400E0013C48007800F01F0001433948017036
:102484000199394801700B99384801700F98022856
:1024940005D13348007840F0020131480170B8E0BA
:1024A400019800F0800020B90B9800F0030000B1FF
:1024B40065E02448006840F4007122480160224825
:1024C40001682248014020480160069800F0040099
:1024D40000F04EB80000000000000C0000000100F5
:1024E400000014012200000024000000000000008D
:1024F4000200000046000000000000000000000090
:10250400000000000000000007000000C0D401002B
:102514000E2005400020054000F0074002D007408F
:102524003C80044010D0034000E0074001E0074035
:1025340003E00740803801004480044000700440F8
:10254400048004403880044048900440FFF8FFFEB3
:102554004C900440084006400040064006400640B7
:102564000140064003400640005006400C4006402F
:1025740028B17A4801687A480140784801600A998C
:10258400784801707848007800F0BF01C9B2069815
:1025940000F0FD0001437448017001997348017013
:1025A4000B99734801700F98072805D1059840F0DE
:1025B40080017048017002E005996E480170069828
:1025C40000F0040048B10B9800F0030028B96A48F1
:1025D400007800F0020000B9F9E7059800F0040063
:1025E40038B16548007800F01000002800D1F8E701
:1025F40005E06148007800F0100000B1F9E70798A1
:1026040000F0E0015D48007800F01F0001435B48E2
:102614000170089800F0BF0159480170099800F052
:10262400BF0158480170089800F0400028B1544890
:10263400007840F04001524801700F98052806D1F7
:102644004948007840F00201474801701BE00F98A8
:10265400062803D00F98072800D014E049480078D2
:1026640040F04001474801704348007800F04000C2
:1026740000B9F9E70F98072805D13E48007800F023
:102684003F013C4801700F9818B10F98032800D0FF
:102694002CE03948007800F00C0000B1F9E73A4822
:1026A400006840F00101384801604FF000013748EC
:1026B40001604FF08001364801604FF00501354854
:1026C40001604FF00101324801603148006800F0B8
:1026D400800000B9F9E700212D4801602A4801680B
:1026E4006FF001000140284801602AE00F9801289A
:1026F40003D00F98022800D007E01F48007800F0AC
:102704000C00042800D0F8E71BE00F98042806D03A
:102714000F98062803D00F98052800D007E0164824
:10272400007800F00C00082800D0F8E709E00F98C2
:10273400072806D11048007800F00C000C2800D0BF
:10274400F8E7154801686FF00F0001400C9800F09D
:102754000F0001431048016010B070474C900440D2
:10276400FFF8FFFE084006400140064000500640C6
:102774000C40064000400640064006400340064028
:1027840004400640054006403880044008000440E8
:0C279400000004400400044048800440A1
:10223C0081B002490248016001B07047C0D401006E
:04224C006C01FF1F03
:0822080081B0FEE701B0704750
:1022100081B072B60849086840F47000086000BFD9
:1022200000BF00BF00BFF1EE100A40F44000E1EE35
:0C223000100A62B601B0704788ED00E0B3
:102A980000B5DFF814B0DFF814A0DFF814C0FFF7B2
:102AA800FBFA00BD704700BF0000FF1F3501FF1F84
:042AB800A027000053
:102B180000B5DFF810B0DFF810A0FFF7C7FA00BD66
:0C2B2800704700BF0000FF1FB404FF1F37
:100400000000000000000000FFFFFFFF02FDFFFFF3
:1027A0002D2D2D2053797374656D20696E69742009
:0427B0002D2D2D009E
:0C27B400737973206765742076657200ED
:0A27C0006D616320706175736500A0
:0A27CA006D61632070617573650096
:1027D400726164696F2073657420776474203000BB
:1027E400726164696F2073657420776474203000AB
:0227F4003000B3
:0227F6002000C1
:0E27F800696E76616C69645F706172616D007C
:102806006E6F745F6A6F696E6564006E6F5F667285
:0628160065655F636800C8
:10281C0073696C656E74006672616D655F636F756C
:10282C006E7465725F6572725F72656A6F696E5FF6
:0C283C006E656564656400627573790068
:102848006D61635F70617573656400696E76616C54
:0C28580069645F646174615F6C656E0010
:0E2864006B6579735F6E6F745F696E697400E7
:082872006D61635F6572720085
:0A287A006D61635F74785F6F6B009F
:102884006D61635F727800696E76616C69645F6420
:082894006174615F6C656E0068
:0A289C00726164696F5F657272007B
:0C28A600726164696F5F74785F6F6B0093
:1028B200726164696F5F72780061636365707465E9
:0228C2006400B0
:1028C40064656E69656400726164696F2072782062
:0128D4000003
:1028D8006303000062030000FFFFFFFF0000000029
:1028E80000000000000000000000000000000000E0
:1028F80000000000000000000000000000000000D0
:10290800000000000000080000000800FFFFFFFFB3
:1029180000000000000000000000000000000000AF
:10292800000000000000000000000000000000009F
:0C29380000000000000000000000000093
:102944003103000030030000FFFFFFFF0000000020
:102954000000000000000000000000000000000073
:102964000000000000000000000000000000000063
:10297400000000000000080000000800FFFFFFFF47
:102984000000000000000000000000000000000043
:102994000000000000000000000000000000000033
:0C29A40000000000000000000000000027
:1029B0005103000050030000FFFFFFFF0000000074
:1029C0000000000000000000000000000000000007
:1029D00000000000000000000000000000000000F7
:1029E000000000000000080000000800FFFFFFFFDB
:1029F00000000000000000000000000000000000D7
:102A000000000000000000000000000000000000C6
:0C2A1000000000000000000000000000BA
:102A1C0035140000BD130000C9130000D5130000CD
:102A2C0099130000A5130000B1130000E11300007E
:102A3C00111400001D14000029140000ED130000F7
:102A4C00A10C00004D0D0000590D0000410D0000BF
:102A5C00290D0000350D0000B90B0000D10B000052
:102A6C00C50B0000A10B0000AD0B0000010C000019
:102A7C0000E1000000000000000000000000000069
:0C2A8C00E90F0000890B0000710B000036
:00000001FF
