:100000003DEF0EF00000000000EF00F000000000E7
:0A0010000000000000000000F3D71C
:0E001C000401D6B102D0899001D08980120073
:0A002A00000E82B6010E006E1200F7
:100034000F0121B302D00000FBD7D6C41CFF12006D
:0E004400ACB202D00000FCD7D6C4ADFF120053
:0A005200000E81B4010E006E1200D2
:0E005C000401D6B102D08B9001D08B8012002F
:0A006A00000E82BC010E006E1200B1
:0A007400000E86B4010E006E1200AB
:0E007E000401D6B102D08B9801D08B881200FD
:0E008C000401D6B102D08B9E01D08B8E1200E3
:0E009A000401D6B102D08B9801D08B881200E1
:0E00A8000401D6B102D08F9401D08F841200D3
:0E00B6000401D6B102D08B9C01D08B8C1200BD
:0A00C400000E82B8010E006E12005B
:0E00CE000401D6B102D08B9601D08B861200B1
:0E00DC000401D6B102D08F9001D08F801200A7
:0E00EA000401D6B102D08B9601D08B86120095
:0A00F800000E82BE010E006E120021
:0C010200000E0F0121B3010E006E120070
:0A010E00000E81B2010E006E120017
:0A011800000E82B6010E006E120008
:0A012200000EACB2010E006E1200D8
:0A012C00000E9EBA010E006E1200D4
:0A013600000EA4BA010E006E1200C4
:10014000AECF01F0ABA202D0AB98AB8801C000F0FB
:0201500012009B
:0A015200000E82B8010E006E1200CC
:0A015C00000E80B4010E006E1200C8
:0E0166000401D6B102D08D9001D08D80120020
:0A017400000E82BA010E006E1200A8
:0A017E00000E82B4010E006E1200A4
:0A018800000E82B8010E006E120096
:0A019200000E84B4010E006E12008E
:0A019C00000E84B6010E006E120082
:0A01A600000E82B2010E006E12007E
:0A01B000000E82B8010E006E12006E
:0E01BA000401D6B102D08B9601D08B861200C4
:0E01C8000401D6B102D08B9C01D08B8C1200AA
:0A01D600000E82BE010E006E120042
:0E01E0000401D6B102D08D9601D08D8612009A
:0A01EE00000E81B0010E006E120039
:0A01F800000E82B6010E006E120028
:0E0202000401D6B102D08B9801D08B88120077
:0E0210000401D6B102D08B9601D08B8612006D
:0E021E000401D6B102D08B9E01D08B8E12004F
:0E022C000401D6B102D08A9201D08A8212005B
:02023A001200B0
:0E023C000401D6B102D08B9601D08B86120041
:0E024A000401D6B102D08D9401D08D84120033
:0E0258000401D6B102D08F9201D08F82120025
:0E0266000401D6B102D0899401D0898412001F
:0E0274000401D6B102D0899201D08982120015
:0E0282000401D6B102D08B9601D08B861200FB
:0E0290000401D6B102D08B9401D08B841200F1
:0E029E000401D6B102D08B9A01D08B8A1200D7
:0E02AC000401D6B102D08A9401D08A841200D7
:0E02BA000401D6B102D08B9A01D08B8A1200BB
:0E02C8000401D6B102D08D9201D08D821200B9
:0E02D6000401D6B102D08B9801D08B881200A3
:0A02E400000E82BC010E006E120035
:0E02EE000401D6B102D0899801D0898812008F
:0E02FC000401D6B102D08B9801D08B8812007D
:0A030A00000E82B6010E006E120014
:0E0314000401D6B102D08B9A01D08B8A120060
:0E0322000401D6B102D08B9201D08B82120062
:0E0330000401D6B102D08B9801D08B88120048
:0E033E000401D6B102D08A9001D08A8012004C
:0A034C00000E82B8010E006E1200D0
:0A035600000E82B8010E006E1200C6
:0A036000000E86B0010E006E1200C0
:0A036A00000E82B6010E006E1200B4
:0A037400000E80B0010E006E1200B2
:0A037E00000E82B0010E006E1200A6
:0A038800000E82BA010E006E120092
:0A039200000E82B6010E006E12008C
:0A039C00000E80B8010E006E120082
:0A03A600000E82BA010E006E120074
:0A03B000000E80B2010E006E120074
:1003BA001DCF01F00F0122A302D02299228901C088
:0403CA0000F012002D
:0A03CE00000E84B0010E006E120054
:0A03D800000E86B2010E006E120046
:0A03E200000E84B2010E006E12003E
:1003EC00D2C402F0D3C403F00401D24BD32BD4C437
:1003FC0000F0D5C401F0D44BD52B00C0E9FF01C0EF
:10040C00EAFF02C0E1FF03C0E2FFEECFE6FF02C04D
:0E041C00E9FF03C0EAFFEE5201E0E2D7120052
:10042A00F250026EF29E0500FF6A0150FE6E005005
:08043A00FD6E02BEF28E1200FD
:10044200340E0201DB6F000EDC6FD60EDD6F040E80
:10045200DE6FBA0EE36F030EE46F000EE56F000E5F
:10046200E66F360EDF6F010EE06F000EE16F000ED9
:10047200E26F020ECA6F010ECB6F000ECC6F000E40
:10048200CD6F0F01218B900E226F98849892A4AAAF
:0A04920003D01DCF00F0FBD71200CD
:0C049C00EBC200F0ECC201F0C2DF120065
:1004A800CEC4E9FFCFC4EAFFEE5211E0CEC4E9FFA3
:1004B800CFC4EAFFD0C4D9FFD1C4DAFFEE50DE18AA
:1004C80006E10401CE4BCF2BD04BD12BE9D7CEC4BC
:1004D800E9FFCFC4EAFFD0C4D9FFD1C4DAFFDE50A8
:0604E800EE5C006E120044
:1004EE00440E0201DB6F000EDC6FD60EDD6F040EC4
:1004FE00DE6F400EE36F010EE46F000EE56F000E2F
:10050E00E66F2C0EDF6F010EE06F000EE16F000E36
:10051E00E26F220ECA6F010ECB6F000ECC6F000E73
:10052E00CD6FAC8A900EAB6E948E949C9EAA03D027
:08053E00AECF00F0FBD7120064
:10054600F7C2E1FFF8C2E2FFCEC4E6FFF5C200F053
:08055600F6C201F067DF12009C
:10055E004A0E0401BD25E16E010EBE21E26ECEC42F
:10056E00E6FF010EBD25006E000EBE21016E00C01D
:10057E00BDF401C0BEF4CE510D0A14E14A0EBD25E4
:10058E00E16E010EBE21E26EE66A010EBD25006E21
:10059E00000EBE21016E00C0BDF401C0BEF4010EFE
:0605AE000201F96F1200CA
:1005B4000201FA5323E1D9C2E1FFDAC2E2FF010EDC
:1005C400E66ED7C200F0D8C201F02DDFF1C2E1FF20
:1005D400F2C2E2FF4A0EE66E010EE66EEFC200F0D2
:1005E400F0C201F020DFD9C2E1FFDAC2E2FFE66A1D
:1005F400D7C200F0D8C201F016DF22D00201FA53AC
:100604001FE0D9C2E1FFDAC2E2FF010EE66ED7C2F3
:1006140000F0D8C201F007DFF3C2D2F4F4C2D3F47D
:100624004A0E0401D46F010ED56FDEDED9C2E1FF9C
:10063400DAC2E2FFE66AD7C200F0D8C201F0F3DE04
:10064400010E0401BF6F0201F96BFF6B010EFA6F1B
:02065400120092
:0C065600FBC200F0FCC201F0E5DE120067
:100662000401CE51390806E3300ECE5D03E3010EDC
:08067200006E01D0006A1200C5
:10067A0021D0CF0EAF6EAC9435DF6BD0670EAF6E64
:10068A00AC9430DF66D0CF0EAF6EAC842BDF61D076
:10069A00670EAF6EAC8426DF5CD0440EAF6EAC84BE
:1006AA0021DF57D0220EAF6EAC841CDF52D0060E6B
:1006BA00006E59D0000E006E0401CB1908E10050FB
:1006CA00CA1905E1120EC91902E1C851C00AD1E0DE
:1006DA00000E006ECB1908E10050CA1905E1250E7B
:1006EA00C91902E1C851800AC9E0000E006ECB198F
:1006FA0008E10050CA1905E14B0EC91902E1C851B7
:10070A00000AC1E0000E006ECB1908E10050CA19B8
:10071A0005E1960EC91902E1C851000AB9E0000EB6
:10072A00006ECB1908E10050CA1905E1E10EC9199A
:10073A0002E1C851000AB1E0CB51000A08E1CA51EE
:10074A00010A05E1C951C20A02E1C851000AAAE038
:10075A00AED7440E0201CF6F000ED06FD60ED16F06
:08076A00040ED26F006A1200B8
:10077200300E0401C825006E000EC921016E000E64
:10078200CA21026E1C0E0024F66E000E0120F76EC6
:10079200000E0220F86E0900F5CFE7F20900F5CF4E
:1007A200E8F20900F5CFE9F20900F5CFEAF2080E06
:1007B200C825F66E000EC921F76E000ECA21F86E2A
:1007C2000900F5CFD7F20900F5CFD8F20900F5CF2D
:1007D200D9F20900F5CFDAF2040EC825F66E000E42
:1007E200C921F76E000ECA21F86E0900F5CFD3F2C7
:1007F2000900F5CFD4F20900F5CFD5F20900F5CF03
:04080200D6F2120018
:10080600090E0B6E1E0E0C6EE40E0D6E0D2EFED72F
:0C0816000C2EFCD70B2EFAD700001200AD
:10082200D1C2E1FFD2C2E2FFC8C4E9FFC9C4EAFFF4
:10083200EECFE6FFCFC200F0D0C201F0F5DD006AD4
:020842001200A2
:10084400C8C4F6FFC9C4F7FFCAC4F8FF0900F5CF4E
:10085400F5F20900F5CFF6F20900F5CFF7F2090039
:10086400F5CFF8F2040E0401C825F66E000EC92176
:10087400F76E000ECA21F86E0900F5CFFBF20900ED
:10088400F5CFFCF20900F5CFFDF20900F5CFFEF239
:10089400080EC825F66E000EC921F76E000ECA2197
:1008A400F86E0900F5CFEBF20900F5CFECF2090080
:0C08B400F5CFEDF20900F5CFEEF21200D6
:1008C00038D00F0120870D0E1F6F040E1E6F21857B
:1008D000B8DD7ED00F012087060E1F6F820E1E6FBF
:1008E0002185AFDD75D00F012087030E1F6F400EED
:1008F0001E6F2185A6DD6CD00F012087010E1F6FB2
:10090000A00E1E6F21859DDD63D00F012087010E93
:100910001F6F150E1E6F218594DD5AD00F012087A1
:100920001F6B8A0E1E6F21858CDD52D0060E006E65
:1009300059D0000E006E0401CB1908E10050CA190D
:1009400005E1120EC91902E1C851C00ABAE0000E51
:10095000006ECB1908E10050CA1905E1250EC9192E
:1009600002E1C851800AB6E0000E006ECB1908E122
:100970000050CA1905E14B0EC91902E1C851000A1D
:10098000B2E0000E006ECB1908E10050CA1905E173
:10099000960EC91902E1C851000AAEE0000E006EC1
:1009A000CB1908E10050CA1905E1E10EC91902E1AD
:1009B000C851000AAAE0CB51000A08E1CA51010A55
:1009C00005E1C951C20A02E1C851000AA7E0AED749
:1009D000340E0201CF6F000ED06FD60ED16F040E11
:0609E000D26F006A120054
:1009E60057D00401C9B102D0929401D0928476D036
:1009F6000401C9B102D0969601D096866FD0040143
:100A0600C9B102D0969401D0968468D00401C9B1C8
:100A160002D0949601D0948661D00401C9B102D067
:100A2600949801D094885AD00401C9B102D0949AFE
:100A360001D0948A53D00401C9B102D0989001D054
:100A460098804CD00401C9B102D0939401D093840C
:100A560045D00401C9B102D0989401D098843ED003
:100A66000401C9B102D0989201D0988237D004010E
:100A7600C9B102D0949601D0948630D00401C9B190
:100A860002D0949801D0948829D0010E006E28D007
:100A96000401C851000AA5E0C851010AA9E0C851DD
:100AA600020AADE0C851030AB1E0C851040AB5E034
:100AB600C851050AB9E0C851060ABDE0C851070A7F
:100AC600C1E0C851080AC5E0C851090AC9E0C851C1
:100AD6000A0ACDE0C8510B0AD1E0D7D7000E006E46
:020AE6001200FC
:100AE800C8C4CBF4C9C4CCF4CAC4CDF421D0CF0E49
:100AF800AF6EAC94F8DCD9D0670EAF6EAC94F3DC73
:100B0800D4D0CF0EAF6EAC84EEDCCFD0670EAF6E14
:100B1800AC84E9DCCAD0440EAF6EAC84E4DCC5D04A
:100B2800220EAF6EAC84DFDCC0D0050E006EBFD0E5
:100B3800CBC4F6FFCCC4F7FFCDC4F8FF0900F5CF4E
:100B480001F00900F5CF02F00900F5CF03F0090024
:100B5800F5CF04F0000E006E041808E100500318E9
:100B680005E1120E021802E10150C00AC0E0CBC430
:100B7800F6FFCCC4F7FFCDC4F8FF0900F5CF01F0AC
:100B88000900F5CF02F00900F5CF03F00900F5CF11
:100B980004F0000E006E041808E10050031805E187
:100BA800250E021802E10150800AA6E0CBC4F6FF28
:100BB800CCC4F7FFCDC4F8FF0900F5CF01F0090058
:100BC800F5CF02F00900F5CF03F00900F5CF04F0E6
:100BD800000E006E041808E10050031805E14B0EE2
:100BE800021802E10150000A8CE0CBC4F6FFCCC425
:100BF800F7FFCDC4F8FF0900F5CF01F00900F5CFE4
:100C080002F00900F5CF03F00900F5CF04F0000E5B
:100C1800006E041808E10050031805E1960E02184A
:100C280002E10150000AD8B471D7CBC4F6FFCCC496
:100C3800F7FFCDC4F8FF0900F5CF01F00900F5CFA3
:100C480002F00900F5CF03F00900F5CF04F0000E1B
:100C5800006E041808E10050031805E1E10E0218BF
:100C680002E10150000AD8B456D7CBC4F6FFCCC471
:100C7800F7FFCDC4F8FF0900F5CF01F00900F5CF63
:100C880002F00900F5CF03F00900F5CF04F0045095
:100C9800000A08E10350010A05E10250C20A02E114
:100CA8000150000AD8B43CD740D7000E006E12009D
:100CB80057D00401C9B102D0929001D0928076D069
:100CC8000401C9B102D0949001D094806FD004017E
:100CD800C9B102D0969001D0968068D00401C9B1FC
:100CE80002D0949601D0948661D00401C9B102D093
:100CF800949801D094885AD00401C9B102D0949A2A
:100D080001D0948A53D00401C9B102D0949201D081
:100D180094824CD00401C9B102D0939001D0938041
:100D280045D00401C9B102D0949E01D0948E3ED022
:100D38000401C9B102D0949C01D0948C37D004012D
:100D4800C9B102D0949601D0948630D00401C9B1BB
:100D580002D0949801D0948829D0010E006E28D032
:100D68000401C851000AA5E0C851010AA9E0C85108
:100D7800020AADE0C851030AB1E0C851040AB5E05F
:100D8800C851050AB9E0C851060ABDE0C851070AAA
:100D9800C1E0C851080AC5E0C851090AC9E0C851EC
:100DA8000A0ACDE0C8510B0AD1E0D7D7000E006E71
:020DB800120027
:100DBA0057D00401C9B102D0929201D0928276D062
:100DCA000401C9B102D0929801D092886FD004016F
:100DDA00C9B102D0969201D0968268D00401C9B1F5
:100DEA0002D0949601D0948661D00401C9B102D090
:100DFA00949801D094885AD00401C9B102D0949A27
:100E0A0001D0948A53D00401C9B102D0949401D07C
:100E1A0094844CD00401C9B102D0939201D0938238
:100E2A0045D00401C9B102D0949E01D0948E3ED01F
:100E3A000401C9B102D0949C01D0948C37D004012A
:100E4A00C9B102D0949601D0948630D00401C9B1B8
:100E5A0002D0949801D0948829D0010E006E28D02F
:100E6A000401C851000AA5E0C851010AA9E0C85105
:100E7A00020AADE0C851030AB1E0C851040AB5E05C
:100E8A00C851050AB9E0C851060ABDE0C851070AA7
:100E9A00C1E0C851080AC5E0C851090AC9E0C851E9
:100EAA000A0ACDE0C8510B0AD1E0D7D7000E006E6E
:020EBA00120024
:100EBC0027D0CF0EAF6EAC9477EC02F070D0670EEB
:100ECC00AF6EAC9477EC02F06AD0CF0EAF6EAC8400
:100EDC0077EC02F064D0670EAF6EAC8477EC02F066
:100EEC005ED0440EAF6EAC8477EC02F058D0220E7C
:100EFC00AF6EAC8477EC02F052D0060E006E59D077
:100F0C00000E006E0401CB1908E10050CA1905E16E
:100F1C00120EC91902E1C851C00ACBE0000E006ED6
:100F2C00CB1908E10050CA1905E1250EC91902E1D7
:100F3C00C851800AC4E0000E006ECB1908E10050C5
:100F4C00CA1905E14B0EC91902E1C851000ABDE0EE
:100F5C00000E006ECB1908E10050CA1905E1960E7F
:100F6C00C91902E1C851000AB6E0000E006ECB1997
:100F7C0008E10050CA1905E1E10EC91902E1C85196
:100F8C00000AAFE0CB51000A08E1CA51010A05E1A1
:100F9C00C951C20A02E1C851000AA9E0AED7440EF9
:100FAC000201CF6F000ED06FD60ED16F040ED26F30
:040FBC00006A1200B5
:100FC00027D0CF0EAF6EAC9477EC02F070D0670EE6
:100FD000AF6EAC9477EC02F06AD0CF0EAF6EAC84FB
:100FE00077EC02F064D0670EAF6EAC8477EC02F061
:100FF0005ED0440EAF6EAC8477EC02F058D0220E77
:10100000AF6EAC8477EC02F052D0060E006E59D071
:10101000000E006E0401CB1908E10050CA1905E169
:10102000120EC91902E1C851C00ACBE0000E006ED1
:10103000CB1908E10050CA1905E1250EC91902E1D2
:10104000C851800AC4E0000E006ECB1908E10050C0
:10105000CA1905E14B0EC91902E1C851000ABDE0E9
:10106000000E006ECB1908E10050CA1905E1960E7A
:10107000C91902E1C851000AB6E0000E006ECB1992
:1010800008E10050CA1905E1E10EC91902E1C85191
:10109000000AAFE0CB51000A08E1CA51010A05E19C
:1010A000C951C20A02E1C851000AA9E0AED7440EF4
:1010B0000201CF6F000ED06FD60ED16F040ED26F2B
:0410C000006A1200B0
:1010C400C8C4CBF4C9C4CCF4CAC4CDF427D0CF0E61
:1010D400AF6EAC9477EC02F0DED0670EAF6EAC94DA
:1010E40077EC02F0D8D0CF0EAF6EAC8477EC02F080
:1010F400D2D0670EAF6EAC8477EC02F0CCD0440E45
:10110400AF6EAC8477EC02F0C6D0220EAF6EAC8426
:1011140077EC02F0C0D0050E006EBFD0CBC4F6FF52
:10112400CCC4F7FFCDC4F8FF0900F5CF01F00900E6
:10113400F5CF02F00900F5CF03F00900F5CF04F074
:10114400000E006E041808E10050031805E1120EA9
:10115400021802E10150C00ABAE0CBC4F6FFCCC4C5
:10116400F7FFCDC4F8FF0900F5CF01F00900F5CF72
:1011740002F00900F5CF03F00900F5CF04F0000EEA
:10118400006E041808E10050031805E1250E02184A
:1011940002E10150800AA1E0CBC4F6FFCCC4F7FF02
:1011A400CDC4F8FF0900F5CF01F00900F5CF02F036
:1011B4000900F5CF03F00900F5CF04F0000E006E2E
:1011C400041808E10050031805E14B0E021802E16F
:1011D4000150000A88E0CBC4F6FFCCC4F7FFCDC4AD
:1011E400F8FF0900F5CF01F00900F5CF02F009007E
:1011F400F5CF03F00900F5CF04F0000E006E0418DB
:1012040008E10050031805E1960E021802E10150AE
:10121400000AD8B46ED7CBC4F6FFCCC4F7FFCDC454
:10122400F8FF0900F5CF01F00900F5CF02F009003D
:10123400F5CF03F00900F5CF04F0000E006E04189A
:1012440008E10050031805E1E10E021802E1015023
:10125400000AD8B454D7CBC4F6FFCCC4F7FFCDC42E
:10126400F8FF0900F5CF01F00900F5CF02F00900FD
:10127400F5CF03F00900F5CF04F00450000A08E1AB
:101284000350010A05E10250C20A02E10150000ABA
:0C129400D8B43BD740D7000E006E12000B
:0612A000050E006E1200B5
:1012A6000401C851660806E3610EC85D03E3010E3A
:1012B600006E01D0006A00C0C9F4C851460806E3B2
:1012C600410EC85D03E3010E006E01D0006A0050B6
:1012D600C913C8C4CEF431EC03F0C951001200C0E2
:0412E600C9F4120035
:1012EA000401C8515A0806E3410EC85D03E3010E22
:0812FA00006E01D0006A120031
:101302000401C8515A0804E3410EC85DD8B0C88B25
:06131200C8C400F0120047
:101318000401C851200A09E0C8510D0804E3090E68
:10132800C85D01E302D0006A02D0010E006E12000F
:101338004A0E0401CE6F010ECF6F7E0ED06F000EE5
:10134800D16F54EC02F0005203E10A0E006E7DD01A
:101358004A0E0401CE6F010ECF6F1C0ED06F000E27
:10136800D16F54EC02F0005202E1006A6ED04A0ECE
:101378000401CE6F010ECF6F150ED06F000ED16F26
:1013880054EC02F0005203E10C0E006E5ED04A0EDF
:101398000401CE6F010ECF6F350ED06F000ED16FE6
:1013A80054EC02F0005203E10D0E006E4ED04A0ECE
:1013B8000401CE6F010ECF6F2B0ED06F000ED16FD0
:1013C80054EC02F0005203E10E0E006E3ED04A0EBD
:1013D8000401CE6F010ECF6FC30ED06F000ED16F18
:1013E80054EC02F0005202E1006A2FD04A0E0401C8
:1013F800CE6F010ECF6FBA0ED06F000ED16F54ECC6
:1014080002F0005202E1006A20D04A0E0401CE6FB9
:10141800010ECF6FB10ED06F000ED16F54EC02F0F9
:10142800005202E1006A11D04A0E0401CE6F010E8B
:10143800CF6FCF0ED06F000ED16F54EC02F0005278
:0C14480003E1120E006E01D0006A1200D9
:101454000401BD6BBE6BBF6B0201F96B010EFA6F29
:02146400120074
:101466004A0E0401CE6F010ECF6F860ED06F000EAE
:10147600D16F54EC02F0005203E1010E006E81D0F0
:101486004A0E0401CE6F010ECF6FA60ED06F000E6E
:10149600D16F54EC02F0005203E1020E006E71D0DF
:1014A6004A0E0401CE6F010ECF6F9B0ED06F000E59
:1014B600D16F54EC02F0005203E1030E006E61D0CE
:1014C6004A0E0401CE6F010ECF6F940ED06F000E40
:1014D600D16F54EC02F0005203E1040E006E51D0BD
:1014E6004A0E0401CE6F010ECF6F5E0ED06F000E56
:1014F600D16F54EC02F0005203E1050E006E41D0AC
:101506004A0E0401CE6F010ECF6F260ED06F000E6D
:10151600D16F54EC02F0005203E1060E006E31D09A
:101526004A0E0401CE6F010ECF6FF00ED06F000E83
:10153600D16F54EC02F0005203E1070E006E21D089
:101546004A0E0401CE6F010ECF6F150ED06F010E3D
:10155600D16F54EC02F0005203E1080E006E11D078
:101566004A0E0401CE6F010ECF6F070ED06F010E2B
:10157600D16F54EC02F0005203E1090E006E01D067
:04158600006A1200E5
:10158A00C8C4E9FFC9C4EAFFEE5204E00401C84B2B
:10159A00C92BF6D70401C8C402F0C9C403F0C84B6A
:1015AA00C92BCAC400F0CBC401F0CA4BCB2B00C074
:1015BA00E9FF01C0EAFF02C0E1FF03C0E2FFEECF8C
:1015CA00E6FF02C0E9FF03C0EAFFEE5201E0E2D7FC
:0215DA001200FD
:1015DC000A0E0401C86F030EC96FC8C4E9FFC9C461
:1015EC00EAFFEE5214E0E7C200F0E8C201F015EC9D
:1015FC0002F000520BE1C8C4E9FFC9C4EAFFEECF08
:10160C00CEF4A3EC02F00401C84BC92BE6D70401BD
:10161C000D0ECE6FA3EC02F00A0E0401CE6FA3ECFC
:10162C0002F00401BD6BBE6BBF6B0201F96B010EC6
:08163C00FF6F010EFA6F1200AE
:10164400520E0B6E2B0E0C6E000E0D6E0D2EFED771
:0C1654000C2EFCD70B2EFAD70000120061
:10166000C8C402F0C9C403F0CBC400F0CCC401F07C
:10167000010E0401CB5F000ECC5B0050011009E0AD
:1016800002C0E1FF03C0E2FFCAC4E6FF024A032A28
:04169000EBD7120082
:101694004EEC02F0005206E02BEC03F000C0CEF456
:1016A400AFEC02F00201F95302E0DAEC02F00401BB
:0A16B4008A5302E0DAEC02F01200A3
:1016BE0018D0C1C4C8F4C2C4C9F45CEC06F01CD086
:1016CE00C1C4C8F4C2C4C9F4DDEC06F015D0C1C45F
:1016DE00C8F4C2C4C9F4F3EC04F00ED0010E006ECF
:1016EE000BD00401C051000AE4E0C051010AE8E049
:0A16FE00C051020AECE0F2D712001E
:101708000401C46B0401BF5302E1C0DFFBD70A0E1A
:101718000401D26F030ED36FE60ED46F000ED56F9F
:10172800F6EC01F00A0EC86F030EC96FC0C4CAF404
:10173800C1C4CBF426DFC2C4F3F2C3C4F4F24ADF57
:101748000401BF5302E1A2DFFBD789DE00C0C4F465
:10175800005203E0C4C400F007D078DE0401BF5390
:0A17680002E194DFFBD7E4DD12007C
:101772001CD0C1C4C8F4C2C4C9F4C3C4CAF474EC52
:1017820005F01ED0C1C4C8F4C2C4C9F4C3C4CAF4AB
:1017920098DC16D0C1C4C8F4C2C4C9F4C3C4CAF424
:1017A2007EDD0ED0010E006E0BD00401C051000A86
:1017B200E0E0C051010AE6E0C051020AEBE0F2D7D4
:0217C200120013
:1017C400C3C4C8F4C4C4C9F4C5C4CAF422EC04F044
:1017D400C0C4C8F4C1C4C9F4C2C4CAF4B9EC03F0A7
:0217E4001200F1
:1017E6000401BF5302E153DFFBD70A0E0401D26F97
:1017F600030ED36FC0C4D4F4C1C4D5F4F6EC01F023
:10180600C2C4F3F2C3C4F4F2E6DE0401BF5302E13C
:061816003EDFFBD71200CB
:10181C00D5C2E1FFD6C2E2FF010EE66ED3C200F0E4
:10182C00D4C201F015EC02F003EC04F0D5C2E1FFD8
:10183C00D6C2E2FFE66AD3C200F0D4C201F015ECC6
:10184C0002F003EC04F003EC04F003EC04F0D5C25A
:10185C00E1FFD6C2E2FF010EE66ED3C200F0D4C2A5
:10186C0001F015EC02F003EC04F0D9C2E1FFDAC28E
:10187C00E2FF010EE66ED7C200F0D8C201F015EC03
:10188C0002F00A0E0401C86F030EC96FCA6B400E3A
:10189C00CB6F010ECC6FDEDE4A0EC86F010EC96F26
:1018AC00CA6B140ECB6F010ECC6FD4DE500E03013D
:1018BC00066FC30E076F000E086F096F0401BD6B36
:1018CC00BE6B0301016B026B036B046B0201FF6BBC
:1018DC0004018A6B0301006B0201FA6BF96B010EB8
:1018EC000401BF6FC1C4EFF2C2C4F0F2C3C4F1F281
:0C18FC00C4C4F2F2C0C405F39FDE120069
:101908000401C26BC36BC66BC76BC0C4E9FFC1C41B
:10191800EAFFEECFC8F4FCDC005203E0C04BC12B59
:10192800F4D7C0C4E9FFC1C4EAFFEE502D0A05E1AF
:10193800C24BC32BC04BC12B09D0C0C4E9FFC1C4E3
:10194800EAFFEE502B0A02E1C04BC12BC0C400F0E5
:10195800C1C401F0C04BC12B00C0E9FF01C0EAFFC0
:10196800EECFC4F4000EC56F000EC56FC4C4C8F432
:1019780096DC00522CE0C4C4C8F4B3DC005207E083
:10198800C4C4C8F4BADC00C0C4F4000EC56FC4C433
:10199800CEF431EC03F0005205E0300EC45F000EC7
:1019A800C55B04D0570EC45F000EC55BC637C69131
:1019B800C737C637C691C737C637C691C737C63780
:1019C800C691C737C451C627000EC723BFD7C25117
:1019D800C31108E0C6510008006EC7C401F0000E2C
:0E19E800015604D0C6C400F0C7C401F01200BE
:1019F600C0C4C3F4C1C4C4F40D0E0401C56F0A0EFD
:101A0600C66F3AD0C3C4C8F4C4C4C9F411EC04F018
:101A16003ED0C3C4E9FFC4C4EAFFEE520AE0C3C421
:101A2600C8F4C4C4C9F411EC04F00401C34BC42BBC
:101A3600F0D72DD0C3C4E9FFC4C4EAFFEE520AE0D2
:101A4600C3C4C8F4C4C4C9F411EC04F00401C34B04
:101A5600C42BF0D70401C50EC86F040EC96F11EC74
:101A660004F0C60E0401C86F040EC96F11EC04F031
:101A76000ED0060E006E0CD00401C251000AC2E060
:101A8600C251010AC6E0C251020AD4E0F2D7006A86
:021A960012003C
:101A98002FD0C1C4C8F4C2C4C9F4C3C4CAF4C4C4EE
:101AA800CBF45EEC07F032D0C1C4C8F4C2C4C9F4A8
:101AB800C3C4CAF4C4C4CBF4E0EC07F027D0C1C453
:101AC800C8F4C2C4C9F4C3C4CAF4C4C4CBF460EC37
:101AD80004F01CD0C1C4C8F4C2C4C9F4C3C4CAF455
:101AE800C4C4CBF43DEC03F011D0010E006E0ED04F
:101AF8000401C051000ACDE0C051010AD5E0C0512F
:0E1B0800020ADDE0C051100AE5E0EFD712003E
:101B16000900F5CFE6FF0006FBE10106F9E1120038
:101B26000401C06B070EC16F010EC26FC5DD040153
:101B3600C06B010EC16FC26BBFDD0401C06B020E2C
:101B4600C16FC26BB9DD0401C06B290EC16F1E0ED9
:101B5600C26F000EC36F0ADE020E0401C06F000ED4
:101B6600C16FE10EC26F000EC36FC46F92DF480EE5
:101B76000401C06F000EC16F020EC26F39DF120082
:101B8600BD0E0401C06F1D0EC16F000EC26F1D0E8B
:101B9600C36F1E0EC46F000EC56F11DEC06B3A0E0A
:101BA600C16F020EC26FD60EC36F040EC46F33DE52
:101BB600FB0EC06F000EC16F8B0EC26F040EC36F9B
:101BC6000FDE400E0401C06F010EC16F8B0EC26F97
:101BD600040EC36F05DE260E0401C06F010EC16F31
:101BE600020EC26F05DF8B0E0401C06F040EC16FBB
:101BF600020EC26FFDDE300E0401C06F010EC16F12
:101C06008B0EC26F040EC36FEBDDD60E0401C06FE0
:101C1600000EC16F020EC26FEBDE8B0E0401C06FA9
:0C1C2600040EC16F020EC26FE3DE12005C
:101C320030DD460E0401C06F000EC16F8B0EC26F05
:101C4200040EC36F60DD005216E1960E0401C06FF0
:101C5200040EC16F58DE00C0CEF2CE0EC06F020E6F
:101C6200C16FC26BC7DE5C0E0401C06F000EC16F94
:081C7200020EC26FBFDE12007A
:0E1C7A0017EC0FF053DF82DFD7DFFED7FFD766
:101E2E0010EE15F0350E006E020E016E880EF66E77
:0E1E3E001C0EF76E000EF86E8BEC0DF012000D
:071C88006D61635F727800DB
:0A1C8F006D61635F74785F6F6B0096
:051C9900627573790083
:0A1C9E00726164696F5F6572720085
:101CA800696E76616C69645F646174615F6C656EAE
:011CB800002B
:021CB9003000F9
:101CBB002D2D2D2053797374656D20696E697420F9
:041CCB002D2D2D008E
:021CCF002000F3
:101CD1006672616D655F636F756E7465725F657263
:101CE100725F72656A6F696E5F6E656564656400D7
:081CF1006D61635F6572720012
:0E1CF900696E76616C69645F706172616D0086
:071D070073696C656E740046
:0B1D0E006E6F5F667265655F636800C2
:0B1D19006E6F745F6A6F696E65640096
:091D24006163636570746564007D
:091D2D00726164696F5F72780055
:0C1D3600726164696F5F74785F6F6B000E
:071D420064656E6965640031
:101D4900726164696F207365742077647420300050
:0A1D5900726164696F207278200047
:0B1D63006D61635F7061757365640063
:0C1D6E007379732067657420766572003D
:0E1D7A006B6579735F6E6F745F696E697400DC
:101D8800696E76616C69645F646174615F6C656ECD
:011D9800004A
:0A1D99006D616320706175736500D1
:101DA300726164696F2073657420776474203000F6
:0A1DB3006D616320706175736500B7
:101DBD001C00D6045C00D6046601D604EA00D604E5
:101DCD00FC02D6041403D6042203D6043E03D60423
:101DDD008C00D604B600D604CE00D6047E00D60400
:101DED00740300007E030000CE0300006A030000B0
:101DFD004C03000088030000A6010000EE01000066
:101E0D00D6010000E40200000A030000B00100004A
:0C1E1D004400D604400100002C0100002D
:041E290000E10000D4
:020000040030CA
:0E00000015137F7CF98B91FFFFC0FFE0FF40DE
:00000001FF
